:100000000C9435000C945D000C945D000C945D0024
:100010000C945D000C945D000C945D000C945D00EC
:100020000C945D000C945D000C945D000C945D00DC
:100030000C945D000C945D000C945D000C945D00CC
:100040000C94E6000C945D000C946D0A0C94C30AA9
:100050000C945D000C94E3010C945D000C945D0025
:100060000C945D000C945D00241011241FBECFEF92
:10007000D8E0DEBFCDBF11E0A0E0B1E0E8EAF1E2F8
:1000800002C005900D92AE31B107D9F721E0AEE183
:10009000B1E001C01D92A63EB207E1F710E0C5E352
:1000A000D0E004C02197FE010E94C110C433D107E3
:1000B000C9F70E941F100C94D2100C9400008AE023
:1000C0008093810010928B0010928A00229A2A98C5
:1000D000089583EF8093B00084BD82E08093B100E7
:1000E00085BD1092B4001092B30018BC17BCEEE6A8
:1000F000F0E08081816080838AB188668AB9239A22
:100100005D985E985B982B98089514BC1092B0008F
:1001100015BC1092B1000895992364F418BC919510
:10012000819591098F3F910519F014F08FEF90E0C0
:1001300087BD08958F3F910519F014F08FEF90E07F
:1001400088BD17BC0895992374F41092B40091955A
:10015000819591098F3F910519F014F08FEF90E090
:100160008093B30008958F3F910519F014F08FEF3D
:1001700090E08093B4001092B30008959093D90159
:100180008093D80120910001222321F081E0809307
:10019000D10108950E94A30008959093D701809300
:1001A000D60120910001222321F081E08093D0012B
:1001B00008950E948C000895882321F0CB010E94AD
:1001C000A3000895CB010E948C0008951F920F9206
:1001D0000FB60F9211242F933F934F935F936F931A
:1001E0007F938F939F93AF93BF93CF93DF93EF93BF
:1001F000FF938091CE018F5F8093CE018A3009F00A
:10020000CFC01092CE018091CA019091CB01A091F4
:10021000CC01B091CD010196A11DB11D8093CA0101
:100220009093CB01A093CC01B093CD018091E301D9
:10023000882309F44AC08091E0019091E1018F3F49
:100240002FEF920709F441C001979093E101809349
:10025000E001892BD1F58091E2018823F9F08091AA
:10026000DE019091DF01009739F48FEF9FEF9093BB
:10027000E1018093E00104C09093E1018093E001EB
:10028000E0E8F0E080818F7E8083EAEDF1E081811B
:100290008093890080818093880011C0EAEDF1E0AD
:1002A0008281938197838683A0E8B0E08C918061FE
:1002B0008C93818180938900808180938800EAED0E
:1002C000F1E0908581E0892780878091CF018111BD
:1002D00067C081E08093CF01C0E0D0E08C2F9E0109
:1002E000FE01E053FE4F9081992309F452C0AE0104
:1002F000440F551FFA01EA52FE4F60817181FA01E5
:10030000EE52FE4F408151816417750729F4F901BF
:10031000E053FE4F10823DC0A901440F551FFA0162
:10032000EA52FE4F60817181FA01EE52FE4F408128
:100330005181641B750BAB0122F444275527461BE2
:10034000570B1416150614F441E050E0B901660F7E
:10035000771FFB01EA52FE4F0190F081E02DDB0197
:10036000AE52BE4F6D917C91E617F7071CF4519584
:1003700041955109220F331FF901EE52FE4F2081A2
:100380003181420F531F51834083608171810E94EC
:10039000DC002196C230D10509F0A0CF1092CF0128
:1003A000FF91EF91DF91CF91BF91AF919F918F918D
:1003B0007F916F915F914F913F912F910F900FBE61
:1003C0000F901F9018951F920F920FB60F92112445
:1003D0002F938F939F93EF93FF9380912201882314
:1003E00009F46DC0809178002091790090E0922B03
:1003F000E091210121E02E0F20932101F0E0EE0F8A
:10040000FF1FE454FE4F91838083273009F04EC0D4
:10041000109221012091E401222309F461C08F3858
:1004200022E0920708F057C05BC08091E401882366
:10043000E9F1EAEDF1E0128611861086E0E8F0E0DD
:1004400010821092810080818F7E80832FC08E3831
:10045000924008F44AC02AC08091E401811126C06C
:10046000EAEDF1E081E08287108688EE93E09383E5
:10047000828384EF91E09583848380819181892BAD
:10048000A9F081E08187808788EE93E09783868357
:100490008AE08093810081818093890080818093AC
:1004A0008800E0E8F0E0808180618083E0912101B4
:1004B000F0E0E95EFE4F8081806480937C00909143
:1004C000220181E0892780932201EAE7F0E0808120
:1004D000806480830FC08091E5018111A6CFE6CFB3
:1004E0002091E4012111E2CFB2CF8091E501811189
:1004F000B3CFDCCFFF91EF919F918F912F910F9010
:100500000FBE0F901F90189520E030E040E054E0BF
:10051000C901880F991FFC01E855FE4F1182108216
:10052000FC01EE54FE4F518340832F5F3F4F253037
:10053000310571F70895AF92BF92DF92EF92FF926B
:100540000F931F93CF93DF93CDB7DEB764970FB6AA
:10055000F894DEBF0FBECDBFD12C7E011BE0E10EB3
:10056000F11CCE0101965C01DC01B70140E050E0D6
:10057000F8949A01FA01EE0FFF1FE454FE4F8081B8
:1005800091818115944069F4FA01EE0FFF1FE45444
:10059000FE4F78940000F8948081918181159440F9
:1005A000C1F3220F331FF901E454FE4F8081918182
:1005B00078940000DD2009F453C02D913C911197EF
:1005C000281739070CF448C0FB01208131818217BC
:1005D00093071CF4FB01918380834F5F5F4F6E5F35
:1005E0007F4F12964530510509F0C2CFD394FAE0FF
:1005F000DF12B3CF80E090E09C01F701419151916F
:100600007F01FC01EE0FFF1FE855FE4F60817181F5
:10061000641775073CF4FC01EE0FFF1FE855FE4F11
:1006200051834083F501419151915F01F901EE0F32
:10063000FF1FEE54FE4F60817181461757073CF44F
:10064000220F331FF901EE54FE4F51834083019670
:100650008530910589F608C011969C938E93B4CF8E
:1006600011969C938E93B6CF64960FB6F894DEBF26
:100670000FBECDBFDF91CF911F910F91FF90EF90F3
:10068000DF90BF90AF9008951F93CF93DF930E94A8
:1006900084021CEEC8EED3E0183248F088E290E005
:1006A0000E94CD0088ED9FEF0E94BE0008C088ED3B
:1006B0009FEF0E94CD0088E290E00E94BE000E9461
:1006C0009B0284E190E0FE016F9364E06A95F1F78C
:1006D0006F913197C9F70197B1F71F5F1C33E1F6AE
:1006E00080E090E00E94CD0080E090E00E94BE009B
:1006F000DF91CF911F9108953F924F925F926F9239
:100700007F928F929F92AF92BF92CF92DF92EF92A1
:10071000FF920F931F93CF93DF93582EC12CD12CB0
:100720007601C0E0D0E0612C712C812C912C540119
:10073000412C00E014E033243394F894BE01FE0110
:10074000EE0FFF1FE454FE4F80819181811594408C
:1007500069F4FE01EE0FFF1FE454FE4F7894000091
:10076000F8948081918181159440C1F3CB01880F69
:10077000991FFC01E454FE4F2081318178940000E0
:10078000FC01E855FE4F40815181FC01EE54FE4FC3
:1007900080819181481B590BA1F0660F771FFB01E7
:1007A000EE54FE4F80819181D901A81BB90B28EE30
:1007B00033E00E949E109A01550F440B550B0E9486
:1007C0007010213084E038070CF09801F901FF2304
:1007D00014F4E0E0F0E0552021F0C8018E1B9F0BDF
:1007E000FC01E93CF1050CF0432CE333F1055CF02E
:1007F000DF01A70196010E94A510860E971EA81E74
:10080000B91E6E0E7F1E219694E0D90EE11CF11CDC
:10081000C530D10509F091CF41100AC080911F0168
:10082000909120018115984084F080E090E10FC004
:10083000930140E050E0C501B4010E944E10C9018F
:100840003093200120931F0102C080E090E0DF91EF
:10085000CF911F910F91FF90EF90DF90CF90BF90BD
:10086000AF909F908F907F906F905F904F903F9050
:1008700008958FE380937E008FED80937A0010922D
:100880007B0080E480937C0088B18F6388B9ECEBB7
:10089000F1E080E094E09183808393838283958369
:1008A00084839783868391878087938782879587C0
:1008B00084870E94840208958F929F92BF92CF9264
:1008C000DF92EF92FF920F931F93CF93DF9300D0AD
:1008D00000D0CDB7DEB780E8898380EC8A8384E9D5
:1008E0008B8384ED8C83FE01E20FF11D8181480F23
:1008F000BAB057985A98289A24EC39E081E090E0F1
:10090000FC016F9364E06A95F1F76F913197C9F735
:100910005C9AFC016F9364E06A95F1F76F913197EF
:10092000C9F759B15C98FC016F9364E06A95F1F7DF
:100930006F913197C9F75C9AFC016F9364E06A95F7
:10094000F1F76F913197C9F75C98552324F4215042
:10095000310909F0D5CFBAB834B125B1AAB15BB12C
:1009600028985A9884B1826384B9579A842F90E06A
:10097000959587959595879595958795959587955F
:1009800095B180FBCC24C0F8D12CCC0CDD1CF82F09
:10099000F670FF0FFF0FFF0FCF2A9D7C9C2995B9A2
:1009A0009BB188708295807F9F77892B8BB95C9AE9
:1009B00081E090E06C01FC016F9364E06A95F1F7CF
:1009C0006F913197C9F75C98FC016F9364E06A9569
:1009D000F1F76F913197C9F7F5B140FBEE24E0F8DC
:1009E000F12CEE0CFF1CB42FB670FB2EFF0CFF0C8D
:1009F000FF0CEF28FD7CEF2AE5B8FBB1487042956B
:100A0000407FFF774F2B4BB95C9AF6016F9364E000
:100A10006A95F1F76F913197C9F75C986F9364E02D
:100A20006A95F1F76F910197C9F7AAB95BB934B923
:100A300025B9DB015C91552309F4A6C06F5F7F4F98
:100A400081E090E0FAB057985A98289A24EC39E05F
:100A5000FC016F9364E06A95F1F76F913197C9F7E4
:100A60005C9AFC016F9364E06A95F1F76F9131979E
:100A7000C9F749B15C98FC016F9364E06A95F1F79E
:100A80006F913197C9F75C9AFC016F9364E06A95A6
:100A9000F1F76F913197C9F75C98442324F4215002
:100AA000310909F0D5CFFAB8F4B1E5B1EAB0FBB03D
:100AB00028985A9A24B1226324B9579A252F30E0F6
:100AC000359527953595279535952795359527950E
:100AD00045B120FB882480F8912C6401CC0CDD1CEE
:100AE000322F3670330F330F330F3C294D7C342BAC
:100AF00035B93BB128702295207F3F77232B2BB946
:100B00005C9ADC016F9364E06A95F1F76F9111973D
:100B1000C9F75C98DC016F9364E06A95F1F76F9117
:100B20001197C9F735B1052F017010E06801CC0CA1
:100B3000DD1C252F2670220F220F220F2C293D7C31
:100B4000232B25B92BB158705295507F2F77522BFC
:100B50005BB95C9ADC016F9364E06A95F1F76F9181
:100B60001197C9F75C98DC016F9364E06A95F1F71F
:100B70006F911197C9F7EAB8FBB8F4B9E5B9FB0171
:100B80005191BF0151115ECF0F900F900F900F90B8
:100B9000DF91CF911F910F91FF90EF90DF90CF9059
:100BA000BF909F908F9008950F931F93CF93DF93E3
:100BB0005AB157985A98289AA4ECB9E081E090E08D
:100BC000FC016F9364E06A95F1F76F913197C9F773
:100BD0005C9AFC016F9364E06A95F1F76F9131972D
:100BE000C9F739B15C98FC016F9364E06A95F1F73D
:100BF0006F913197C9F75C9AFC016F9364E06A9535
:100C0000F1F76F913197C9F75C9833231CF4119772
:100C100009F0D6CF5AB954B135B1EAB17BB12898B1
:100C2000442311F05A9A01C05A9884B1826384B95E
:100C3000579A213009F433C0862F90E09595879517
:100C400095958795959587959595879595B1082F55
:100C5000017010E0000F111F282F2670220F220FA5
:100C6000220F022B9D7C092B05B99BB188708295C0
:100C7000807F9F77892B8BB95C9A81E090E0DC01C3
:100C80006F9364E06A95F1F76F911197C9F75C98DB
:100C90006F9364E06A95F1F76F910197C9F785B199
:100CA000962F9170C92F90E0D92FCC0FDD1F962F72
:100CB0009670990F990F990FC92B8D7CC82BC5B9C8
:100CC0008BB168706295607F8F77682B6BB95C9A87
:100CD00081E090E0DC016F9364E06A95F1F76F9139
:100CE0001197C9F75C986F9364E06A95F1F76F917B
:100CF0000197C9F7EAB97BB954B935B9DF91CF91FA
:100D00001F910F910895529A209A549A8EE190E083
:100D100028EE33E0F9016F9364E06A95F1F76F9183
:100D20003197C9F70197B1F75AB157985A98289A4D
:100D300024EC39E081E090E0FC016F9364E06A9577
:100D4000F1F76F913197C9F75C9AFC016F9364E0FA
:100D50006A95F1F76F913197C9F749B15C98FC0139
:100D60006F9364E06A95F1F76F913197C9F75C9AD8
:100D7000FC016F9364E06A95F1F76F913197C9F7C1
:100D80005C98442324F42150310909F0D5CF5AB995
:100D900034B125B15AB14BB128985A9884B18263C5
:100DA00084B9579A85B18D7C826185B95F985C9AC8
:100DB00081E090E0FC016F9364E06A95F1F76F9138
:100DC0003197C9F75C986F9364E06A95F1F76F917A
:100DD0000197C9F75AB94BB934B925B986E090E003
:100DE00028EE33E0F9016F9364E06A95F1F76F91B3
:100DF0003197C9F70197B1F75AB157985A98289A7D
:100E000024EC39E081E090E0FC016F9364E06A95A6
:100E1000F1F76F913197C9F75C9AFC016F9364E029
:100E20006A95F1F76F913197C9F749B15C98FC0168
:100E30006F9364E06A95F1F76F913197C9F75C9A07
:100E4000FC016F9364E06A95F1F76F913197C9F7F0
:100E50005C98442324F42150310909F0D5CF5AB9C4
:100E600034B125B15AB14BB128985A9884B18263F4
:100E700084B9579A85B18D7C826185B95F985C9AF7
:100E800081E090E0FC016F9364E06A95F1F76F9167
:100E90003197C9F75C986F9364E06A95F1F76F91A9
:100EA0000197C9F75AB94BB934B925B988EE93E01F
:100EB000FC016F9364E06A95F1F76F913197C9F780
:100EC0006F9364E06A95F1F76F910197C9F75AB192
:100ED00057985A98289A24EC39E081E090E0FC0178
:100EE0006F9364E06A95F1F76F913197C9F75C9A57
:100EF000FC016F9364E06A95F1F76F913197C9F740
:100F000049B15C98FC016F9364E06A95F1F76F91C9
:100F10003197C9F75C9AFC016F9364E06A95F1F729
:100F20006F913197C9F75C98442324F4215031091B
:100F300009F0D5CF5AB934B125B15AB14BB128987F
:100F40005A9884B1826384B9579A85B18D7C826145
:100F500085B95F985C9A81E090E0FC016F9364E052
:100F60006A95F1F76F913197C9F75C986F9364E0D8
:100F70006A95F1F76F910197C9F75AB94BB934B92E
:100F800025B988EE93E0FC016F9364E06A95F1F770
:100F90006F913197C9F76F9364E06A95F1F76F919C
:100FA0000197C9F75AB157985A98289A24EC39E012
:100FB00081E090E0FC016F9364E06A95F1F76F9136
:100FC0003197C9F75C9AFC016F9364E06A95F1F779
:100FD0006F913197C9F749B15C98FC016F9364E058
:100FE0006A95F1F76F913197C9F75C9AFC016F939D
:100FF00064E06A95F1F76F913197C9F75C984423E3
:1010000024F42150310909F0D5CF5AB934B125B1B2
:101010005AB14BB128985A9884B1826384B9579ACF
:1010200085B18D7C806185B95F985C9A81E090E0A4
:10103000FC016F9364E06A95F1F76F913197C9F7FE
:101040005C986F9364E06A95F1F76F910197C9F727
:101050005AB94BB934B925B988EE93E0FC016F93C6
:1010600064E06A95F1F76F913197C9F76F9364E087
:101070006A95F1F76F910197C9F75AB157985A9845
:10108000289A24EC39E081E090E0FC016F9364E061
:101090006A95F1F76F913197C9F75C9AFC016F93EC
:1010A00064E06A95F1F76F913197C9F749B15C989F
:1010B000FC016F9364E06A95F1F76F913197C9F77E
:1010C0005C9AFC016F9364E06A95F1F76F91319738
:1010D000C9F75C98442324F42150310909F0D5CF95
:1010E0005AB944B135B16AB15BB128985A9884B104
:1010F000826384B9579A85B18D7C806185B95F9888
:101100005C9A81E090E0FC016F9364E06A95F1F7EE
:101110006F913197C9F75C98FC016F9364E06A9511
:10112000F1F76F913197C9F725B12D7C25B95F9AF9
:101130005C9AFC016F9364E06A95F1F76F913197C7
:10114000C9F75C986F9364E06A95F1F76F91019726
:10115000C9F76AB95BB944B935B95AB157985A98C1
:10116000289A24EC39E081E090E0FC016F9364E080
:101170006A95F1F76F913197C9F75C9AFC016F930B
:1011800064E06A95F1F76F913197C9F749B15C98BE
:10119000FC016F9364E06A95F1F76F913197C9F79D
:1011A0005C9AFC016F9364E06A95F1F76F91319757
:1011B000C9F75C98442324F42150310909F0D5CFB4
:1011C0005AB944B135B16AB15BB128985A9884B123
:1011D000826384B9579A85B18D7C85B95F985C9A92
:1011E00081E090E0FC016F9364E06A95F1F76F9104
:1011F0003197C9F75C98FC016F9364E06A95F1F749
:101200006F913197C9F725B12D7C25B95F9A5C9A0A
:10121000FC016F9364E06A95F1F76F913197C9F71C
:101220005C986F9364E06A95F1F76F910197C9F745
:101230006AB95BB944B935B95AB157985A98289ADE
:1012400024EC39E081E090E0FC016F9364E06A9562
:10125000F1F76F913197C9F75C9AFC016F9364E0E5
:101260006A95F1F76F913197C9F749B15C98FC0124
:101270006F9364E06A95F1F76F913197C9F75C9AC3
:10128000FC016F9364E06A95F1F76F913197C9F7AC
:101290005C98442324F42150310909F0D5CF5AB980
:1012A00044B135B16AB15BB128985A9884B1826370
:1012B00084B9579A85B18D7C85B95F985C9A81E035
:1012C00090E0FC016F9364E06A95F1F76F913197BC
:1012D000C9F75C98FC016F9364E06A95F1F76F9130
:1012E0003197C9F725B12D7C226025B95F985C9AAA
:1012F000FC016F9364E06A95F1F76F913197C9F73C
:101300005C986F9364E06A95F1F76F910197C9F764
:101310006AB95BB944B935B95AB157985A98289AFD
:1013200024EC39E081E090E0FC016F9364E06A9581
:10133000F1F76F913197C9F75C9AFC016F9364E004
:101340006A95F1F76F913197C9F749B15C98FC0143
:101350006F9364E06A95F1F76F913197C9F75C9AE2
:10136000FC016F9364E06A95F1F76F913197C9F7CB
:101370005C98442324F42150310909F0D5CF5AB99F
:1013800044B135B16AB15BB128985A9884B182638F
:1013900084B9579A85B18D7C85B95F985C9A81E054
:1013A00090E0FC016F9364E06A95F1F76F913197DB
:1013B000C9F75C98FC016F9364E06A95F1F76F914F
:1013C0003197C9F725B12D7C206325B95F985C9AC8
:1013D000FC016F9364E06A95F1F76F913197C9F75B
:1013E0005C986F9364E06A95F1F76F910197C9F784
:1013F0006AB95BB944B935B95AB157985A98289A1D
:1014000024EC39E081E090E0FC016F9364E06A95A0
:10141000F1F76F913197C9F75C9AFC016F9364E023
:101420006A95F1F76F913197C9F749B15C98FC0162
:101430006F9364E06A95F1F76F913197C9F75C9A01
:10144000FC016F9364E06A95F1F76F913197C9F7EA
:101450005C98442324F42150310909F0D5CF5AB9BE
:1014600044B135B16AB15BB128985A9884B18263AE
:1014700084B9579A85B18D7C85B95F985C9A81E073
:1014800090E0FC016F9364E06A95F1F76F913197FA
:10149000C9F75C98FC016F9364E06A95F1F76F916E
:1014A0003197C9F725B12D7C206225B95F9A5C9AE6
:1014B000FC016F9364E06A95F1F76F913197C9F77A
:1014C0005C986F9364E06A95F1F76F910197C9F7A3
:1014D0006AB95BB944B935B908951F920F920FB636
:1014E0000F9211242F933F934F935F936F937F93AA
:1014F0008F939F93AF93BF93EF93FF939091C60009
:1015000080911E01E82FF0E0ED5EFE4F20819213E6
:1015100016C08F5F80931E01843099F40E9485006D
:1015200022E040E061E087EA91E00E94D405F8946F
:10153000E0E6F0E088E1808388E08083FFCF1092CE
:101540001E01E091440181E08E0F803209F480E0B9
:1015500020914301281731F0F0E0ED5DFE4F9083BC
:1015600080934401FF91EF91BF91AF919F918F9133
:101570007F916F915F914F913F912F910F900FBE8F
:101580000F901F9018951F920F920FB60F92112473
:101590008F939F93AF93BF93EF93FF939091A50188
:1015A0008091A601981789F0A5EAB1E0EC91F0E0EE
:1015B000ED5DFE4F92A18C918F5F803609F480E043
:1015C0008093A5019093C60005C0E1ECF0E0808116
:1015D0008F7D8083FF91EF91BF91AF919F918F910C
:1015E0000F900FBE0F901F90189584B18D7C84B919
:1015F00085B1826385B9089548EE53E093B198238D
:10160000E9F725E030E0FA016F9364E06A95F1F7BD
:101610006F913197C9F721503109A9F793B19823F8
:1016200069F722E330E048EE53E0FA016F9364E09B
:101630006A95F1F76F913197C9F721503109A9F7F0
:1016400048EE53E093B19823E9F325E030E0FA0146
:101650006F9364E06A95F1F76F913197C9F7215064
:101660003109A9F793B1982369F308950E945F00A7
:101670000E9469000E9439040E94830682E08093E0
:10168000C00086E08093C2001092C50085E180937F
:10169000C40088E98093C1000E94F50A0895AF92C2
:1016A000BF92CF92DF92EF92FF920F931F93CF934F
:1016B000DF93CDB7DEB7A0970FB6F894DEBF0FBEAD
:1016C000CDBF6B0180E8898380EC8A8384E98B83BA
:1016D00084ED8C83FE01E20FF11D8181480F6AB118
:1016E00057985A98289A24EC39E081E090E0FC0160
:1016F0006F9364E06A95F1F76F913197C9F75C9A3F
:10170000FC016F9364E06A95F1F76F913197C9F727
:1017100059B15C98FC016F9364E06A95F1F76F91A1
:101720003197C9F75C9AFC016F9364E06A95F1F711
:101730006F913197C9F75C98552324F421503109F2
:1017400009F0D5CF6AB934B125B16AB15BB1289837
:101750005A9884B1826384B9579A842F90E0959502
:10176000879595958795959587959595879595B145
:1017700080FBAA24A0F8B12CAA0CBB1C782F767091
:10178000770F770F770FA72A9D7C9A2995B99BB180
:1017900088708295807F9F77892B8BB95C9A81E0D6
:1017A00090E0FC016F9364E06A95F1F76F913197D7
:1017B000C9F75C98FC016F9364E06A95F1F76F914B
:1017C0003197C9F775B1A42FA170B0E0AA0FBB1F64
:1017D000E42FE670EE0FEE0FEE0FAE2B7D7CA72B05
:1017E000A5B97BB148704295407F7F77472B4BB9B5
:1017F0005C9AFC016F9364E06A95F1F76F91319701
:10180000C9F75C986F9364E06A95F1F76F9101975F
:10181000C9F76AB95BB934B925B9C114D10429F142
:1018200040E09601ADECBCEC0E948F109C01369517
:101830002795369527953695279571E0740FE1E049
:10184000F0E0EC0FFD1FE40FF11D40E34C0D822F83
:10185000880F982F990F990F980FC42EC91AC0821C
:101860006901472F232BE9F604C080E3898371E0E7
:1018700003C0772309F4A9C081E090E0FE01E70FDF
:10188000F11D50816AB157985A98289A24EC39E092
:10189000FC016F9364E06A95F1F76F913197C9F796
:1018A0005C9AFC016F9364E06A95F1F76F91319750
:1018B000C9F749B15C98FC016F9364E06A95F1F750
:1018C0006F913197C9F75C9AFC016F9364E06A9558
:1018D000F1F76F913197C9F75C98442324F42150B4
:1018E000310909F0D5CF6AB9E4B165B1BAB0FBB13D
:1018F00028985A9A24B1226324B9579A252F30E0A8
:1019000035952795359527953595279535952795BF
:1019100045B1022F017010E06801CC0CDD1C322FA4
:101920003670330F330F330F3C294D7C342B35B9D0
:101930004BB1322F38703295307F242F2F77322BD6
:101940003BB95C9ADC016F9364E06A95F1F76F91A3
:101950001197C9F75C98DC016F9364E06A95F1F721
:101960006F911197C9F735B150FBEE24E0F8F12CD7
:101970006701CC0CDD1C252F2670220F220F220FB1
:101980002C293D7C232B25B93BB1252F287022958E
:10199000207F3F77232B2BB95C9ADC016F9364E0A7
:1019A0006A95F1F76F911197C9F75C98DC016F9315
:1019B00064E06A95F1F76F911197C9F7BAB8FBB96E
:1019C000E4B965B9715009F059CFA0960FB6F894F3
:1019D000DEBF0FBECDBFDF91CF911F910F91FF9062
:1019E000EF90DF90CF90BF90AF900895CF93DF93AB
:1019F000CDB7DEB7A0970FB6F894DEBF0FBECDBF50
:101A00008091DA019091DB01892B21F1EAEDF1E07F
:101A100081E08187808782819381009739F48FEFFD
:101A20009FEF9093E1018093E00104C09093E10166
:101A30008093E0018AE080938100EAEDF1E081810A
:101A400080938900808180938800E0E8F0E08081C5
:101A50008061808384E690E028EE33E0F9016F93A3
:101A600064E06A95F1F76F913197C9F70197B1F783
:101A7000EAEDF1E011861086E0E8F0E010821092C5
:101A8000810080818F7E808320E041E061E071E011
:101A900087EA91E00E945C0421E040E067E071E0A9
:101AA00087EA91E00E945C0480E10E94FC0A22E047
:101AB00040E061E087EA91E00E94D405F8948091CB
:101AC000C6019091C7018115944051F4ECEBF1E00F
:101AD00078940000F8948285938581159440C1F331
:101AE000A091C601B091C7017894000028E833E1C5
:101AF0000E949E1061507E4F8F4F9F4F2FEF33E01B
:101B000040E050E00E944E10DA01C901880F991F91
:101B1000AA1FBB1F820F931FA41FB51F0196A11DF3
:101B2000B11DBC01CD01969587957795679520E00D
:101B300042E087EA91E00E944F0B20E046E060E13E
:101B400071E087EA91E00E945C0488EE93E028EE61
:101B500033E0F9016F9364E06A95F1F76F91319783
:101B6000C9F70197B1F70E9444030CEB11E00F2E67
:101B7000F6EA6F2EF1E07F2EF02D0F2EF5EA2F2ED4
:101B8000F1E03F2EF02D0F2EF1EC4F2E512CF02DC9
:101B9000F894F801808191818115944049F47894FA
:101BA0000000F894D8018D919C9181159440B9F36F
:101BB000F8012081318178940000A8EAB1E04D91CC
:101BC0005C91E2EBF1E080819181481B590B79F047
:101BD00080819181D901A81BB90B28EE33E00E94C6
:101BE0009E109A01550F440B550B0E947010213026
:101BF000F4E03F0714F020E034E04901332314F40B
:101C0000812C912CF894D80112968D919C91139768
:101C10008115944049F478940000F894F801828189
:101C2000938181159440B9F3D80112962D913C917E
:101C30001397789400004091AA015091AB018091D4
:101C4000B4019091B501481B590B89F08091B40102
:101C50009091B501D901A81BB90B28EE33E00E9481
:101C60009E109A01550F440B550B0E947010C9012C
:101C70002130344014F080E094E05C01992314F4A6
:101C8000A12CB12CF894F8018481958181159440A0
:101C900059F478940000F894D80114968D919C9191
:101CA000159781159440A9F3F80124813581789422
:101CB00000004091AC015091AD018091B60190912E
:101CC000B701481B590B89F08091B6019091B7017B
:101CD000D901A81BB90B28EE33E00E949E109A018F
:101CE000550F440B550B0E9470102130F4E03F0754
:101CF00014F020E034E06901332314F4C12CD12C1A
:101D0000F894D80116968D919C911797811594405F
:101D100049F478940000F894F80186819781811540
:101D20009440B9F3D80116962D913C911797789469
:101D300000004091AE015091AF018091B8019091A7
:101D4000B901481B590B89F08091B8019091B901F4
:101D5000D901A81BB90B28EE33E00E949E109A010E
:101D6000550F440B550B0E9470102130B4E03B0717
:101D700014F020E034E07901332314F4E12CF12C49
:101D8000F894F801808591858115944059F47894F0
:101D90000000F894D80118968D919C91199781159F
:101DA0009440A9F3F8012085318578940000609172
:101DB000B0017091B1014091BA015091BB01CB01CA
:101DC000841B950BAC0189F08091BA019091BB0105
:101DD000D901A81BB90B28EE33E00E949E109A018E
:101DE000550F440B550B0E947010C901213034402F
:101DF00014F080E094E0992314F480E090E0A80CC3
:101E0000B91C46018A0C9B1C8E0C9F1C880E991EC7
:101E10006C01CE0CDF1C80E00E947C037C010097EB
:101E2000B1F19C01992324F422273327281B390B75
:101E3000121613060CF000C140E0C9016AE070E020
:101E40000E943A1091E0940FE1E0F0E0EC0FFD1FEA
:101E5000E40FF11D362F330F832F880F880F830F68
:101E6000205D281B2083262F372F492F121613069B
:101E700024F3FF2084F401C090E0E1E0F0E0EC0FF7
:101E8000FD1FE90FF11D8DE280839F5F04C080E399
:101E9000898391E003C0992309F4C1C030E0D301E4
:101EA000EC9181E08E0F803609F4832FD1012C91C3
:101EB000281751F0F0E0ED5DFE4FDE01A90FB11DD6
:101EC0002C9122A3F3018083915049F7A8C0D1013E
:101ED0009C91981739F0F0E0ED5DFE4F9AE092A3E7
:101EE000F3018083D2018C9180628C93BAE0EB166F
:101EF000F10444F480E090E00E94CD0080E090E0A6
:101F00000E94BE00E0EDEE16E7E0FE064CF480E035
:101F100090E00E94CD0082E390E00E94BE0016C0D7
:101F2000F8EBEF16FBE0FF064CF482E390E00E9432
:101F3000CD0082E390E00E94BE0008C082E390E002
:101F40000E94CD0080E090E00E94BE002FE082164B
:101F500091040CF042C088E290E00E94CD0088E23B
:101F600090E00E94BE0088EC90E028EE33E0F9019A
:101F70006F9364E06A95F1F76F913197C9F7019714
:101F8000B1F788E290E00E94CD0084E190E00E94E9
:101F9000BE0088EC90E028EE33E0F9016F9364E036
:101FA0006A95F1F76F913197C9F70197B1F784E11D
:101FB00090E00E94CD0088E290E00E94BE0088EC94
:101FC00090E028EE33E0F9016F9364E06A95F1F751
:101FD0006F913197C9F70197B1F78DEDC81685E07C
:101FE000D80634F49DEDA91695E0B9060CF4D0CDD1
:101FF00082E390E00E94CD0080E090E00E94BE006D
:1020000084EF91E028EE33E0F9016F9364E06A9584
:10201000F1F76F913197C9F70197B1F7B9CDD201B7
:102020008C9180628C93D301EC9181E08E0F80368D
:1020300009F04DCF80E04BCFFF208CF71DCF0E94E1
:10204000360B78940E94F60CEAEDF1E011861386C7
:10205000108684EC99E09183808315821482138228
:102060001282E3E2F1E010A211A21092A5011092F7
:10207000A601089597FB072E16F4009407D077FD6C
:1020800009D00E94AD1007FC05D03EF490958195D3
:102090009F4F0895709561957F4F0895A1E21A2E84
:1020A000AA1BBB1BFD010DC0AA1FBB1FEE1FFF1FFC
:1020B000A217B307E407F50720F0A21BB30BE40B4C
:1020C000F50B661F771F881F991F1A9469F7609593
:1020D0007095809590959B01AC01BD01CF0108954D
:1020E000052E97FB1EF400940E94871057FD07D021
:1020F0000E944E1007FC03D04EF40C9487105095AC
:102100004095309521953F4F4F4F5F4F08959095E3
:102110008095709561957F4F8F4F9F4F0895A29F37
:10212000B001B39FC001A39F700D811D1124911DAB
:10213000B29F700D811D1124911D08950E948F1072
:10214000B7FF0895821B930B0895B7FF0C94C71037
:102150000E94C710821B930B0895AA1BBB1B51E161
:1021600007C0AA1FBB1FA617B70710F0A61BB70B07
:10217000881F991F5A95A9F780959095BC01CD01AC
:102180000895EE0FFF1F0590F491E02D09940E9431
:102190008F10A59F900DB49F900DA49F800D911D51
:0821A00011240895F894FFCF0B
:1021A80001707265737300427574746F6E5F4200DC
:0E21B8006D5600747E7A3300010203040607A0
:00000001FF
