:100000000C9435000C945D000C945D000C945D0024
:100010000C945D000C945D000C945D000C945D00EC
:100020000C945D000C945D000C945D000C945D00DC
:100030000C945D000C945D000C945D000C945D00CC
:100040000C94E6000C945D000C946D0A0C94C30AA9
:100050000C945D000C94E3010C945D000C945D0025
:100060000C945D000C945D006B0F11241FBECFEF4C
:10007000D8E0DEBFCDBF11E0A0E0B1E0E6EEFFE1E9
:1000800002C005900D92A832B107D9F721E0A8E28D
:10009000B1E001C01D92AE3FB207E1F710E0C5E349
:1000A000D0E004C02197FE010E94E00FC433D107C5
:1000B000C9F70E94660F0C94F10F0C9400008AE0BF
:1000C0008093810010928B0010928A00229A2A98C5
:1000D000089583EF8093B00084BD82E08093B100E7
:1000E00085BD1092B4001092B30018BC17BCEEE6A8
:1000F000F0E08081816080838AB188668AB9239A22
:100100005D985E985B982B98089514BC1092B0008F
:1001100015BC1092B1000895992364F418BC919510
:10012000819591098F3F910519F014F08FEF90E0C0
:1001300087BD08958F3F910519F014F08FEF90E07F
:1001400088BD17BC0895992374F41092B40091955A
:10015000819591098F3F910519F014F08FEF90E090
:100160008093B30008958F3F910519F014F08FEF3D
:1001700090E08093B4001092B30008959093F10141
:100180008093F00120910101222321F081E08093EE
:10019000E90108950E94A30008959093EF018093D0
:1001A000EE0120910101222321F081E08093E801FA
:1001B00008950E948C000895882321F0CB010E94AD
:1001C000A3000895CB010E948C0008951F920F9206
:1001D0000FB60F9211242F933F934F935F936F931A
:1001E0007F938F939F93AF93BF93CF93DF93EF93BF
:1001F000FF938091E6018F5F8093E6018A3009F0DA
:10020000CFC01092E6018091E2019091E301A091AC
:10021000E401B091E5010196A11DB11D8093E201B9
:100220009093E301A093E401B093E5018091FB0179
:10023000882309F44AC08091F8019091F9018F3F19
:100240002FEF920709F441C001979093F901809331
:10025000F801892BD1F58091FA018823F9F080917A
:10026000F6019091F701009739F48FEF9FEF90938B
:10027000F9018093F80104C09093F9018093F8018B
:10028000E0E8F0E080818F7E8083E2EFF1E0818121
:100290008093890080818093880011C0E2EFF1E0B3
:1002A0008281938197838683A0E8B0E08C918061FE
:1002B0008C93818180938900808180938800E2EF14
:1002C000F1E0908581E0892780878091E7018111A5
:1002D00067C081E08093E701C0E0D0E08C2F9E01F1
:1002E000FE01E851FE4F9081992309F452C0AE01FE
:1002F000440F551FFA01E251FE4F60817181FA01EE
:10030000E651FE4F408151816417750729F4F901C8
:10031000E851FE4F10823DC0A901440F551FFA015C
:10032000E251FE4F60817181FA01E651FE4F40813A
:100330005181641B750BAB0122F444275527461BE2
:10034000570B1416150614F441E050E0B901660F7E
:10035000771FFB01E251FE4F0190F081E02DDB01A0
:10036000A651BE4F6D917C91E617F7071CF451958D
:1003700041955109220F331FF901E651FE4F2081AB
:100380003181420F531F51834083608171810E94EC
:10039000DC002196C230D10509F0A0CF1092E70110
:1003A000FF91EF91DF91CF91BF91AF919F918F918D
:1003B0007F916F915F914F913F912F910F900FBE61
:1003C0000F901F9018951F920F920FB60F92112445
:1003D0002F938F939F93EF93FF9380912C0188230A
:1003E00009F46DC0809178002091790090E0922B03
:1003F000E0912B0121E02E0F20932B01F0E0EE0F76
:10040000FF1FEC52FE4F91838083273009F04EC0CE
:1004100010922B012091FC01222309F461C08F3836
:1004200022E0920708F057C05BC08091FC0188234E
:10043000E9F1E2EFF1E0128611861086E0E8F0E0E3
:1004400010821092810080818F7E80832FC08E3831
:10045000924008F44AC02AC08091FC01811126C054
:10046000E2EFF1E081E08287108688EE93E09383EB
:10047000828384EF91E09583848380819181892BAD
:10048000A9F081E08187808788EE93E09783868357
:100490008AE08093810081818093890080818093AC
:1004A0008800E0E8F0E0808180618083E0912B01AA
:1004B000F0E0E05EFE4F8081806480937C0090914C
:1004C0002C0181E0892780932C01EAE7F0E080810C
:1004D000806480830FC08091FD018111A6CFE6CF9B
:1004E0002091FC012111E2CFB2CF8091FD01811159
:1004F000B3CFDCCFFF91EF919F918F912F910F9010
:100500000FBE0F901F90189520E030E040E054E0BF
:10051000C901880F991FFC01E054FE4F118210821F
:10052000FC01E653FE4F518340832F5F3F4F253040
:10053000310571F70895AF92BF92DF92EF92FF926B
:100540000F931F93CF93DF93CDB7DEB764970FB6AA
:10055000F894DEBF0FBECDBFD12C7E011BE0E10EB3
:10056000F11CCE0101965C01DC01B70140E050E0D6
:10057000F8949A01FA01EE0FFF1FEC52FE4F8081B2
:1005800091818115944069F4FA01EE0FFF1FEC523E
:10059000FE4F78940000F8948081918181159440F9
:1005A000C1F3220F331FF901EC52FE4F808191817C
:1005B00078940000DD2009F453C02D913C911197EF
:1005C000281739070CF448C0FB01208131818217BC
:1005D00093071CF4FB01918380834F5F5F4F6E5F35
:1005E0007F4F12964530510509F0C2CFD394FAE0FF
:1005F000DF12B3CF80E090E09C01F701419151916F
:100600007F01FC01EE0FFF1FE054FE4F60817181FE
:10061000641775073CF4FC01EE0FFF1FE054FE4F1A
:1006200051834083F501419151915F01F901EE0F32
:10063000FF1FE653FE4F60817181461757073CF458
:10064000220F331FF901E653FE4F51834083019679
:100650008530910589F608C011969C938E93B4CF8E
:1006600011969C938E93B6CF64960FB6F894DEBF26
:100670000FBECDBFDF91CF911F910F91FF90EF90F3
:10068000DF90BF90AF9008951F93CF93DF930E94A8
:1006900084021CEEC8EED3E0183248F088E290E005
:1006A0000E94CD0088ED9FEF0E94BE0008C088ED3B
:1006B0009FEF0E94CD0088E290E00E94BE000E9461
:1006C0009B0284E190E0FE016F9364E06A95F1F78C
:1006D0006F913197C9F70197B1F71F5F1C33E1F6AE
:1006E00080E090E00E94CD0080E090E00E94BE009B
:1006F000DF91CF911F9108953F924F925F926F9239
:100700007F928F929F92AF92BF92CF92DF92EF92A1
:10071000FF920F931F93CF93DF93582EC12CD12CB0
:100720007601C0E0D0E0612C712C812C912C540119
:10073000412C00E014E033243394F894BE01FE0110
:10074000EE0FFF1FEC52FE4F808191818115944086
:1007500069F4FE01EE0FFF1FEC52FE4F789400008B
:10076000F8948081918181159440C1F3CB01880F69
:10077000991FFC01EC52FE4F2081318178940000DA
:10078000FC01E054FE4F40815181FC01E653FE4FD5
:1007900080819181481B590BA1F0660F771FFB01E7
:1007A000E653FE4F80819181D901A81BB90B28EE39
:1007B00033E00E94D10F9A01550F440B550B0E9454
:1007C000A30F213084E038070CF09801F901FF23D2
:1007D00014F4E0E0F0E0552021F0C8018E1B9F0BDF
:1007E000FC01E93CF1050CF0432CE333F1055CF02E
:1007F000DF01A70196010E94D80F860E971EA81E42
:10080000B91E6E0E7F1E219694E0D90EE11CF11CDC
:10081000C530D10509F091CF41100AC0809129015E
:1008200090912A018115984084F080E090E10FC0FA
:10083000930140E050E0C501B4010E94810FC9015D
:1008400030932A012093290102C080E090E0DF91DB
:10085000CF911F910F91FF90EF90DF90CF90BF90BD
:10086000AF909F908F907F906F905F904F903F9050
:1008700008958FE380937E008FED80937A0010922D
:100880007B0080E480937C0088B18F6388B9E4EDBD
:10089000F1E080E094E09183808393838283958369
:1008A00084839783868391878087938782879587C0
:1008B00084870E94840208958F929F92BF92CF9264
:1008C000DF92EF92FF920F931F93CF93DF9300D0AD
:1008D00000D0CDB7DEB780E8898380EC8A8384E9D5
:1008E0008B8384ED8C83FE01E20FF11D8181480F23
:1008F000BAB057985A98289A24EC39E081E090E0F1
:10090000FC016F9364E06A95F1F76F913197C9F735
:100910005C9AFC016F9364E06A95F1F76F913197EF
:10092000C9F759B15C98FC016F9364E06A95F1F7DF
:100930006F913197C9F75C9AFC016F9364E06A95F7
:10094000F1F76F913197C9F75C98552324F4215042
:10095000310909F0D5CFBAB834B125B1AAB15BB12C
:1009600028985A9884B1826384B9579A842F90E06A
:10097000959587959595879595958795959587955F
:1009800095B180FBCC24C0F8D12CCC0CDD1CF82F09
:10099000F670FF0FFF0FFF0FCF2A9D7C9C2995B9A2
:1009A0009BB188708295807F9F77892B8BB95C9AE9
:1009B00081E090E06C01FC016F9364E06A95F1F7CF
:1009C0006F913197C9F75C98FC016F9364E06A9569
:1009D000F1F76F913197C9F7F5B140FBEE24E0F8DC
:1009E000F12CEE0CFF1CB42FB670FB2EFF0CFF0C8D
:1009F000FF0CEF28FD7CEF2AE5B8FBB1487042956B
:100A0000407FFF774F2B4BB95C9AF6016F9364E000
:100A10006A95F1F76F913197C9F75C986F9364E02D
:100A20006A95F1F76F910197C9F7AAB95BB934B923
:100A300025B9DB015C91552309F4A6C06F5F7F4F98
:100A400081E090E0FAB057985A98289A24EC39E05F
:100A5000FC016F9364E06A95F1F76F913197C9F7E4
:100A60005C9AFC016F9364E06A95F1F76F9131979E
:100A7000C9F749B15C98FC016F9364E06A95F1F79E
:100A80006F913197C9F75C9AFC016F9364E06A95A6
:100A9000F1F76F913197C9F75C98442324F4215002
:100AA000310909F0D5CFFAB8F4B1E5B1EAB0FBB03D
:100AB00028985A9A24B1226324B9579A252F30E0F6
:100AC000359527953595279535952795359527950E
:100AD00045B120FB882480F8912C6401CC0CDD1CEE
:100AE000322F3670330F330F330F3C294D7C342BAC
:100AF00035B93BB128702295207F3F77232B2BB946
:100B00005C9ADC016F9364E06A95F1F76F9111973D
:100B1000C9F75C98DC016F9364E06A95F1F76F9117
:100B20001197C9F735B1052F017010E06801CC0CA1
:100B3000DD1C252F2670220F220F220F2C293D7C31
:100B4000232B25B92BB158705295507F2F77522BFC
:100B50005BB95C9ADC016F9364E06A95F1F76F9181
:100B60001197C9F75C98DC016F9364E06A95F1F71F
:100B70006F911197C9F7EAB8FBB8F4B9E5B9FB0171
:100B80005191BF0151115ECF0F900F900F900F90B8
:100B9000DF91CF911F910F91FF90EF90DF90CF9059
:100BA000BF909F908F9008950F931F93CF93DF93E3
:100BB0005AB157985A98289AA4ECB9E081E090E08D
:100BC000FC016F9364E06A95F1F76F913197C9F773
:100BD0005C9AFC016F9364E06A95F1F76F9131972D
:100BE000C9F739B15C98FC016F9364E06A95F1F73D
:100BF0006F913197C9F75C9AFC016F9364E06A9535
:100C0000F1F76F913197C9F75C9833231CF4119772
:100C100009F0D6CF5AB954B135B1EAB17BB12898B1
:100C2000442311F05A9A01C05A9884B1826384B95E
:100C3000579A213009F433C0862F90E09595879517
:100C400095958795959587959595879595B1082F55
:100C5000017010E0000F111F282F2670220F220FA5
:100C6000220F022B9D7C092B05B99BB188708295C0
:100C7000807F9F77892B8BB95C9A81E090E0DC01C3
:100C80006F9364E06A95F1F76F911197C9F75C98DB
:100C90006F9364E06A95F1F76F910197C9F785B199
:100CA000962F9170C92F90E0D92FCC0FDD1F962F72
:100CB0009670990F990F990FC92B8D7CC82BC5B9C8
:100CC0008BB168706295607F8F77682B6BB95C9A87
:100CD00081E090E0DC016F9364E06A95F1F76F9139
:100CE0001197C9F75C986F9364E06A95F1F76F917B
:100CF0000197C9F7EAB97BB954B935B9DF91CF91FA
:100D00001F910F910895529A209A549A8EE190E083
:100D100028EE33E0F9016F9364E06A95F1F76F9183
:100D20003197C9F70197B1F75AB157985A98289A4D
:100D300024EC39E081E090E0FC016F9364E06A9577
:100D4000F1F76F913197C9F75C9AFC016F9364E0FA
:100D50006A95F1F76F913197C9F749B15C98FC0139
:100D60006F9364E06A95F1F76F913197C9F75C9AD8
:100D7000FC016F9364E06A95F1F76F913197C9F7C1
:100D80005C98442324F42150310909F0D5CF5AB995
:100D900034B125B15AB14BB128985A9884B18263C5
:100DA00084B9579A85B18D7C826185B95F985C9AC8
:100DB00081E090E0FC016F9364E06A95F1F76F9138
:100DC0003197C9F75C986F9364E06A95F1F76F917A
:100DD0000197C9F75AB94BB934B925B986E090E003
:100DE00028EE33E0F9016F9364E06A95F1F76F91B3
:100DF0003197C9F70197B1F75AB157985A98289A7D
:100E000024EC39E081E090E0FC016F9364E06A95A6
:100E1000F1F76F913197C9F75C9AFC016F9364E029
:100E20006A95F1F76F913197C9F749B15C98FC0168
:100E30006F9364E06A95F1F76F913197C9F75C9A07
:100E4000FC016F9364E06A95F1F76F913197C9F7F0
:100E50005C98442324F42150310909F0D5CF5AB9C4
:100E600034B125B15AB14BB128985A9884B18263F4
:100E700084B9579A85B18D7C826185B95F985C9AF7
:100E800081E090E0FC016F9364E06A95F1F76F9167
:100E90003197C9F75C986F9364E06A95F1F76F91A9
:100EA0000197C9F75AB94BB934B925B988EE93E01F
:100EB000FC016F9364E06A95F1F76F913197C9F780
:100EC0006F9364E06A95F1F76F910197C9F75AB192
:100ED00057985A98289A24EC39E081E090E0FC0178
:100EE0006F9364E06A95F1F76F913197C9F75C9A57
:100EF000FC016F9364E06A95F1F76F913197C9F740
:100F000049B15C98FC016F9364E06A95F1F76F91C9
:100F10003197C9F75C9AFC016F9364E06A95F1F729
:100F20006F913197C9F75C98442324F4215031091B
:100F300009F0D5CF5AB934B125B15AB14BB128987F
:100F40005A9884B1826384B9579A85B18D7C826145
:100F500085B95F985C9A81E090E0FC016F9364E052
:100F60006A95F1F76F913197C9F75C986F9364E0D8
:100F70006A95F1F76F910197C9F75AB94BB934B92E
:100F800025B988EE93E0FC016F9364E06A95F1F770
:100F90006F913197C9F76F9364E06A95F1F76F919C
:100FA0000197C9F75AB157985A98289A24EC39E012
:100FB00081E090E0FC016F9364E06A95F1F76F9136
:100FC0003197C9F75C9AFC016F9364E06A95F1F779
:100FD0006F913197C9F749B15C98FC016F9364E058
:100FE0006A95F1F76F913197C9F75C9AFC016F939D
:100FF00064E06A95F1F76F913197C9F75C984423E3
:1010000024F42150310909F0D5CF5AB934B125B1B2
:101010005AB14BB128985A9884B1826384B9579ACF
:1010200085B18D7C806185B95F985C9A81E090E0A4
:10103000FC016F9364E06A95F1F76F913197C9F7FE
:101040005C986F9364E06A95F1F76F910197C9F727
:101050005AB94BB934B925B988EE93E0FC016F93C6
:1010600064E06A95F1F76F913197C9F76F9364E087
:101070006A95F1F76F910197C9F75AB157985A9845
:10108000289A24EC39E081E090E0FC016F9364E061
:101090006A95F1F76F913197C9F75C9AFC016F93EC
:1010A00064E06A95F1F76F913197C9F749B15C989F
:1010B000FC016F9364E06A95F1F76F913197C9F77E
:1010C0005C9AFC016F9364E06A95F1F76F91319738
:1010D000C9F75C98442324F42150310909F0D5CF95
:1010E0005AB944B135B16AB15BB128985A9884B104
:1010F000826384B9579A85B18D7C806185B95F9888
:101100005C9A81E090E0FC016F9364E06A95F1F7EE
:101110006F913197C9F75C98FC016F9364E06A9511
:10112000F1F76F913197C9F725B12D7C25B95F9AF9
:101130005C9AFC016F9364E06A95F1F76F913197C7
:10114000C9F75C986F9364E06A95F1F76F91019726
:10115000C9F76AB95BB944B935B95AB157985A98C1
:10116000289A24EC39E081E090E0FC016F9364E080
:101170006A95F1F76F913197C9F75C9AFC016F930B
:1011800064E06A95F1F76F913197C9F749B15C98BE
:10119000FC016F9364E06A95F1F76F913197C9F79D
:1011A0005C9AFC016F9364E06A95F1F76F91319757
:1011B000C9F75C98442324F42150310909F0D5CFB4
:1011C0005AB944B135B16AB15BB128985A9884B123
:1011D000826384B9579A85B18D7C85B95F985C9A92
:1011E00081E090E0FC016F9364E06A95F1F76F9104
:1011F0003197C9F75C98FC016F9364E06A95F1F749
:101200006F913197C9F725B12D7C25B95F9A5C9A0A
:10121000FC016F9364E06A95F1F76F913197C9F71C
:101220005C986F9364E06A95F1F76F910197C9F745
:101230006AB95BB944B935B95AB157985A98289ADE
:1012400024EC39E081E090E0FC016F9364E06A9562
:10125000F1F76F913197C9F75C9AFC016F9364E0E5
:101260006A95F1F76F913197C9F749B15C98FC0124
:101270006F9364E06A95F1F76F913197C9F75C9AC3
:10128000FC016F9364E06A95F1F76F913197C9F7AC
:101290005C98442324F42150310909F0D5CF5AB980
:1012A00044B135B16AB15BB128985A9884B1826370
:1012B00084B9579A85B18D7C85B95F985C9A81E035
:1012C00090E0FC016F9364E06A95F1F76F913197BC
:1012D000C9F75C98FC016F9364E06A95F1F76F9130
:1012E0003197C9F725B12D7C226025B95F985C9AAA
:1012F000FC016F9364E06A95F1F76F913197C9F73C
:101300005C986F9364E06A95F1F76F910197C9F764
:101310006AB95BB944B935B95AB157985A98289AFD
:1013200024EC39E081E090E0FC016F9364E06A9581
:10133000F1F76F913197C9F75C9AFC016F9364E004
:101340006A95F1F76F913197C9F749B15C98FC0143
:101350006F9364E06A95F1F76F913197C9F75C9AE2
:10136000FC016F9364E06A95F1F76F913197C9F7CB
:101370005C98442324F42150310909F0D5CF5AB99F
:1013800044B135B16AB15BB128985A9884B182638F
:1013900084B9579A85B18D7C85B95F985C9A81E054
:1013A00090E0FC016F9364E06A95F1F76F913197DB
:1013B000C9F75C98FC016F9364E06A95F1F76F914F
:1013C0003197C9F725B12D7C206325B95F985C9AC8
:1013D000FC016F9364E06A95F1F76F913197C9F75B
:1013E0005C986F9364E06A95F1F76F910197C9F784
:1013F0006AB95BB944B935B95AB157985A98289A1D
:1014000024EC39E081E090E0FC016F9364E06A95A0
:10141000F1F76F913197C9F75C9AFC016F9364E023
:101420006A95F1F76F913197C9F749B15C98FC0162
:101430006F9364E06A95F1F76F913197C9F75C9A01
:10144000FC016F9364E06A95F1F76F913197C9F7EA
:101450005C98442324F42150310909F0D5CF5AB9BE
:1014600044B135B16AB15BB128985A9884B18263AE
:1014700084B9579A85B18D7C85B95F985C9A81E073
:1014800090E0FC016F9364E06A95F1F76F913197FA
:10149000C9F75C98FC016F9364E06A95F1F76F916E
:1014A0003197C9F725B12D7C206225B95F9A5C9AE6
:1014B000FC016F9364E06A95F1F76F913197C9F77A
:1014C0005C986F9364E06A95F1F76F910197C9F7A3
:1014D0006AB95BB944B935B908951F920F920FB636
:1014E0000F9211242F933F934F935F936F937F93AA
:1014F0008F939F93AF93BF93EF93FF939091C60009
:1015000080912801E82FF0E0E45EFE4F20819213E5
:1015100016C08F5F80932801843099F40E94850063
:1015200022E040E061E08FEB91E00E94D405F89466
:10153000E0E6F0E088E1808388E08083FFCF1092CE
:101540002801E0915C0181E08E0F803209F480E097
:1015500020915B01281731F0F0E0E55CFE4F9083AD
:1015600080935C01FF91EF91BF91AF919F918F911B
:101570007F916F915F914F913F912F910F900FBE8F
:101580000F901F9018951F920F920FB60F92112473
:101590008F939F93AF93BF93EF93FF939091BD0170
:1015A0008091BE01981789F0ADEBB1E0EC91F0E0CD
:1015B000E55CFE4F92A18C918F5F803609F480E04C
:1015C0008093BD019093C60005C0E1ECF0E08081FE
:1015D0008F7D8083FF91EF91BF91AF919F918F910C
:1015E0000F900FBE0F901F90189584B18D7C84B919
:1015F00085B1826385B9089548EE53E093B198238D
:10160000E9F725E030E0FA016F9364E06A95F1F7BD
:101610006F913197C9F721503109A9F793B19823F8
:1016200069F722E330E048EE53E0FA016F9364E09B
:101630006A95F1F76F913197C9F721503109A9F7F0
:1016400048EE53E093B19823E9F325E030E0FA0146
:101650006F9364E06A95F1F76F913197C9F7215064
:101660003109A9F793B1982369F308950E945F00A7
:101670000E9469000E9439040E94830682E08093E0
:10168000C00086E08093C2001092C50085E180937F
:10169000C40088E98093C1000E94F50A0895AF92C2
:1016A000BF92CF92DF92EF92FF920F931F93CF934F
:1016B000DF93CDB7DEB7A0970FB6F894DEBF0FBEAD
:1016C000CDBF6B0180E8898380EC8A8384E98B83BA
:1016D00084ED8C83FE01E20FF11D8181480F6AB118
:1016E00057985A98289A24EC39E081E090E0FC0160
:1016F0006F9364E06A95F1F76F913197C9F75C9A3F
:10170000FC016F9364E06A95F1F76F913197C9F727
:1017100059B15C98FC016F9364E06A95F1F76F91A1
:101720003197C9F75C9AFC016F9364E06A95F1F711
:101730006F913197C9F75C98552324F421503109F2
:1017400009F0D5CF6AB934B125B16AB15BB1289837
:101750005A9884B1826384B9579A842F90E0959502
:10176000879595958795959587959595879595B145
:1017700080FBAA24A0F8B12CAA0CBB1C782F767091
:10178000770F770F770FA72A9D7C9A2995B99BB180
:1017900088708295807F9F77892B8BB95C9A81E0D6
:1017A00090E0FC016F9364E06A95F1F76F913197D7
:1017B000C9F75C98FC016F9364E06A95F1F76F914B
:1017C0003197C9F775B1A42FA170B0E0AA0FBB1F64
:1017D000E42FE670EE0FEE0FEE0FAE2B7D7CA72B05
:1017E000A5B97BB148704295407F7F77472B4BB9B5
:1017F0005C9AFC016F9364E06A95F1F76F91319701
:10180000C9F75C986F9364E06A95F1F76F9101975F
:10181000C9F76AB95BB934B925B9C114D10429F142
:1018200040E09601ADECBCEC0E94C20F9C013695E5
:101830002795369527953695279571E0740FE1E049
:10184000F0E0EC0FFD1FE40FF11D40E34C0D822F83
:10185000880F982F990F990F980FC42EC91AC0821C
:101860006901472F232BE9F604C080E3898371E0E7
:1018700003C0772309F4A9C081E090E0FE01E70FDF
:10188000F11D50816AB157985A98289A24EC39E092
:10189000FC016F9364E06A95F1F76F913197C9F796
:1018A0005C9AFC016F9364E06A95F1F76F91319750
:1018B000C9F749B15C98FC016F9364E06A95F1F750
:1018C0006F913197C9F75C9AFC016F9364E06A9558
:1018D000F1F76F913197C9F75C98442324F42150B4
:1018E000310909F0D5CF6AB9E4B165B1BAB0FBB13D
:1018F00028985A9A24B1226324B9579A252F30E0A8
:1019000035952795359527953595279535952795BF
:1019100045B1022F017010E06801CC0CDD1C322FA4
:101920003670330F330F330F3C294D7C342B35B9D0
:101930004BB1322F38703295307F242F2F77322BD6
:101940003BB95C9ADC016F9364E06A95F1F76F91A3
:101950001197C9F75C98DC016F9364E06A95F1F721
:101960006F911197C9F735B150FBEE24E0F8F12CD7
:101970006701CC0CDD1C252F2670220F220F220FB1
:101980002C293D7C232B25B93BB1252F287022958E
:10199000207F3F77232B2BB95C9ADC016F9364E0A7
:1019A0006A95F1F76F911197C9F75C98DC016F9315
:1019B00064E06A95F1F76F911197C9F7BAB8FBB96E
:1019C000E4B965B9715009F059CFA0960FB6F894F3
:1019D000DEBF0FBECDBFDF91CF911F910F91FF9062
:1019E000EF90DF90CF90BF90AF90089582E00E947B
:1019F000FC0A0E94440322E040E061E08FEB91E0AA
:101A00000E94D405F8948091DE019091DF01811548
:101A1000944051F4E4EDF1E078940000F89482856C
:101A2000938581159440C1F3A091DE01B091DF014F
:101A30007894000028E833E10E94D10F61507E4F76
:101A40008F4F9F4F2FEF33E040E050E00E94810F17
:101A5000DA01C901880F991FAA1FBB1F820F931FAC
:101A6000A41FB51F0196A11DB11DBC01CD01969506
:101A700087957795679520E042E08FEB91E00E9493
:101A80004F0B20E046E062E071E08FEB91E00E94B6
:101A90005C0488EE93E028EE33E0F9016F9364E094
:101AA0006A95F1F76F913197C9F70197B1F722E085
:101AB00040E061E08FEB91E00E94D40520E041E03E
:101AC00065E071E08FEB91E00E945C0421E040E072
:101AD0006BE071E08FEB91E00E945C0480E10E947A
:101AE000FC0A22E040E061E08FEB91E00E94D40527
:101AF0008091F2019091F301892B21F1E2EFF1E065
:101B000081E08187808782819381009739F48FEF0C
:101B10009FEF9093F9018093F80104C09093F9012D
:101B20008093F8018AE080938100E2EFF1E0818107
:101B300080938900808180938800E0E8F0E08081D4
:101B400080618083C5E1D1E063E522E041E08FEB75
:101B500091E00E94D40569916111F7CF84E690E08D
:101B600028EE33E0F9016F9364E06A95F1F76F9125
:101B70003197C9F70197B1F7E2EFF1E011861086CE
:101B8000E0E8F0E010821092810080818F7E8083F7
:101B900022E040E061E08FEB91E00E94D405C4EDCB
:101BA000D1E00F2EF0ECCF2EF1E0DF2EF02D0F2E36
:101BB000FAECEF2EF1E0FF2EF02D712C612CA12C10
:101BC0006894BB24B2F8872C962C08EE13E0F894A6
:101BD000888199818115944041F478940000F894AB
:101BE0008881998181159440C1F328813981789445
:101BF0000000F60140815181F70180819181481BED
:101C0000590B79F080819181D901A81BB90B28EE7D
:101C100033E00E94D10F9A01550F440B550B0E94DF
:101C2000A30F2130F4E03F0714F02A2D3B2D33237E
:101C300014F4282D392D30933A0120933901F8946A
:101C40008A819B818115944041F478940000F89436
:101C50008A819B8181159440C1F32A813B817894CC
:101C60000000F60142815381F70182819381481B74
:101C7000590B79F082819381D901A81BB90B28EE09
:101C800033E00E94D10F9A01550F440B550B0E946F
:101C9000A30F2130F4E03F0714F02A2D3B2D33230E
:101CA00014F4282D392D3093380120933701F894FE
:101CB0008C819D818115944041F478940000F894C2
:101CC0008C819D8181159440C1F32C813D81789454
:101CD0000000F60144815581F70184819581481BFC
:101CE000590B79F084819581D901A81BB90B28EE95
:101CF00033E00E94D10F9A01550F440B550B0E94FF
:101D0000A30F2130F4E03F0714F02A2D3B2D33239D
:101D100014F4282D392D3093360120933501F89491
:101D20008E819F818115944041F478940000F8944D
:101D30008E819F8181159440C1F32E813F817894DB
:101D40000000F60146815781F70186819781481B83
:101D5000590B79F086819781D901A81BB90B28EE20
:101D600033E00E94D10F9A01550F440B550B0E948E
:101D7000A30F2130F4E03F0714F02A2D3B2D33232D
:101D800014F4282D392D3093340120933301F89425
:101D9000888599858115944041F478940000F894E1
:101DA0008885998581159440C1F328853985789473
:101DB0000000F60140855185F70180859185481B1B
:101DC000590B79F080859185D901A81BB90B28EEB4
:101DD00033E00E94D10F9A01550F440B550B0E941E
:101DE000A30F2130F4E03F0714F02A2D3B2DC90149
:101DF000992314F4882D992D909332018093310109
:101E00004091390150913A012091370130913801C8
:101E1000420F531F2091350130913601420F531F5D
:101E20002091330130913401240F351F820F931F0D
:101E30009093300180932F011092000180E00E9466
:101E40007C0390932E0180932D0180912F0190911E
:101E500030010F970CF0BBCE8DE790E00E94CD00D3
:101E60008DE790E00E94BE0080E991E0F8016F9359
:101E700064E06A95F1F76F913197C9F70197B1F76F
:101E800080912D0190912E01811524E092074CF450
:101E9000872D962D0E94CD0082E390E00E94BE0027
:101EA00096CE883E9B404CF482E390E00E94CD00A9
:101EB00082E390E00E94BE008ACE82E390E00E941E
:101EC000CD00872D962D0E94BE0081CE0E94360B3C
:101ED00078940E94F60CE2EFF1E0118613861086EA
:101EE00084EC99E09183808315821482138212829C
:101EF000EBE3F1E010A211A21092BD011092BE011D
:101F00000895A1E21A2EAA1BBB1BFD010DC0AA1F3A
:101F1000BB1FEE1FFF1FA217B307E407F50720F052
:101F2000A21BB30BE40BF50B661F771F881F991FCD
:101F30001A9469F760957095809590959B01AC0116
:101F4000BD01CF010895052E97FB1EF400940E9459
:101F5000BA0F57FD07D00E94810F07FC03D04EF443
:101F60000C94BA0F50954095309521953F4F4F4FA7
:101F70005F4F089590958095709561957F4F8F4F35
:101F80009F4F0895A29FB001B39FC001A39F700D02
:101F9000811D1124911DB29F700D811D1124911D71
:101FA00008950E94C20FB7FF0895821B930B0895F6
:101FB000B7FF0C94E60F0E94E60F821B930B089567
:101FC000EE0FFF1F0590F491E02D09940E94C20FBF
:101FD000A59F900DB49F900DA49F800D911D11247D
:061FE0000895F894FFCF04
:101FE60001016D5600707265737300427574746FEB
:101FF6006E5F42005374617274212100747E7A33DD
:082006000001020304060700BB
:00000001FF
