:100000000C9435000C945D000C945D000C945D0024
:100010000C945D000C945D000C945D000C945D00EC
:100020000C945D000C945D000C945D000C945D00DC
:100030000C945D000C945D000C945D000C945D00CC
:100040000C94E6000C945D000C94F5080C944B099C
:100050000C945D000C94E3010C945D000C945D0025
:100060000C945D000C945D002F0F11241FBECFEF88
:10007000D8E0DEBFCDBF11E0A0E0B1E0EEEBFFE1E4
:1000800002C005900D92AE35B107D9F722E0AEE57A
:10009000B1E001C01D92A632B207E1F710E0C5E35E
:1000A000D0E004C02197FE010E94BD0FC433D107E8
:1000B000C9F70E942A0F0C94DD0F0C9400008AE00F
:1000C0008093810010928B0010928A00229A2A98C5
:1000D000089583EF8093B00084BD82E08093B100E7
:1000E00085BD1092B4001092B30018BC17BCEEE6A8
:1000F000F0E08081816080838AB188668AB9239A22
:100100005D985E985B982B98089514BC1092B0008F
:1001100015BC1092B1000895992364F418BC919510
:10012000819591098F3F910519F014F08FEF90E0C0
:1001300087BD08958F3F910519F014F08FEF90E07F
:1001400088BD17BC0895992374F41092B40091955A
:10015000819591098F3F910519F014F08FEF90E090
:100160008093B30008958F3F910519F014F08FEF3D
:1001700090E08093B4001092B30008959093190218
:100180008093180220910001222321F081E08093C6
:10019000110208950E94A30008959093170280937E
:1001A000160220910001222321F081E080931002A9
:1001B00008950E948C000895882321F0CB010E94AD
:1001C000A3000895CB010E948C0008951F920F9206
:1001D0000FB60F9211242F933F934F935F936F931A
:1001E0007F938F939F93AF93BF93CF93DF93EF93BF
:1001F000FF9380910E028F5F80930E028A3009F088
:10020000CFC010920E0280910A0290910B02A09131
:100210000C02B0910D020196A11DB11D80930A023E
:1002200090930B02A0930C02B0930D0280912302D5
:10023000882309F44AC080912002909121028F3FC7
:100240002FEF920709F441C0019790932102809308
:100250002002892BD1F5809122028823F9F0809128
:100260001E0290911F02009739F48FEF9FEF909339
:1002700021028093200204C09093210280932002E7
:10028000E0E8F0E080818F7E8083EAE1F2E0818126
:100290008093890080818093880011C0EAE1F2E0B8
:1002A0008281938197838683A0E8B0E08C918061FE
:1002B0008C93818180938900808180938800EAE11A
:1002C000F2E0908581E08927808780910F0281117B
:1002D00067C081E080930F02C0E0D0E08C2F9E01C8
:1002E000FE01E05FFD4F9081992309F452C0AE01F9
:1002F000440F551FFA01EA5EFD4F60817181FA01DA
:10030000EE5EFD4F408151816417750729F4F901B4
:10031000E05FFD4F10823DC0A901440F551FFA0157
:10032000EA5EFD4F60817181FA01EE5EFD4F408112
:100330005181641B750BAB0122F444275527461BE2
:10034000570B1416150614F441E050E0B901660F7E
:10035000771FFB01EA5EFD4F0190F081E02DDB018C
:10036000AE5EBD4F6D917C91E617F7071CF4519579
:1003700041955109220F331FF901EE5EFD4F208197
:100380003181420F531F51834083608171810E94EC
:10039000DC002196C230D10509F0A0CF10920F02E7
:1003A000FF91EF91DF91CF91BF91AF919F918F918D
:1003B0007F916F915F914F913F912F910F900FBE61
:1003C0000F901F9018951F920F920FB60F92112445
:1003D0002F938F939F93EF93FF93809162018823D4
:1003E00009F46DC0809178002091790090E0922B03
:1003F000E091610121E02E0F20936101F0E0EE0F0A
:10040000FF1FE450FE4F91838083273009F04EC0D8
:100410001092610120912402222309F461C08F38D7
:1004200022E0920708F057C05BC080912402882325
:10043000E9F1EAE1F2E0128611861086E0E8F0E0E8
:1004400010821092810080818F7E80832FC08E3831
:10045000924008F44AC02AC080912402811126C02B
:10046000EAE1F2E081E08287108688EE93E09383F0
:10047000828384EF91E09583848380819181892BAD
:10048000A9F081E08187808788EE93E09783868357
:100490008AE08093810081818093890080818093AC
:1004A0008800E0E8F0E0808180618083E091610174
:1004B000F0E0E95AFE4F8081806480937C00909147
:1004C000620181E0892780936201EAE7F0E08081A0
:1004D000806480830FC0809125028111A6CFE6CF72
:1004E000209124022111E2CFB2CF80912502811107
:1004F000B3CFDCCFFF91EF919F918F912F910F9010
:100500000FBE0F901F90189520E030E040E054E0BF
:10051000C901880F991FFC01E851FE4F118210821A
:10052000FC01EE50FE4F518340832F5F3F4F25303B
:10053000310571F70895AF92BF92DF92EF92FF926B
:100540000F931F93CF93DF93CDB7DEB764970FB6AA
:10055000F894DEBF0FBECDBFD12C7E011BE0E10EB3
:10056000F11CCE0101965C01DC01B70140E050E0D6
:10057000F8949A01FA01EE0FFF1FE450FE4F8081BC
:1005800091818115944069F4FA01EE0FFF1FE45048
:10059000FE4F78940000F8948081918181159440F9
:1005A000C1F3220F331FF901E450FE4F8081918186
:1005B00078940000DD2009F453C02D913C911197EF
:1005C000281739070CF448C0FB01208131818217BC
:1005D00093071CF4FB01918380834F5F5F4F6E5F35
:1005E0007F4F12964530510509F0C2CFD394FAE0FF
:1005F000DF12B3CF80E090E09C01F701419151916F
:100600007F01FC01EE0FFF1FE851FE4F60817181F9
:10061000641775073CF4FC01EE0FFF1FE851FE4F15
:1006200051834083F501419151915F01F901EE0F32
:10063000FF1FEE50FE4F60817181461757073CF453
:10064000220F331FF901EE50FE4F51834083019674
:100650008530910589F608C011969C938E93B4CF8E
:1006600011969C938E93B6CF64960FB6F894DEBF26
:100670000FBECDBFDF91CF911F910F91FF90EF90F3
:10068000DF90BF90AF9008951F93CF93DF930E94A8
:1006900084021CEEC8EED3E0183248F088E290E005
:1006A0000E94CD0088ED9FEF0E94BE0008C088ED3B
:1006B0009FEF0E94CD0088E290E00E94BE000E9461
:1006C0009B0284E190E0FE016F9364E06A95F1F78C
:1006D0006F913197C9F70197B1F71F5F1C33E1F6AE
:1006E00080E090E00E94CD0080E090E00E94BE009B
:1006F000DF91CF911F9108953F924F925F926F9239
:100700007F928F929F92AF92BF92CF92DF92EF92A1
:10071000FF920F931F93CF93DF93582EC12CD12CB0
:100720007601C0E0D0E0612C712C812C912C540119
:10073000412C00E014E033243394F894BE01FE0110
:10074000EE0FFF1FE450FE4F808191818115944090
:1007500069F4FE01EE0FFF1FE450FE4F7894000095
:10076000F8948081918181159440C1F3CB01880F69
:10077000991FFC01E450FE4F2081318178940000E4
:10078000FC01E851FE4F40815181FC01EE50FE4FCB
:1007900080819181481B590BA1F0660F771FFB01E7
:1007A000EE50FE4F80819181D901A81BB90B28EE34
:1007B00033E00E949A0F9A01550F440B550B0E948B
:1007C0007B0F213084E038070CF09801F901FF23FA
:1007D00014F4E0E0F0E0552021F0C8018E1B9F0BDF
:1007E000FC01E93CF1050CF0432CE333F1055CF02E
:1007F000DF01A70196010E94A10F860E971EA81E79
:10080000B91E6E0E7F1E219694E0D90EE11CF11CDC
:10081000C530D10509F091CF41100AC080915F0128
:10082000909160018115984084F080E090E10FC0C4
:10083000930140E050E0C501B4010E94590FC90185
:100840003093600120935F0102C080E090E0DF916F
:10085000CF911F910F91FF90EF90DF90CF90BF90BD
:10086000AF909F908F907F906F905F904F903F9050
:1008700008958FE380937E008FED80937A0010922D
:100880007B0080E480937C0088B18F6388B9ECEFB3
:10089000F1E080E094E09183808393838283958369
:1008A00084839783868391878087938782879587C0
:1008B00084870E94840208950F931F93CF93DF9340
:1008C0005AB157985A98289AA4ECB9E081E090E080
:1008D000FC016F9364E06A95F1F76F913197C9F766
:1008E0005C9AFC016F9364E06A95F1F76F91319720
:1008F000C9F739B15C98FC016F9364E06A95F1F730
:100900006F913197C9F75C9AFC016F9364E06A9527
:10091000F1F76F913197C9F75C9833231CF4119765
:1009200009F0D6CF5AB954B135B1EAB17BB12898A4
:10093000442311F05A9A01C05A9884B1826384B951
:10094000579A213009F433C0862F90E0959587950A
:1009500095958795959587959595879595B1082F48
:10096000017010E0000F111F282F2670220F220F98
:10097000220F022B9D7C092B05B99BB188708295B3
:10098000807F9F77892B8BB95C9A81E090E0DC01B6
:100990006F9364E06A95F1F76F911197C9F75C98CE
:1009A0006F9364E06A95F1F76F910197C9F785B18C
:1009B000962F9170C92F90E0D92FCC0FDD1F962F65
:1009C0009670990F990F990FC92B8D7CC82BC5B9BB
:1009D0008BB168706295607F8F77682B6BB95C9A7A
:1009E00081E090E0DC016F9364E06A95F1F76F912C
:1009F0001197C9F75C986F9364E06A95F1F76F916E
:100A00000197C9F7EAB97BB954B935B9DF91CF91EC
:100A10001F910F910895529A209A549A8EE190E076
:100A200028EE33E0F9016F9364E06A95F1F76F9176
:100A30003197C9F70197B1F75AB157985A98289A40
:100A400024EC39E081E090E0FC016F9364E06A956A
:100A5000F1F76F913197C9F75C9AFC016F9364E0ED
:100A60006A95F1F76F913197C9F749B15C98FC012C
:100A70006F9364E06A95F1F76F913197C9F75C9ACB
:100A8000FC016F9364E06A95F1F76F913197C9F7B4
:100A90005C98442324F42150310909F0D5CF5AB988
:100AA00034B125B15AB14BB128985A9884B18263B8
:100AB00084B9579A85B18D7C826185B95F985C9ABB
:100AC00081E090E0FC016F9364E06A95F1F76F912B
:100AD0003197C9F75C986F9364E06A95F1F76F916D
:100AE0000197C9F75AB94BB934B925B986E090E0F6
:100AF00028EE33E0F9016F9364E06A95F1F76F91A6
:100B00003197C9F70197B1F75AB157985A98289A6F
:100B100024EC39E081E090E0FC016F9364E06A9599
:100B2000F1F76F913197C9F75C9AFC016F9364E01C
:100B30006A95F1F76F913197C9F749B15C98FC015B
:100B40006F9364E06A95F1F76F913197C9F75C9AFA
:100B5000FC016F9364E06A95F1F76F913197C9F7E3
:100B60005C98442324F42150310909F0D5CF5AB9B7
:100B700034B125B15AB14BB128985A9884B18263E7
:100B800084B9579A85B18D7C826185B95F985C9AEA
:100B900081E090E0FC016F9364E06A95F1F76F915A
:100BA0003197C9F75C986F9364E06A95F1F76F919C
:100BB0000197C9F75AB94BB934B925B988EE93E012
:100BC000FC016F9364E06A95F1F76F913197C9F773
:100BD0006F9364E06A95F1F76F910197C9F75AB185
:100BE00057985A98289A24EC39E081E090E0FC016B
:100BF0006F9364E06A95F1F76F913197C9F75C9A4A
:100C0000FC016F9364E06A95F1F76F913197C9F732
:100C100049B15C98FC016F9364E06A95F1F76F91BC
:100C20003197C9F75C9AFC016F9364E06A95F1F71C
:100C30006F913197C9F75C98442324F4215031090E
:100C400009F0D5CF5AB934B125B15AB14BB1289872
:100C50005A9884B1826384B9579A85B18D7C826138
:100C600085B95F985C9A81E090E0FC016F9364E045
:100C70006A95F1F76F913197C9F75C986F9364E0CB
:100C80006A95F1F76F910197C9F75AB94BB934B921
:100C900025B988EE93E0FC016F9364E06A95F1F763
:100CA0006F913197C9F76F9364E06A95F1F76F918F
:100CB0000197C9F75AB157985A98289A24EC39E005
:100CC00081E090E0FC016F9364E06A95F1F76F9129
:100CD0003197C9F75C9AFC016F9364E06A95F1F76C
:100CE0006F913197C9F749B15C98FC016F9364E04B
:100CF0006A95F1F76F913197C9F75C9AFC016F9390
:100D000064E06A95F1F76F913197C9F75C984423D5
:100D100024F42150310909F0D5CF5AB934B125B1A5
:100D20005AB14BB128985A9884B1826384B9579AC2
:100D300085B18D7C806185B95F985C9A81E090E097
:100D4000FC016F9364E06A95F1F76F913197C9F7F1
:100D50005C986F9364E06A95F1F76F910197C9F71A
:100D60005AB94BB934B925B988EE93E0FC016F93B9
:100D700064E06A95F1F76F913197C9F76F9364E07A
:100D80006A95F1F76F910197C9F75AB157985A9838
:100D9000289A24EC39E081E090E0FC016F9364E054
:100DA0006A95F1F76F913197C9F75C9AFC016F93DF
:100DB00064E06A95F1F76F913197C9F749B15C9892
:100DC000FC016F9364E06A95F1F76F913197C9F771
:100DD0005C9AFC016F9364E06A95F1F76F9131972B
:100DE000C9F75C98442324F42150310909F0D5CF88
:100DF0005AB944B135B16AB15BB128985A9884B1F7
:100E0000826384B9579A85B18D7C806185B95F987A
:100E10005C9A81E090E0FC016F9364E06A95F1F7E1
:100E20006F913197C9F75C98FC016F9364E06A9504
:100E3000F1F76F913197C9F725B12D7C25B95F9AEC
:100E40005C9AFC016F9364E06A95F1F76F913197BA
:100E5000C9F75C986F9364E06A95F1F76F91019719
:100E6000C9F76AB95BB944B935B95AB157985A98B4
:100E7000289A24EC39E081E090E0FC016F9364E073
:100E80006A95F1F76F913197C9F75C9AFC016F93FE
:100E900064E06A95F1F76F913197C9F749B15C98B1
:100EA000FC016F9364E06A95F1F76F913197C9F790
:100EB0005C9AFC016F9364E06A95F1F76F9131974A
:100EC000C9F75C98442324F42150310909F0D5CFA7
:100ED0005AB944B135B16AB15BB128985A9884B116
:100EE000826384B9579A85B18D7C85B95F985C9A85
:100EF00081E090E0FC016F9364E06A95F1F76F91F7
:100F00003197C9F75C98FC016F9364E06A95F1F73B
:100F10006F913197C9F725B12D7C25B95F9A5C9AFD
:100F2000FC016F9364E06A95F1F76F913197C9F70F
:100F30005C986F9364E06A95F1F76F910197C9F738
:100F40006AB95BB944B935B95AB157985A98289AD1
:100F500024EC39E081E090E0FC016F9364E06A9555
:100F6000F1F76F913197C9F75C9AFC016F9364E0D8
:100F70006A95F1F76F913197C9F749B15C98FC0117
:100F80006F9364E06A95F1F76F913197C9F75C9AB6
:100F9000FC016F9364E06A95F1F76F913197C9F79F
:100FA0005C98442324F42150310909F0D5CF5AB973
:100FB00044B135B16AB15BB128985A9884B1826363
:100FC00084B9579A85B18D7C85B95F985C9A81E028
:100FD00090E0FC016F9364E06A95F1F76F913197AF
:100FE000C9F75C98FC016F9364E06A95F1F76F9123
:100FF0003197C9F725B12D7C226025B95F985C9A9D
:10100000FC016F9364E06A95F1F76F913197C9F72E
:101010005C986F9364E06A95F1F76F910197C9F757
:101020006AB95BB944B935B95AB157985A98289AF0
:1010300024EC39E081E090E0FC016F9364E06A9574
:10104000F1F76F913197C9F75C9AFC016F9364E0F7
:101050006A95F1F76F913197C9F749B15C98FC0136
:101060006F9364E06A95F1F76F913197C9F75C9AD5
:10107000FC016F9364E06A95F1F76F913197C9F7BE
:101080005C98442324F42150310909F0D5CF5AB992
:1010900044B135B16AB15BB128985A9884B1826382
:1010A00084B9579A85B18D7C85B95F985C9A81E047
:1010B00090E0FC016F9364E06A95F1F76F913197CE
:1010C000C9F75C98FC016F9364E06A95F1F76F9142
:1010D0003197C9F725B12D7C206325B95F985C9ABB
:1010E000FC016F9364E06A95F1F76F913197C9F74E
:1010F0005C986F9364E06A95F1F76F910197C9F777
:101100006AB95BB944B935B95AB157985A98289A0F
:1011100024EC39E081E090E0FC016F9364E06A9593
:10112000F1F76F913197C9F75C9AFC016F9364E016
:101130006A95F1F76F913197C9F749B15C98FC0155
:101140006F9364E06A95F1F76F913197C9F75C9AF4
:10115000FC016F9364E06A95F1F76F913197C9F7DD
:101160005C98442324F42150310909F0D5CF5AB9B1
:1011700044B135B16AB15BB128985A9884B18263A1
:1011800084B9579A85B18D7C85B95F985C9A81E066
:1011900090E0FC016F9364E06A95F1F76F913197ED
:1011A000C9F75C98FC016F9364E06A95F1F76F9161
:1011B0003197C9F725B12D7C206225B95F9A5C9AD9
:1011C000FC016F9364E06A95F1F76F913197C9F76D
:1011D0005C986F9364E06A95F1F76F910197C9F796
:1011E0006AB95BB944B935B908951F920F920FB629
:1011F0000F9211242F933F934F935F936F937F939D
:101200008F939F93AF93BF93EF93FF939091C600FB
:1012100080915E01E82FF0E0ED5AFE4F208192139D
:1012200016C08F5F80935E01843099F40E94850020
:1012300022E040E061E087EE91E00E945C04F894D7
:10124000E0E6F0E088E1808388E08083FFCF1092C1
:101250005E01E091840181E08E0F803209F480E02C
:1012600020918301281731F0F0E0ED59FE4F908373
:1012700080938401FF91EF91BF91AF919F918F91E6
:101280007F916F915F914F913F912F910F900FBE82
:101290000F901F9018951F920F920FB60F92112466
:1012A0008F939F93AF93BF93EF93FF939091E5013B
:1012B0008091E601981789F0A5EEB1E0EC91F0E09D
:1012C000ED59FE4F92A18C918F5F803609F480E03A
:1012D0008093E5019093C60005C0E1ECF0E08081C9
:1012E0008F7D8083FF91EF91BF91AF919F918F91FF
:1012F0000F900FBE0F901F90189584B18D7C84B90C
:1013000085B1826385B908950E945F000E946900DB
:101310000E9439040E940B0582E08093C00086E0A1
:101320008093C2001092C50085E18093C40088E9D3
:101330008093C1000E947D090895CF93DF93CDB7BC
:10134000DEB7A6970FB6F894DEBF0FBECDBF02E0A2
:1013500011E06AE522E041E087EE91E00E945C0442
:10136000D8016D918D016111F5CF0E944403A12C2C
:10137000B12C812C912C1EA21DA21CA21BA21AA270
:1013800019A206EE11E00F2EF5EEEF2EF1E0FF2E82
:10139000F02D312C0F2EF1EC4F2E512CF02D0F2E65
:1013A000F8EE6F2EF3E07F2EF02D0F2EFCEFCF2EF8
:1013B000F1E0DF2EF02D0F2EF3E72F2EF02D89A177
:1013C0009AA1EBA1FCA18E0F9F1F2DA13EA1820F20
:1013D000931F880D991DA80EB91EAAE0B1E092E6F0
:1013E000F801308181E0830F803609F4832DF70105
:1013F0002081281739F0E32FF0E0ED59FE4F92A33A
:10140000F80180839D919111EBCFD2018C91806284
:101410008C93A114B104A1F19501BB2024F42227DF
:1014200033272A193B09121613060CF00BC540E0AE
:10143000EAE0F0E0C901BF010E94450F91E0940F7E
:10144000A1E0B0E0AC0FBD1FA40FB11D362F330FCC
:10145000832F880F880F830F205D281B2C93262F46
:10146000372F492F121613062CF3BB206CF401C042
:1014700090E0FE01E90FF11D8DE281839F5F04C0C2
:1014800080E3898391E003C0992309F44FC4D80114
:10149000EC9181E08E0F803609F4832DD7012C91D9
:1014A000281751F0F0E0ED59FE4FDE01A90FB11DF4
:1014B0002C9122A3F8018083915049F737C4F80199
:1014C000308181E0830F803609F4832DF70120817C
:1014D000281739F0E32FF0E0ED59FE4F92A3F80101
:1014E00080839D919111EBCFD2018C9180628C937E
:1014F00084EF91E0F3016F9364E06A95F1F76F91E7
:101500003197C9F70197B1F780E00E947C034C0145
:10151000A1E1B1E090E7F801308181E0830F8036EE
:1015200009F4832DF7012081281739F0E32FF0E02B
:10153000ED59FE4F92A3F80180839D919111EBCF5D
:10154000D2018C9180628C9381149104A1F1940159
:10155000992024F422273327281939091216130653
:101560000CF074C440E0EAE0F0E0C901BF010E9461
:10157000450F91E0940FA1E0B0E0AC0FBD1FA40FA8
:10158000B11D362F330F832F880F880F830F205DF7
:10159000281B2C93262F372F492F121613062CF3B6
:1015A00099206CF401C090E0FE01E90FF11D8DE27D
:1015B00081839F5F04C080E3898391E003C0992306
:1015C00009F4C1C3D801EC9181E08E0F803609F493
:1015D000832DD7012C91281751F0F0E0ED59FE4FE3
:1015E000DE01A90FB11D2C9122A3F8018083915037
:1015F00049F7A9C3D801EC9181E08E0F803609F438
:10160000832DD7012C91281731F0F0E0ED59FE4FD2
:1016100092A3F8018083D5019D915D019111EACFDC
:10162000F20180818062808384EF91E0F3016F9307
:1016300064E06A95F1F76F913197C9F70197B1F7B7
:10164000F894D6018D919C918115944049F4789439
:101650000000F894F6018081918181159440B9F3DE
:10166000D6012D913C9178940000E8EEF1E04081A4
:101670005181A2EFB1E08D919C911197481B590BBC
:1016800009F467C38D919C91D901A81BB90B28EE71
:1016900033E00E949A0F9A01550F440B550B0E949C
:1016A0007B0F57C3F801308181E0830F803609F446
:1016B000832DF7012081281739F0E32FF0E0ED5951
:1016C000FE4F92A3F80180839D919111EBCFD2013F
:1016D0008C9180628C93E9A1FAA1309759F19F0116
:1016E000FF231CF4319521953109121613060CF0D5
:1016F00040C340E0EAE0F0E0C901BF010E94450FAD
:1017000091E0940FA1E0B0E0AC0FBD1FA40FB11D9C
:10171000362F330F832F880F880F830F205D281BF0
:101720002C93262F372F492F121613062CF39111C5
:1017300004C01FC380E3898391E0D801EC9181E06C
:101740008E0F803609F4832DD7012C91281751F084
:10175000F0E0ED59FE4FDE01A90FB11D2C9122A33F
:10176000F8018083915049F704C3F801308181E08A
:10177000830F803609F4832DF7012081281739F073
:10178000E32FF0E0ED59FE4F92A3F80180839D9185
:101790009111EBCFD2018C9180628C93F894F60179
:1017A000828193818115944059F478940000F894D3
:1017B000D60112968D919C91139781159440A9F3AF
:1017C000F60122813381789400004091EA01509122
:1017D000EB018091F4019091F501481B590B09F43C
:1017E000D5C28091F4019091F501D901A81BB90BE4
:1017F00028EE33E00E949A0F9A01550F440B550BC7
:101800000E947B0FC3C2F801308181E0830F8036D4
:1018100009F4832DF7012081281739F0E32FF0E038
:10182000ED59FE4F92A3F80180839D919111EBCF6A
:10183000D2018C9180628C93EBA1FCA1309759F17D
:101840009F01FF231CF431952195310912161306CF
:101850000CF0ACC240E0EAE0F0E0C901BF010E9438
:10186000450F91E0940FA1E0B0E0AC0FBD1FA40FB5
:10187000B11D362F330F832F880F880F830F205D04
:10188000281B2C93262F372F492F121613062CF3C3
:10189000911104C08BC280E3898391E0D801EC915F
:1018A00081E08E0F803609F4832DD7012C91281703
:1018B00051F0F0E0ED59FE4FDE01A90FB11D2C9162
:1018C00022A3F8018083915049F770C2F80130815A
:1018D00081E0830F803609F4832DF70120812817DA
:1018E00039F0E32FF0E0ED59FE4F92A3F801808329
:1018F0009D919111EBCFD2018C9180628C93F894E1
:10190000F601848195818115944059F47894000002
:10191000F894D60114968D919C9115978115944059
:10192000A9F3F60124813581789400004091EC01FF
:101930005091ED018091F6019091F701481B590BF0
:1019400009F43CC28091F6019091F701D901A81BDE
:10195000B90B28EE33E00E949A0F9A01550F440B01
:10196000550B0E947B0F2AC2F801308181E0830F62
:10197000803609F4832DF7012081281739F0E32FF1
:10198000F0E0ED59FE4F92A3F80180839D919111F3
:10199000EBCFD2018C9180628C93EDA1FEA13097A8
:1019A00059F19F01FF231CF431952195310912163D
:1019B00013060CF013C240E0EAE0F0E0C901BF01F9
:1019C0000E94450F91E0940FA1E0B0E0AC0FBD1F65
:1019D000A40FB11D362F330F832F880F880F830F6D
:1019E000205D281B2C93262F372F492F1216130604
:1019F0002CF3911104C0F2C180E3898391E0D801F6
:101A0000EC9181E08E0F803609F4832DD7012C9163
:101A1000281751F0F0E0ED59FE4FDE01A90FB11D7E
:101A20002C9122A3F8018083915049F7D7C1F80186
:101A3000308181E0830F803609F4832DF701208106
:101A4000281739F0E32FF0E0ED59FE4F92A3F8018B
:101A500080839D919111EBCFD2018C9180628C9308
:101A6000F894F601868197818115944059F4789411
:101A70000000F894D60116968D919C9117978115C8
:101A80009440A9F3F60126813781789400004091B3
:101A9000EE015091EF018091F8019091F901481BFE
:101AA000590B09F4A3C18091F8019091F901D90172
:101AB000A81BB90B28EE33E00E949A0F9A01550F2C
:101AC000440B550B0E947B0F91C1F801308181E0DE
:101AD000830F803609F4832DF7012081281739F010
:101AE000E32FF0E0ED59FE4F92A3F80180839D9122
:101AF0009111EBCFD2018C9180628C93811491046F
:101B000061F19401992024F42227332728193909F7
:101B1000121613060CF079C140E0EAE0F0E0C901CA
:101B2000BF010E94450F91E0940FA1E0B0E0AC0F1F
:101B3000BD1FA40FB11D362F330F832F880F880FC1
:101B4000830F205D281B2C93262F372F492F121629
:101B500013062CF3911104C058C180E3898391E0EE
:101B6000D801EC9181E08E0F803609F4832DD701E6
:101B70002C91281751F0F0E0ED59FE4FDE01A90F2E
:101B8000B11D2C9122A3F8018083915049F73DC1EA
:101B9000D801EC9181E08E0F803609F4832DD701B6
:101BA0002C91281731F0F0E0ED59FE4F92A3F80187
:101BB0008083D5019D915D019111EACFF201808171
:101BC00080628083F894D60118968D919C91199724
:101BD0008115944049F478940000F894F6018085CA
:101BE000918581159440B9F3D60118962D913C91B9
:101BF0001997789400004091F0015091F101809183
:101C0000FA019091FB01481B590B09F404C1809122
:101C1000FA019091FB01D901A81BB90B28EE33E022
:101C20000E949A0F9A01550F440B550B0E947B0F8F
:101C3000F2C0F801308181E0830F803609F4832DF2
:101C4000F7012081281739F0E32FF0E0ED59FE4F1E
:101C500092A3F80180839D919111EBCFD2018C91D9
:101C600080628C93A114B10461F19501BB2024F42E
:101C7000222733272A193B09121613060CF0DAC063
:101C800040E0EAE0F0E0C901BF010E94450F91E0A9
:101C9000940FA1E0B0E0AC0FBD1FA40FB11D205DFB
:101CA000362F330F832F880F880F830F281B2C9319
:101CB000262F372F492F121613062CF3911104C02B
:101CC000B9C080E3898391E0D801EC9181E08E0F67
:101CD000803609F4832DD7012C91281751F0F0E0BC
:101CE000ED59FE4FDE01A90FB11D2C9122A3F80181
:101CF0008083915049F79EC0F801308181E0830FC5
:101D0000803609F4832DF7012081281739F0E32F5D
:101D1000F0E0ED59FE4F92A3F80180839D9191115F
:101D2000EBCFD2018C9180628C9349CBF201808100
:101D3000806280830F2EF1E5AF2EF1E0BF2EF02DF3
:101D4000D5019AE0BCCBD2018C9180628C939AE051
:101D500051CC2130B4E03B0714F020E034E03AA34A
:101D600029A3332314F41AA219A2ACE1B1E0922DF5
:101D700099CCF2018081806280830F2EF4E2AF2E35
:101D8000F1E0BF2EF02DD50190E2EFCC2130F4E050
:101D90003F0714F020E034E03CA32BA3332314F4DA
:101DA0001CA21BA2ABE2B1E0922D2DCDD2018C91F1
:101DB00080628C93A4E2B1E090E288CD2130B4E05F
:101DC0003B0714F020E034E03EA32DA3332314F4AA
:101DD0001EA21DA2A3E3B1E0922DC6CDF201808127
:101DE00080628083A4E2B1E090E221CE2130F4E071
:101DF0003F0714F020E034E04901332314F4812C30
:101E0000912CABE3B1E0922D60CED2018C91806237
:101E10008C9390E2BDCE2130B4E03B0714F020E07B
:101E200034E05901332314F4A12CB12CA3E4B1E024
:101E3000922DFFCEF201808180628083ABE4B1E01D
:101E40009CE75ACFBB200CF071CF12CB99200CF03D
:101E50007ACFA9CB0E94840978940E949D09EAE177
:101E6000F2E011861386108684EC99E091838083DA
:101E70001582148213821282E3E6F1E010A211A20D
:101E80001092E5011092E601089597FB072E16F4D3
:101E9000009407D077FD09D00E94A90F07FC05D058
:101EA0003EF4909581959F4F0895709561957F4F71
:101EB0000895A1E21A2EAA1BBB1BFD010DC0AA1F8B
:101EC000BB1FEE1FFF1FA217B307E407F50720F0A3
:101ED000A21BB30BE40BF50B661F771F881F991F1E
:101EE0001A9469F760957095809590959B01AC0167
:101EF000BD01CF010895052E97FB1EF400940E94AA
:101F0000920F57FD07D00E94590F07FC03D04EF4E3
:101F10000C94920F50954095309521953F4F4F4F1F
:101F20005F4F089590958095709561957F4F8F4F85
:101F30009F4F08950E94C30FB7FF0895821B930B14
:101F40000895B7FF0C94D20F0E94D20F821B930BFF
:101F50000895AA1BBB1B51E107C0AA1FBB1FA617F0
:101F6000B70710F0A61BB70B881F991F5A95A9F742
:101F700080959095BC01CD010895EE0FFF1F05904F
:101F8000F491E02D0994A29FB001B39FC001A39FDB
:101F9000700D811D1124911DB29F700D811D1124A2
:101FA000911D08950E94C30FA59F900DB49F900DA1
:0E1FB000A49F800D911D11240895F894FFCF79
:101FBE00015A61706E75746F0062696C613A20002F
:101FCE00706F736974696F6E3A200073656E7A3044
:101FDE003A2000202020207C7C0073656E7A313AF6
:101FEE00200073656E7A323A200073656E7A333A4A
:101FFE00200073656E7A343A20007C7C20202020ED
:0E200E000A0A00747E7A3300010203040607FA
:00000001FF
