S0140000544553545F53454E5A4F52552E737265633B
S11300000C9435000C945D000C945D000C945D0020
S11300100C945D000C945D000C945D000C945D00E8
S11300200C945D000C945D000C945D000C945D00D8
S11300300C945D000C945D000C945D000C945D00C8
S11300400C94E6000C945D000C9438080C948E0813
S11300500C945D000C94E3010C945D000C945D0021
S11300600C945D000C945D003D0D11241FBECFEF78
S1130070D8E0DEBFCDBF11E0A0E0B1E0E4EBFBE1EE
S113008002C005900D92A234B107D9F722E0A2E490
S1130090B1E001C01D92A830B207E1F710E0C5E35A
S11300A0D0E004C02197FE010E94C30DC433D107E0
S11300B0C9F70E94380D0C94D80D0C9400008AE006
S11300C08093810010928B0010928A00229A2A98C1
S11300D0089583EF8093B00084BD82E08093B100E3
S11300E085BD1092B4001092B30018BC17BCEEE6A4
S11300F0F0E08081816080838AB188668AB9239A1E
S11301005D985E985B982B98089514BC1092B0008B
S113011015BC1092B1000895992364F418BC91950C
S1130120819591098F3F910519F014F08FEF90E0BC
S113013087BD08958F3F910519F014F08FEF90E07B
S113014088BD17BC0895992374F41092B400919556
S1130150819591098F3F910519F014F08FEF90E08C
S11301608093B30008958F3F910519F014F08FEF39
S113017090E08093B4001092B30008959093FB0133
S11301808093FA0120910001222321F081E08093E1
S1130190F30108950E94A30008959093F9018093B8
S11301A0F80120910001222321F081E08093F201E3
S11301B008950E948C000895882321F0CB010E94A9
S11301C0A3000895CB010E948C0008951F920F9202
S11301D00FB60F9211242F933F934F935F936F9316
S11301E07F938F939F93AF93BF93CF93DF93EF93BB
S11301F0FF938091F0018F5F8093F0018A3009F0C2
S1130200CFC01092F0018091EC019091ED01A0918A
S1130210EE01B091EF010196A11DB11D8093EC0197
S11302209093ED01A093EE01B093EF01809105024C
S1130230882309F44AC080910202909103028F3FFF
S11302402FEF920709F441C0019790930302809322
S11302500202892BD1F5809104028823F9F0809160
S1130260000290910102009739F48FEF9FEF909371
S113027003028093020204C090930302809302025B
S1130280E0E8F0E080818F7E8083ECEFF1E0818113
S11302908093890080818093880011C0ECEFF1E0A5
S11302A08281938197838683A0E8B0E08C918061FA
S11302B08C93818180938900808180938800ECEF06
S11302C0F1E0908581E0892780878091F101811197
S11302D067C081E08093F101C0E0D0E08C2F9E01E3
S11302E0FE01EE50FE4F9081992309F452C0AE01F5
S11302F0440F551FFA01E850FE4F60817181FA01E5
S1130300EC50FE4F408151816417750729F4F901BF
S1130310EE50FE4F10823DC0A901440F551FFA0153
S1130320E850FE4F60817181FA01EC50FE4F40812C
S11303305181641B750BAB0122F444275527461BDE
S1130340570B1416150614F441E050E0B901660F7A
S1130350771FFB01E850FE4F0190F081E02DDB0197
S1130360AC50BE4F6D917C91E617F7071CF4519584
S113037041955109220F331FF901EC50FE4F2081A2
S11303803181420F531F51834083608171810E94E8
S1130390DC002196C230D10509F0A0CF1092F10102
S11303A0FF91EF91DF91CF91BF91AF919F918F9189
S11303B07F916F915F914F913F912F910F900FBE5D
S11303C00F901F9018951F920F920FB60F92112441
S11303D02F938F939F93EF93FF93809144018823EE
S11303E009F46DC0809178002091790090E0922BFF
S11303F0E091430121E02E0F20934301F0E0EE0F42
S1130400FF1FE252FE4F91838083273009F04EC0D4
S11304101092430120910602222309F461C08F380F
S113042022E0920708F057C05BC08091060288233F
S1130430E9F1ECEFF1E0128611861086E0E8F0E0D5
S113044010821092810080818F7E80832FC08E382D
S1130450924008F44AC02AC080910602811126C045
S1130460ECEFF1E081E08287108688EE93E09383DD
S1130470828384EF91E09583848380819181892BA9
S1130480A9F081E08187808788EE93E09783868353
S11304908AE08093810081818093890080818093A8
S11304A08800E0E8F0E0808180618083E09143018E
S11304B0F0E0E65CFE4F8081806480937C00909144
S11304C0440181E0892780934401EAE7F0E08081D8
S11304D0806480830FC0809107028111A6CFE6CF8C
S11304E0209106022111E2CFB2CF8091070281113F
S11304F0B3CFDCCFFF91EF919F918F912F910F900C
S11305000FBE0F901F90189520E030E040E054E0BB
S1130510C901880F991FFC01E653FE4F1182108216
S1130520FC01EC52FE4F518340832F5F3F4F253037
S1130530310571F70895AF92BF92DF92EF92FF9267
S11305400F931F93CF93DF93CDB7DEB764970FB6A6
S1130550F894DEBF0FBECDBFD12C7E011BE0E10EAF
S1130560F11CCE0101965C01DC01B70140E050E0D2
S1130570F8949A01FA01EE0FFF1FE252FE4F8081B8
S113058091818115944069F4FA01EE0FFF1FE25244
S1130590FE4F78940000F8948081918181159440F5
S11305A0C1F3220F331FF901E252FE4F8081918182
S11305B078940000DD2009F453C02D913C911197EB
S11305C0281739070CF448C0FB01208131818217B8
S11305D093071CF4FB01918380834F5F5F4F6E5F31
S11305E07F4F12964530510509F0C2CFD394FAE0FB
S11305F0DF12B3CF80E090E09C01F701419151916B
S11306007F01FC01EE0FFF1FE653FE4F60817181F5
S1130610641775073CF4FC01EE0FFF1FE653FE4F11
S113062051834083F501419151915F01F901EE0F2E
S1130630FF1FEC52FE4F60817181461757073CF44F
S1130640220F331FF901EC52FE4F51834083019670
S11306508530910589F608C011969C938E93B4CF8A
S113066011969C938E93B6CF64960FB6F894DEBF22
S11306700FBECDBFDF91CF911F910F91FF90EF90EF
S1130680DF90BF90AF9008951F93CF93DF930E94A4
S113069084021CEEC8EED3E0183248F088E290E001
S11306A00E94CD0088ED9FEF0E94BE0008C088ED37
S11306B09FEF0E94CD0088E290E00E94BE000E945D
S11306C09B0284E190E0FE016F9364E06A95F1F788
S11306D06F913197C9F70197B1F71F5F1C33E1F6AA
S11306E080E090E00E94CD0080E090E00E94BE0097
S11306F0DF91CF911F9108958FE380937E008FED5A
S113070080937A0010927B0080E480937C0088B10F
S11307108F6388B9EEEDF1E080E094E0918380830B
S11307209383828395838483978386839187808749
S113073093878287958784870E94840208950F9304
S11307401F93CF93DF935AB157985A98289AA4ECE1
S1130750B9E081E090E0FC016F9364E06A95F1F701
S11307606F913197C9F75C9AFC016F9364E06A95C5
S1130770F1F76F913197C9F739B15C98FC016F9328
S113078064E06A95F1F76F913197C9F75C9AFC01BF
S11307906F9364E06A95F1F76F913197C9F75C98AC
S11307A033231CF4119709F0D6CF5AB954B135B19B
S11307B0EAB17BB12898442311F05A9A01C05A989F
S11307C084B1826384B9579A213009F433C0862FE7
S11307D090E09595879595958795959587959595A9
S11307E0879595B1082F017010E0000F111F282F75
S11307F02670220F220F220F022B9D7C092B05B994
S11308009BB188708295807F9F77892B8BB95C9A86
S113081081E090E0DC016F9364E06A95F1F76F91F9
S11308201197C9F75C986F9364E06A95F1F76F913B
S11308300197C9F785B1962F9170C92F90E0D92FF0
S1130840CC0FDD1F962F9670990F990F990FC92B16
S11308508D7CC82BC5B98BB168706295607F8F772A
S1130860682B6BB95C9A81E090E0DC016F9364E0E3
S11308706A95F1F76F911197C9F75C986F9364E0EB
S11308806A95F1F76F910197C9F7EAB97BB954B941
S113089035B9DF91CF911F910F910895529A209A03
S11308A0549A8EE190E028EE33E0F9016F9364E00E
S11308B06A95F1F76F913197C9F70197B1F75AB17A
S11308C057985A98289A24EC39E081E090E0FC018A
S11308D06F9364E06A95F1F76F913197C9F75C9A69
S11308E0FC016F9364E06A95F1F76F913197C9F752
S11308F049B15C98FC016F9364E06A95F1F76F91DC
S11309003197C9F75C9AFC016F9364E06A95F1F73B
S11309106F913197C9F75C98442324F4215031092D
S113092009F0D5CF5AB934B125B15AB14BB1289891
S11309305A9884B1826384B9579A85B18D7C826157
S113094085B95F985C9A81E090E0FC016F9364E064
S11309506A95F1F76F913197C9F75C986F9364E0EA
S11309606A95F1F76F910197C9F75AB94BB934B940
S113097025B986E090E028EE33E0F9016F9364E056
S11309806A95F1F76F913197C9F70197B1F75AB1A9
S113099057985A98289A24EC39E081E090E0FC01B9
S11309A06F9364E06A95F1F76F913197C9F75C9A98
S11309B0FC016F9364E06A95F1F76F913197C9F781
S11309C049B15C98FC016F9364E06A95F1F76F910B
S11309D03197C9F75C9AFC016F9364E06A95F1F76B
S11309E06F913197C9F75C98442324F4215031095D
S11309F009F0D5CF5AB934B125B15AB14BB12898C1
S1130A005A9884B1826384B9579A85B18D7C826186
S1130A1085B95F985C9A81E090E0FC016F9364E093
S1130A206A95F1F76F913197C9F75C986F9364E019
S1130A306A95F1F76F910197C9F75AB94BB934B96F
S1130A4025B988EE93E0FC016F9364E06A95F1F7B1
S1130A506F913197C9F76F9364E06A95F1F76F91DD
S1130A600197C9F75AB157985A98289A24EC39E053
S1130A7081E090E0FC016F9364E06A95F1F76F9177
S1130A803197C9F75C9AFC016F9364E06A95F1F7BA
S1130A906F913197C9F749B15C98FC016F9364E099
S1130AA06A95F1F76F913197C9F75C9AFC016F93DE
S1130AB064E06A95F1F76F913197C9F75C98442324
S1130AC024F42150310909F0D5CF5AB934B125B1F4
S1130AD05AB14BB128985A9884B1826384B9579A11
S1130AE085B18D7C826185B95F985C9A81E090E0E4
S1130AF0FC016F9364E06A95F1F76F913197C9F740
S1130B005C986F9364E06A95F1F76F910197C9F768
S1130B105AB94BB934B925B988EE93E0FC016F9307
S1130B2064E06A95F1F76F913197C9F76F9364E0C8
S1130B306A95F1F76F910197C9F75AB157985A9886
S1130B40289A24EC39E081E090E0FC016F9364E0A2
S1130B506A95F1F76F913197C9F75C9AFC016F932D
S1130B6064E06A95F1F76F913197C9F749B15C98E0
S1130B70FC016F9364E06A95F1F76F913197C9F7BF
S1130B805C9AFC016F9364E06A95F1F76F91319779
S1130B90C9F75C98442324F42150310909F0D5CFD6
S1130BA05AB934B125B15AB14BB128985A9884B185
S1130BB0826384B9579A85B18D7C806185B95F98C9
S1130BC05C9A81E090E0FC016F9364E06A95F1F730
S1130BD06F913197C9F75C986F9364E06A95F1F768
S1130BE06F910197C9F75AB94BB934B925B988EE51
S1130BF093E0FC016F9364E06A95F1F76F9131978C
S1130C00C9F76F9364E06A95F1F76F910197C9F79B
S1130C105AB157985A98289A24EC39E081E090E028
S1130C20FC016F9364E06A95F1F76F913197C9F70E
S1130C305C9AFC016F9364E06A95F1F76F913197C8
S1130C40C9F749B15C98FC016F9364E06A95F1F7C8
S1130C506F913197C9F75C9AFC016F9364E06A95D0
S1130C60F1F76F913197C9F75C98442324F421502C
S1130C70310909F0D5CF5AB944B135B16AB15BB184
S1130C8028985A9884B1826384B9579A85B18D7C27
S1130C90806185B95F985C9A81E090E0FC016F9374
S1130CA064E06A95F1F76F913197C9F75C98FC019C
S1130CB06F9364E06A95F1F76F913197C9F725B1A5
S1130CC02D7C25B95F9A5C9AFC016F9364E06A9568
S1130CD0F1F76F913197C9F75C986F9364E06A9567
S1130CE0F1F76F910197C9F76AB95BB944B935B99E
S1130CF05AB157985A98289A24EC39E081E090E048
S1130D00FC016F9364E06A95F1F76F913197C9F72D
S1130D105C9AFC016F9364E06A95F1F76F913197E7
S1130D20C9F749B15C98FC016F9364E06A95F1F7E7
S1130D306F913197C9F75C9AFC016F9364E06A95EF
S1130D40F1F76F913197C9F75C98442324F421504B
S1130D50310909F0D5CF5AB944B135B16AB15BB1A3
S1130D6028985A9884B1826384B9579A85B18D7C46
S1130D7085B95F985C9A81E090E0FC016F9364E030
S1130D806A95F1F76F913197C9F75C98FC016F93FD
S1130D9064E06A95F1F76F913197C9F725B12D7C1D
S1130DA025B95F9A5C9AFC016F9364E06A95F1F748
S1130DB06F913197C9F75C986F9364E06A95F1F786
S1130DC06F910197C9F76AB95BB944B935B95AB19A
S1130DD057985A98289A24EC39E081E090E0FC0175
S1130DE06F9364E06A95F1F76F913197C9F75C9A54
S1130DF0FC016F9364E06A95F1F76F913197C9F73D
S1130E0049B15C98FC016F9364E06A95F1F76F91C6
S1130E103197C9F75C9AFC016F9364E06A95F1F726
S1130E206F913197C9F75C98442324F42150310918
S1130E3009F0D5CF5AB944B135B16AB15BB128983C
S1130E405A9884B1826384B9579A85B18D7C85B9E7
S1130E505F985C9A81E090E0FC016F9364E06A958E
S1130E60F1F76F913197C9F75C98FC016F9364E0D7
S1130E706A95F1F76F913197C9F725B12D7C2260FE
S1130E8025B95F985C9AFC016F9364E06A95F1F769
S1130E906F913197C9F75C986F9364E06A95F1F7A5
S1130EA06F910197C9F76AB95BB944B935B95AB1B9
S1130EB057985A98289A24EC39E081E090E0FC0194
S1130EC06F9364E06A95F1F76F913197C9F75C9A73
S1130ED0FC016F9364E06A95F1F76F913197C9F75C
S1130EE049B15C98FC016F9364E06A95F1F76F91E6
S1130EF03197C9F75C9AFC016F9364E06A95F1F746
S1130F006F913197C9F75C98442324F42150310937
S1130F1009F0D5CF5AB944B135B16AB15BB128985B
S1130F205A9884B1826384B9579A85B18D7C85B906
S1130F305F985C9A81E090E0FC016F9364E06A95AD
S1130F40F1F76F913197C9F75C98FC016F9364E0F6
S1130F506A95F1F76F913197C9F725B12D7C20631C
S1130F6025B95F985C9AFC016F9364E06A95F1F788
S1130F706F913197C9F75C986F9364E06A95F1F7C4
S1130F806F910197C9F76AB95BB944B935B95AB1D8
S1130F9057985A98289A24EC39E081E090E0FC01B3
S1130FA06F9364E06A95F1F76F913197C9F75C9A92
S1130FB0FC016F9364E06A95F1F76F913197C9F77B
S1130FC049B15C98FC016F9364E06A95F1F76F9105
S1130FD03197C9F75C9AFC016F9364E06A95F1F765
S1130FE06F913197C9F75C98442324F42150310957
S1130FF009F0D5CF5AB944B135B16AB15BB128987B
S11310005A9884B1826384B9579A85B18D7C85B925
S11310105F985C9A81E090E0FC016F9364E06A95CC
S1131020F1F76F913197C9F75C98FC016F9364E015
S11310306A95F1F76F913197C9F725B12D7C20623C
S113104025B95F9A5C9AFC016F9364E06A95F1F7A5
S11310506F913197C9F75C986F9364E06A95F1F7E3
S11310606F910197C9F76AB95BB944B935B9089565
S11310701F920F920FB60F9211242F933F934F9309
S11310805F936F937F938F939F93AF93BF93EF93EC
S1131090FF939091C60080914201E82FF0E0EA5C52
S11310A0FE4F2081921316C08F5F809342018430DB
S11310B099F40E94850022E040E061E089EC91E02F
S11310C00E949F03F894E0E6F0E088E1808388E0E2
S11310D08083FFCF10924201E091660181E08E0F80
S11310E0803209F480E020916501281731F0F0E0A6
S11310F0EB5BFE4F908380936601FF91EF91BF916C
S1131100AF919F918F917F916F915F914F913F919B
S11311102F910F900FBE0F901F9018951F920F9252
S11311200FB60F9211248F939F93AF93BF93EF93B6
S1131130FF939091C7018091C801981789F0A7EC9B
S1131140B1E0EC91F0E0EB5BFE4F92A18C918F5FEC
S1131150803609F480E08093C7019093C60005C0EF
S1131160E1ECF0E080818F7D8083FF91EF91BF916E
S1131170AF919F918F910F900FBE0F901F90189574
S113118084B18D7C84B985B1826385B908950E9448
S11311905F000E9469000E947C030E944E0482E06A
S11311A08093C00086E08093C2001092C50085E160
S11311B08093C40088E98093C1000E94C008089508
S11311C0CF93DF93CDB7DEB7A0970FB6F894DEBF09
S11311D00FBECDBF02E011E06AE522E041E089ECF8
S11311E091E00E949F03D8016D918D016111F5CFAB
S11311F00E9444030F2EFEEDAF2EF1E0BF2EF02D22
S11312000F2EF3E72F2EF02D0F2EF8ECEF2EF1E03A
S1131210FF2EF02D0F2EF7ECCF2EF1E0DF2EF02D68
S1131220312C0F2EF1EC6F2E712CF02D0F2EFAE0D5
S11312304F2E512CF02D08EE13E0F894F501808127
S113124091818115944049F478940000F894D50173
S11312508D919C9181159440B9F3F50120813181E0
S113126078940000AAECB1E06D917C91E4EDF1E09A
S113127040815181CB01841B950BAC0109F487C3D8
S113128080819181D901A81BB90B28EE33E00E941B
S1131290A80D9A01550F440B550B0E94890D77C375
S11312A0F701508121E0250F203609F4232DF601A2
S11312B04081421739F0E52FF0E0EB5BFE4F32A39B
S11312C0F70120833D913111EBCFD3012C912062A2
S11312D02C93009751F19C01992324F4222733275E
S11312E0281B390B121613060CF05FC340E0C9012A
S11312F0B2010E94530D91E0940FE1E0F0E0EC0F95
S1131300FD1FE40FF11D362F330F832F880F880F35
S1131310830F205D281B2083262F372F492F121679
S113132013062CF3911104C040C3B0E3B98391E0D8
S1131330D701EC9181E08E0F803609F4832DD6011C
S11313402C91281751F0F0E0EB5BFE4FDE01A90F62
S1131350B11D2C9122A3F7018083915049F725C335
S1131360F701308181E0830F803609F4832DF60183
S11313702081281739F0E32FF0E0EB5BFE4F92A3B6
S1131380F70180839D919111EBCFD3018C91806201
S11313908C9388EE93E0F8016F9364E06A95F1F71B
S11313A06F913197C9F70197B1F7F894F5018281EC
S11313B093818115944059F478940000F894D501F0
S11313C012968D919C91139781159440A9F3F50180
S11313D02281338178940000E091CC01F091CD0119
S11313E08091D6019091D701E81BF90B09F4EAC268
S11313F08091D6019091D701D901A81BB90B28EE91
S113140033E00E94A80D9F01FF0F440B550B0E946F
S1131410890DD8C2D7013C9181E0830F803609F44D
S1131420832DD6012C91281741F0A32FB0E0AB5B9C
S1131430BE4F92969C93D7018C9391919111EACFD0
S1131440F3018081806280834115510551F19A0135
S1131450552324F422273327241B350B1216130695
S11314600CF0BEC240E0C901B2010E94530D91E0EC
S1131470940FE1E0F0E0EC0FFD1FE40FF11D362FB7
S1131480330F832F880F880F830F205D281B208341
S1131490262F372F492F121613062CF3911104C04F
S11314A09FC2F0E3F98391E0D701EC9181E08E0FC4
S11314B0803609F4832DD6012C91281751F0F0E0E1
S11314C0EB5BFE4FDE01A90FB11D2C9122A3F701A6
S11314D08083915049F784C2F701308181E0830F02
S11314E0803609F4832DF6012081281739F0E32F83
S11314F0F0E0EB5BFE4F92A3F70180839D91911185
S1131500EBCFD3018C9180628C9388EE93E0F80149
S11315106F9364E06A95F1F76F913197C9F701977A
S1131520B1F7F894F501848195818115944059F4BB
S113153078940000F894D50114968D919C91159798
S113154081159440A9F3F501248135817894000034
S1131550E091CE01F091CF018091D8019091D90111
S1131560E81BF90B09F444C28091D8019091D90188
S1131570D901A81BB90B28EE33E00E94A80D9F01E6
S1131580FF0F440B550B0E94890D32C2D7013C91C9
S113159081E0830F803609F4832DD6012C9128171E
S11315A041F0A32FB0E0AB5BBE4F92969C93D70162
S11315B08C9391919111EACFF301808180628083B1
S11315C04115510551F19A01552324F4222733275B
S11315D0241B350B121613060CF018C240E0C90187
S11315E0B2010E94530D91E0940FE1E0F0E0EC0FA2
S11315F0FD1FE40FF11D362F330F832F880F880F43
S1131600830F205D281B2083262F372F492F121686
S113161013062CF3911104C0F9C1F0E3F98391E0AE
S1131620D701EC9181E08E0F803609F4832DD60129
S11316302C91281751F0F0E0EB5BFE4FDE01A90F6F
S1131640B11D2C9122A3F7018083915049F7DEC18B
S1131650F701308181E0830F803609F4832DF60190
S11316602081281739F0E32FF0E0EB5BFE4F92A3C3
S1131670F70180839D919111EBCFD3018C9180620E
S11316808C9388EE93E0F8016F9364E06A95F1F728
S11316906F913197C9F70197B1F7F894F5018681F5
S11316A097818115944059F478940000F894D501F9
S11316B016968D919C91179781159440A9F3F50185
S11316C02681378178940000E091D001F091D10116
S11316D08091DA019091DB01E81BF90B09F49EC1BA
S11316E08091DA019091DB01D901A81BB90B28EE96
S11316F033E00E94A80D9F01FF0F440B550B0E947D
S1131700890D8CC1D7013C9181E0830F803609F4A7
S1131710832DD6012C91281741F0A32FB0E0AB5BA9
S1131720BE4F92969C93D7018C9391919111EACFDD
S1131730F3018081806280834115510551F19A0142
S1131740552324F422273327241B350B12161306A2
S11317500CF072C140E0C901B2010E94530D91E046
S1131760940FE1E0F0E0EC0FFD1FE40FF11D362FC4
S1131770330F832F880F880F830F205D281B20834E
S1131780262F372F492F121613062CF3911104C05C
S113179053C1F0E3F98391E0D701EC9181E08E0F1E
S11317A0803609F4832DD6012C91281751F0F0E0EE
S11317B0EB5BFE4FDE01A90FB11D2C9122A3F701B3
S11317C08083915049F738C1F701308181E0830F5C
S11317D0803609F4832DF6012081281739F0E32F90
S11317E0F0E0EB5BFE4F92A3F70180839D91911192
S11317F0EBCFD3018C9180628C9388EE93E0F80157
S11318006F9364E06A95F1F76F913197C9F7019787
S1131810B1F7F894F501808591858115944059F4C8
S113182078940000F894D50118968D919C9119979D
S113183081159440A9F3F501208531857894000041
S1131840E091D201F091D3018091DC019091DD010E
S1131850E81BF90B09F4F8C08091DC019091DD01DB
S1131860D901A81BB90B28EE33E00E94A80D9F01F3
S1131870FF0F440B550B0E94890DE6C0D7013C9124
S113188081E0830F803609F4832DD6012C9128172B
S113189041F0A32FB0E0AB5BBE4F92969C93D7016F
S11318A08C9391919111EACFF301808180628083BE
S11318B04115510551F19A01552324F42227332768
S11318C0241B350B121613060CF0CCC040E0C901E2
S11318D0B2010E94530D91E0940FE1E0F0E0EC0FAF
S11318E0FD1FE40FF11D362F330F832F880F880F50
S11318F0830F205D281B2083262F372F492F121694
S113190013062CF3911104C0ADC0F0E3F98391E008
S1131910D701EC9181E08E0F803609F4832DD60136
S11319202C91281751F0F0E0EB5BFE4FDE01A90F7C
S1131930B11D2C9122A3F7018083915049F792C0E5
S1131940D701EC9181E08E0F803609F4832DD60106
S11319502C91281731F0F0E0EB5BFE4F92A3F701D6
S11319608083D4019D914D019111EACFF3018081CF
S11319708062808388EE93E0F8016F9364E06A9557
S1131980F1F76F913197C9F70197B1F756CCC901B7
S11319902130344014F080E094E0992314F480E082
S11319A090E0AAE0B1E0322D7BCCD3018C9180622F
S11319B08C930F2EF2E18F2EF1E09F2EF02DD401A7
S11319C09AE0CECCA9012130344014F040E054E038
S11319D0552314F440E050E0E7E1F1E0922D1ACDF4
S11319E0F301808180628083A2E1B1E09AE074CD4A
S11319F0A9012130344014F040E054E0552314F49C
S1131A0040E050E0EFE1F1E0922DC0CDD3018C91A4
S1131A1080628C93A2E1B1E09AE01ACEA901213050
S1131A20344014F040E054E0552314F440E050E016
S1131A30E7E2F1E0922D66CEF3018081806280833B
S1131A40A2E1B1E09AE0C0CEA9012130344014F003
S1131A5040E054E0552314F440E050E0EFE2F1E0BC
S1131A60922D0CCFD3018C9180628C939AE068CF35
S1131A700E94C70878940E94E008ECEFF1E0118618
S1131A801386108684EC99E09183808315821482F6
S1131A9013821282E5E4F1E010A211A21092C701B0
S1131AA01092C801089597FB072E16F4009407D0EE
S1131AB077FD09D00E94AF0D07FC05D03EF4909548
S1131AC081959F4F0895709561957F4F0895A1E288
S1131AD01A2EAA1BBB1BFD010DC0AA1FBB1FEE1FA4
S1131AE0FF1FA217B307E407F50720F0A21BB30BEF
S1131AF0E40BF50B661F771F881F991F1A9469F76B
S1131B0060957095809590959B01AC01BD01CF01C6
S1131B100895052E97FB1EF400940E94A00D57FD16
S1131B2007D00E94670D07FC03D04EF40C94A00D5F
S1131B3050954095309521953F4F4F4F5F4F0895F5
S1131B4090958095709561957F4F8F4F9F4F089525
S1131B500E94C90DB7FF0895821B930B0895AA1B19
S1131B60BB1B51E107C0AA1FBB1FA617B70710F084
S1131B70A61BB70B881F991F5A95A9F780959095B6
S1131B80BC01CD010895EE0FFF1F0590F491E02DE7
S1131B900994A29FB001B39FC001A39F700D811D42
S1131BA01124911DB29F700D811D1124911D089562
S1071BB0F894FFCFD3
S1131BB4015A61706E75746F0073656E7A303A20E1
S1131BC4000A0A0A0A0073656E7A313A20007365C2
S1131BD46E7A323A200073656E7A333A2000736564
S1131BE46E7A343A2000747E7A33000102030406C8
S1051BF40700E4
S9030000FC
