:100000000C9435000C945D000C945D000C945D0024
:100010000C945D000C945D000C945D000C945D00EC
:100020000C945D000C945D000C945D000C945D00DC
:100030000C945D000C945D000C945D000C945D00CC
:100040000C94E6000C945D000C94720A0C94C80A9F
:100050000C945D000C94E3010C945D000C945D0025
:100060000C945D000C945D00821111241FBECFEF33
:10007000D8E0DEBFCDBF11E0A0E0B1E0E4E6F4E2FD
:1000800002C005900D92A432B107D9F722E0A4E294
:10009000B1E001C01D92A130B207E1F710E0C5E365
:1000A000D0E004C02197FE010E942A12C433D10778
:1000B000C9F70E9432110C9430120C9400008AE0AF
:1000C0008093810010928B0010928A00229A2A98C5
:1000D000089583EF8093B00084BD82E08093B100E7
:1000E00085BD1092B4001092B30018BC17BCEEE6A8
:1000F000F0E08081816080838AB188668AB9239A22
:100100005D985E985B982B98089514BC1092B0008F
:1001100015BC1092B1000895992364F418BC919510
:10012000819591098F3F910519F014F08FEF90E0C0
:1001300087BD08958F3F910519F014F08FEF90E07F
:1001400088BD17BC0895992374F41092B40091955A
:10015000819591098F3F910519F014F08FEF90E090
:100160008093B30008958F3F910519F014F08FEF3D
:1001700090E08093B4001092B30008959093F4013E
:100180008093F30120910201222321F081E08093EA
:10019000EC0108950E94A30008959093F2018093CA
:1001A000F10120910201222321F081E08093EB01F3
:1001B00008950E948C000895882321F0CB010E94AD
:1001C000A3000895CB010E948C0008951F920F9206
:1001D0000FB60F9211242F933F934F935F936F931A
:1001E0007F938F939F93AF93BF93CF93DF93EF93BF
:1001F000FF938091E9018F5F8093E9018A3009F0D4
:10020000CFC01092E9018091E5019091E601A091A3
:10021000E701B091E8010196A11DB11D8093E501B0
:100220009093E601A093E701B093E8018091FE016D
:10023000882309F44AC08091FB019091FC018F3F13
:100240002FEF920709F441C001979093FC0180932E
:10025000FB01892BD1F58091FD018823F9F0809174
:10026000F9019091FA01009739F48FEF9FEF909385
:10027000FC018093FB0104C09093FC018093FB017F
:10028000E0E8F0E080818F7E8083E5EFF1E081811E
:100290008093890080818093880011C0E5EFF1E0B0
:1002A0008281938197838683A0E8B0E08C918061FE
:1002B0008C93818180938900808180938800E5EF11
:1002C000F1E0908581E0892780878091EA018111A2
:1002D00067C081E08093EA01C0E0D0E08C2F9E01EE
:1002E000FE01E551FE4F9081992309F452C0AE0101
:1002F000440F551FFA01EF50FE4F60817181FA01E2
:10030000E351FE4F408151816417750729F4F901CB
:10031000E551FE4F10823DC0A901440F551FFA015F
:10032000EF50FE4F60817181FA01E351FE4F408131
:100330005181641B750BAB0122F444275527461BE2
:10034000570B1416150614F441E050E0B901660F7E
:10035000771FFB01EF50FE4F0190F081E02DDB0194
:10036000A351BE4F6D917C91E617F7071CF4519590
:1003700041955109220F331FF901E351FE4F2081AE
:100380003181420F531F51834083608171810E94EC
:10039000DC002196C230D10509F0A0CF1092EA010D
:1003A000FF91EF91DF91CF91BF91AF919F918F918D
:1003B0007F916F915F914F913F912F910F900FBE61
:1003C0000F901F9018951F920F920FB60F92112445
:1003D0002F938F939F93EF93FF938091280188230E
:1003E00009F472C0809178002091790090E0922BFE
:1003F000E091270121E02E0F20932701F0E0EE0F7E
:10040000FF1FE952FE4F91838083263009F04DC0D3
:100410002091FF01222309F468C0813322E0920772
:1004200008F05EC062C08091FF01882309F443C0D8
:10043000E5EFF1E0128611861086E0E8F0E0108228
:100440001092810080818F7E80832FC08033924004
:1004500008F450C030C08091FF0181112CC0E5EF3D
:10046000F1E081E08287108688EE93E093838283B7
:1004700084EF91E09583848380819181892BD9F0E9
:1004800081E08187808788EE93E0978386838AE086
:10049000809381008181809389008081809388008E
:1004A000E0E8F0E0808180618083809127018730DF
:1004B00011F410922701E0912701F0E0E35EFE4F76
:1004C0008081806480937C009091280181E089275D
:1004D00080932801EAE7F0E08081806480830FC088
:1004E0008091000281119FCFE6CF2091FF01211161
:1004F000E2CFACCF809100028111ADCFDCCFFF9174
:10050000EF919F918F912F910F900FBE0F901F90A1
:10051000189520E030E040E054E0C901880F991FB1
:10052000FC01ED53FE4F11821082FC01E353FE4F9C
:10053000518340832F5F3F4F2530310571F7089578
:10054000AF92BF92DF92EF92FF920F931F93CF93E0
:10055000DF93CDB7DEB764970FB6F894DEBF0FBE5A
:10056000CDBFD12C7E011BE0E10EF11CCE01019626
:100570005C01DC01B70140E050E0F8949A01FA0117
:10058000EE0FFF1FE952FE4F80819181811594404B
:1005900069F4FA01EE0FFF1FE952FE4F7894000054
:1005A000F8948081918181159440C1F3220F331F0B
:1005B000F901E952FE4F8081918178940000DD209D
:1005C00009F453C02D913C911197281739070CF469
:1005D00048C0FB0120813181821793071CF4FB0185
:1005E000918380834F5F5F4F6E5F7F4F12964530E0
:1005F000510509F0C2CFD394FAE0DF12B3CF80E007
:1006000090E09C01F701419151917F01FC01EE0FB7
:10061000FF1FED53FE4F60817181641775073CF435
:10062000FC01EE0FFF1FED53FE4F51834083F50198
:10063000419151915F01F901EE0FFF1FE353FE4F0E
:1006400060817181461757073CF4220F331FF9016F
:10065000E353FE4F5183408301968530910589F61F
:1006600008C011969C938E93B4CF11969C938E9351
:10067000B6CF64960FB6F894DEBF0FBECDBFDF9144
:10068000CF911F910F91FF90EF90DF90BF90AF90AF
:1006900008951F93CF93DF930E9489021CEEC8EE4A
:1006A000D3E0183248F088E290E00E94CD0088ED57
:1006B0009FEF0E94BE0008C088ED9FEF0E94CD0012
:1006C00088E290E00E94BE000E94A00284E190E0D7
:1006D000FE016F9364E06A95F1F76F913197C9F766
:1006E0000197B1F71F5F1C33E1F680E090E00E94B4
:1006F000CD0080E090E00E94BE00DF91CF911F917D
:1007000008953F924F925F926F927F928F929F9245
:10071000AF92BF92CF92DF92EF92FF920F931F930F
:10072000CF93DF93582EC12CD12C7601C0E0D0E0BE
:10073000612C712C812C912C5401412C00E014E08F
:1007400033243394F894BE01FE01EE0FFF1FE952EB
:10075000FE4F808191818115944069F4FE01EE0F76
:10076000FF1FE952FE4F78940000F8948081918138
:1007700081159440C1F3CB01880F991FFC01E95208
:10078000FE4F2081318178940000FC01ED53FE4F33
:1007900040815181FC01E353FE4F80819181481BD0
:1007A000590BA1F0660F771FFB01E353FE4F8081C9
:1007B0009181D901A81BB90B28EE33E00E94FC11EE
:1007C0009A01550F440B550B0E94CE11213084E045
:1007D00038070CF09801F901FF2314F4E0E0F0E091
:1007E000552021F0C8018E1B9F0BFC01E93CF1054F
:1007F0000CF0432CE333F1055CF0DF01A701960117
:100800000E940E12860E971EA81EB91E6E0E7F1E27
:10081000219694E0D90EE11CF11CC530D10509F0F8
:1008200091CF41100AC08091250190912601811538
:10083000984084F080E090E10FC0930140E050E0E8
:10084000C501B4010E94AC11C90130932601209367
:10085000250102C080E090E0DF91CF911F910F91C0
:10086000FF90EF90DF90CF90BF90AF909F908F90D0
:100870007F906F905F904F903F9008958FE38093AB
:100880007E008FED80937A0010927B0080E480934D
:100890007C0088B18F6388B9E7EDF1E080E094E0F7
:1008A00091838083938382839583848397838683D4
:1008B0009187808793878287958784870E948902A2
:1008C00008958F929F92BF92CF92DF92EF92FF9204
:1008D0000F931F93CF93DF9300D000D0CDB7DEB737
:1008E00080E8898380EC8A8384E98B8384ED8C8320
:1008F000FE01E20FF11D8181480FBAB057985A9856
:10090000289A24EC39E081E090E0FC016F9364E0E8
:100910006A95F1F76F913197C9F75C9AFC016F9373
:1009200064E06A95F1F76F913197C9F759B15C9816
:10093000FC016F9364E06A95F1F76F913197C9F705
:100940005C9AFC016F9364E06A95F1F76F913197BF
:10095000C9F75C98552324F42150310909F0D5CF0B
:10096000BAB834B125B1AAB15BB128985A9884B10C
:10097000826384B9579A842F90E0959587959595D1
:100980008795959587959595879595B180FBCC240E
:10099000C0F8D12CCC0CDD1CF82FF670FF0FFF0F28
:1009A000FF0FCF2A9D7C9C2995B99BB188708295B9
:1009B000807F9F77892B8BB95C9A81E090E06C01F6
:1009C000FC016F9364E06A95F1F76F913197C9F775
:1009D0005C98FC016F9364E06A95F1F76F91319731
:1009E000C9F7F5B140FBEE24E0F8F12CEE0CFF1C4A
:1009F000B42FB670FB2EFF0CFF0CFF0CEF28FD7C14
:100A0000EF2AE5B8FBB148704295407FFF774F2B46
:100A10004BB95C9AF6016F9364E06A95F1F76F91B8
:100A20003197C9F75C986F9364E06A95F1F76F911D
:100A30000197C9F7AAB95BB934B925B9DB015C9153
:100A4000552309F4A6C06F5F7F4F81E090E0FAB0B4
:100A500057985A98289A24EC39E0FC016F9364E087
:100A60006A95F1F76F913197C9F75C9AFC016F9322
:100A700064E06A95F1F76F913197C9F749B15C98D5
:100A8000FC016F9364E06A95F1F76F913197C9F7B4
:100A90005C9AFC016F9364E06A95F1F76F9131976E
:100AA000C9F75C98442324F42150310909F0D5CFCB
:100AB000FAB8F4B1E5B1EAB0FBB028985A9A24B17B
:100AC000226324B9579A252F30E03595279535951F
:100AD0002795359527953595279545B120FB882491
:100AE00080F8912C6401CC0CDD1C322F3670330F52
:100AF000330F330F3C294D7C342B35B93BB1287073
:100B00002295207F3F77232B2BB95C9ADC016F93D2
:100B100064E06A95F1F76F911197C9F75C98DC0171
:100B20006F9364E06A95F1F76F911197C9F735B14A
:100B3000052F017010E06801CC0CDD1C252F2670FC
:100B4000220F220F220F2C293D7C232B25B92BB1FC
:100B500058705295507F2F77522B5BB95C9ADC010D
:100B60006F9364E06A95F1F76F911197C9F75C98FC
:100B7000DC016F9364E06A95F1F76F911197C9F703
:100B8000EAB8FBB8F4B9E5B9FB015191BF015111C5
:100B90005ECF0F900F900F900F90DF91CF911F912C
:100BA0000F91FF90EF90DF90CF90BF909F908F902C
:100BB00008950F931F93CF93DF935AB157985A9884
:100BC000289AA4ECB9E081E090E0FC016F9364E026
:100BD0006A95F1F76F913197C9F75C9AFC016F93B1
:100BE00064E06A95F1F76F913197C9F739B15C9874
:100BF000FC016F9364E06A95F1F76F913197C9F743
:100C00005C9AFC016F9364E06A95F1F76F913197FC
:100C1000C9F75C9833231CF4119709F0D6CF5AB961
:100C200054B135B1EAB17BB12898442311F05A9AF6
:100C300001C05A9884B1826384B9579A213009F46B
:100C400033C0862F90E095958795959587959595D6
:100C500087959595879595B1082F017010E0000F45
:100C6000111F282F2670220F220F220F022B9D7C8E
:100C7000092B05B99BB188708295807F9F77892B5E
:100C80008BB95C9A81E090E0DC016F9364E06A9537
:100C9000F1F76F911197C9F75C986F9364E06A95CB
:100CA000F1F76F910197C9F785B1962F9170C92F10
:100CB00090E0D92FCC0FDD1F962F9670990F990FCA
:100CC000990FC92B8D7CC82BC5B98BB16870629503
:100CD000607F8F77682B6BB95C9A81E090E0DC01D4
:100CE0006F9364E06A95F1F76F911197C9F75C987B
:100CF0006F9364E06A95F1F76F910197C9F7EAB9CC
:100D00007BB954B935B9DF91CF911F910F910895F7
:100D1000529A209A549A8EE190E028EE33E0F9013D
:100D20006F9364E06A95F1F76F913197C9F7019776
:100D3000B1F75AB157985A98289A24EC39E081E0D3
:100D400090E0FC016F9364E06A95F1F76F91319741
:100D5000C9F75C9AFC016F9364E06A95F1F76F91B3
:100D60003197C9F749B15C98FC016F9364E06A95CB
:100D7000F1F76F913197C9F75C9AFC016F9364E0CA
:100D80006A95F1F76F913197C9F75C98442324F481
:100D90002150310909F0D5CF5AB934B125B15AB132
:100DA0004BB128985A9884B1826384B9579A85B117
:100DB0008D7C826185B95F985C9A81E090E0FC014E
:100DC0006F9364E06A95F1F76F913197C9F75C987A
:100DD0006F9364E06A95F1F76F910197C9F75AB97B
:100DE0004BB934B925B986E090E028EE33E0F9013B
:100DF0006F9364E06A95F1F76F913197C9F70197A6
:100E0000B1F75AB157985A98289A24EC39E081E002
:100E100090E0FC016F9364E06A95F1F76F91319770
:100E2000C9F75C9AFC016F9364E06A95F1F76F91E2
:100E30003197C9F749B15C98FC016F9364E06A95FA
:100E4000F1F76F913197C9F75C9AFC016F9364E0F9
:100E50006A95F1F76F913197C9F75C98442324F4B0
:100E60002150310909F0D5CF5AB934B125B15AB161
:100E70004BB128985A9884B1826384B9579A85B146
:100E80008D7C826185B95F985C9A81E090E0FC017D
:100E90006F9364E06A95F1F76F913197C9F75C98A9
:100EA0006F9364E06A95F1F76F910197C9F75AB9AA
:100EB0004BB934B925B988EE93E0FC016F9364E037
:100EC0006A95F1F76F913197C9F76F9364E06A956E
:100ED000F1F76F910197C9F75AB157985A98289A24
:100EE00024EC39E081E090E0FC016F9364E06A95C6
:100EF000F1F76F913197C9F75C9AFC016F9364E049
:100F00006A95F1F76F913197C9F749B15C98FC0187
:100F10006F9364E06A95F1F76F913197C9F75C9A26
:100F2000FC016F9364E06A95F1F76F913197C9F70F
:100F30005C98442324F42150310909F0D5CF5AB9E3
:100F400034B125B15AB14BB128985A9884B1826313
:100F500084B9579A85B18D7C826185B95F985C9A16
:100F600081E090E0FC016F9364E06A95F1F76F9186
:100F70003197C9F75C986F9364E06A95F1F76F91C8
:100F80000197C9F75AB94BB934B925B988EE93E03E
:100F9000FC016F9364E06A95F1F76F913197C9F79F
:100FA0006F9364E06A95F1F76F910197C9F75AB1B1
:100FB00057985A98289A24EC39E081E090E0FC0197
:100FC0006F9364E06A95F1F76F913197C9F75C9A76
:100FD000FC016F9364E06A95F1F76F913197C9F75F
:100FE00049B15C98FC016F9364E06A95F1F76F91E9
:100FF0003197C9F75C9AFC016F9364E06A95F1F749
:101000006F913197C9F75C98442324F4215031093A
:1010100009F0D5CF5AB934B125B15AB14BB128989E
:101020005A9884B1826384B9579A85B18D7C806166
:1010300085B95F985C9A81E090E0FC016F9364E071
:101040006A95F1F76F913197C9F75C986F9364E0F7
:101050006A95F1F76F910197C9F75AB94BB934B94D
:1010600025B988EE93E0FC016F9364E06A95F1F78F
:101070006F913197C9F76F9364E06A95F1F76F91BB
:101080000197C9F75AB157985A98289A24EC39E031
:1010900081E090E0FC016F9364E06A95F1F76F9155
:1010A0003197C9F75C9AFC016F9364E06A95F1F798
:1010B0006F913197C9F749B15C98FC016F9364E077
:1010C0006A95F1F76F913197C9F75C9AFC016F93BC
:1010D00064E06A95F1F76F913197C9F75C98442302
:1010E00024F42150310909F0D5CF5AB944B135B1B2
:1010F0006AB15BB128985A9884B1826384B9579ACF
:1011000085B18D7C806185B95F985C9A81E090E0C3
:10111000FC016F9364E06A95F1F76F913197C9F71D
:101120005C98FC016F9364E06A95F1F76F913197D9
:10113000C9F725B12D7C25B95F9A5C9AFC016F93A4
:1011400064E06A95F1F76F913197C9F75C986F93F6
:1011500064E06A95F1F76F910197C9F76AB95BB9D5
:1011600044B935B95AB157985A98289A24EC39E0BD
:1011700081E090E0FC016F9364E06A95F1F76F9174
:101180003197C9F75C9AFC016F9364E06A95F1F7B7
:101190006F913197C9F749B15C98FC016F9364E096
:1011A0006A95F1F76F913197C9F75C9AFC016F93DB
:1011B00064E06A95F1F76F913197C9F75C98442321
:1011C00024F42150310909F0D5CF5AB944B135B1D1
:1011D0006AB15BB128985A9884B1826384B9579AEE
:1011E00085B18D7C85B95F985C9A81E090E0FC01C7
:1011F0006F9364E06A95F1F76F913197C9F75C9846
:10120000FC016F9364E06A95F1F76F913197C9F72C
:1012100025B12D7C25B95F9A5C9AFC016F9364E03F
:101220006A95F1F76F913197C9F75C986F9364E015
:101230006A95F1F76F910197C9F76AB95BB944B93B
:1012400035B95AB157985A98289A24EC39E081E078
:1012500090E0FC016F9364E06A95F1F76F9131972C
:10126000C9F75C9AFC016F9364E06A95F1F76F919E
:101270003197C9F749B15C98FC016F9364E06A95B6
:10128000F1F76F913197C9F75C9AFC016F9364E0B5
:101290006A95F1F76F913197C9F75C98442324F46C
:1012A0002150310909F0D5CF5AB944B135B16AB1ED
:1012B0005BB128985A9884B1826384B9579A85B1F2
:1012C0008D7C85B95F985C9A81E090E0FC016F931A
:1012D00064E06A95F1F76F913197C9F75C98FC016A
:1012E0006F9364E06A95F1F76F913197C9F725B173
:1012F0002D7C226025B95F985C9AFC016F9364E0B5
:101300006A95F1F76F913197C9F75C986F9364E034
:101310006A95F1F76F910197C9F76AB95BB944B95A
:1013200035B95AB157985A98289A24EC39E081E097
:1013300090E0FC016F9364E06A95F1F76F9131974B
:10134000C9F75C9AFC016F9364E06A95F1F76F91BD
:101350003197C9F749B15C98FC016F9364E06A95D5
:10136000F1F76F913197C9F75C9AFC016F9364E0D4
:101370006A95F1F76F913197C9F75C98442324F48B
:101380002150310909F0D5CF5AB944B135B16AB10C
:101390005BB128985A9884B1826384B9579A85B111
:1013A0008D7C85B95F985C9A81E090E0FC016F9339
:1013B00064E06A95F1F76F913197C9F75C98FC0189
:1013C0006F9364E06A95F1F76F913197C9F725B192
:1013D0002D7C206325B95F985C9AFC016F9364E0D3
:1013E0006A95F1F76F913197C9F75C986F9364E054
:1013F0006A95F1F76F910197C9F76AB95BB944B97A
:1014000035B95AB157985A98289A24EC39E081E0B6
:1014100090E0FC016F9364E06A95F1F76F9131976A
:10142000C9F75C9AFC016F9364E06A95F1F76F91DC
:101430003197C9F749B15C98FC016F9364E06A95F4
:10144000F1F76F913197C9F75C9AFC016F9364E0F3
:101450006A95F1F76F913197C9F75C98442324F4AA
:101460002150310909F0D5CF5AB944B135B16AB12B
:101470005BB128985A9884B1826384B9579A85B130
:101480008D7C85B95F985C9A81E090E0FC016F9358
:1014900064E06A95F1F76F913197C9F75C98FC01A8
:1014A0006F9364E06A95F1F76F913197C9F725B1B1
:1014B0002D7C206225B95F9A5C9AFC016F9364E0F1
:1014C0006A95F1F76F913197C9F75C986F9364E073
:1014D0006A95F1F76F910197C9F76AB95BB944B999
:1014E00035B908951F920F920FB60F9211242F93C2
:1014F0003F934F935F936F937F938F939F93AF939C
:10150000BF93EF93FF939091C60080912401E82F41
:10151000F0E0E75EFE4F2081921316C08F5F80934C
:101520002401843099F40E94850022E040E061E0CB
:1015300082EC91E00E94D905F894E0E6F0E088E1C1
:10154000808388E08083FFCF10922401E0915F01C7
:1015500081E08E0F803209F480E020915E0128172F
:1015600031F0F0E0E25CFE4F908380935F01FF91E9
:10157000EF91BF91AF919F918F917F916F915F910B
:101580004F913F912F910F900FBE0F901F90189584
:101590001F920F920FB60F9211248F939F93AF93C8
:1015A000BF93EF93FF939091C0018091C101981771
:1015B00089F0A0ECB1E0EC91F0E0E25CFE4F92A18A
:1015C0008C918F5F803609F480E08093C001909306
:1015D000C60005C0E1ECF0E080818F7D8083FF9143
:1015E000EF91BF91AF919F918F910F900FBE0F9090
:1015F0001F90189584B18D7C84B985B1826385B9BB
:10160000089548EE53E093B19823E9F725E030E0E0
:10161000FA016F9364E06A95F1F76F913197C9F71A
:1016200021503109A9F793B1982369F722E330E0FB
:1016300048EE53E0FA016F9364E06A95F1F76F9119
:101640003197C9F721503109A9F748EE53E093B11A
:101650009823E9F325E030E0FA016F9364E06A959E
:10166000F1F76F913197C9F721503109A9F793B17B
:10167000982369F308950E945F000E9469000E9408
:101680003E040E94880682E08093C00086E080933A
:10169000C2001092C50085E18093C40088E9809360
:1016A000C1000E94FA0A0895F8948091D7019091A0
:1016B000D8018115944051F4E7EDF1E078940000F1
:1016C000F8948081918181159440C1F3A091D70154
:1016D000B091D801789400002091C3013091C401E9
:1016E0008091CD019091CE01A901481B590B89F041
:1016F0008091CD019091CE01A81BB90B28EE33E06B
:101700000E94FC119A01550F440B550B0E94CE11FB
:10171000D901A13084E0B80714F0A0E0B4E0BB2305
:1017200014F4A0E0B0E0B0933901A0933801F8942C
:101730008091D9019091DA018115944051F4E7ED3F
:10174000F1E078940000F8948281938181159440AF
:10175000C1F3A091D901B091DA01789400002091F1
:10176000C5013091C6018091CF019091D001A901AE
:10177000481B590B89F08091CF019091D001A81B93
:10178000B90B28EE33E00E94FC119A01550F440B6F
:10179000550B0E94CE11D901A13084E0B80714F096
:1017A000A0E0B4E0BB2314F4A0E0B0E0B0933701B4
:1017B000A0933601F8948091DB019091DC018115B2
:1017C000944051F4E7EDF1E078940000F8948481BE
:1017D000958181159440C1F3A091DB01B091DC01AA
:1017E000789400002091C7013091C8018091D10107
:1017F0009091D201A901481B590B89F08091D10128
:101800009091D201A81BB90B28EE33E00E94FC1185
:101810009A01550F440B550B0E94CE11D901A130EE
:1018200084E0B80714F0A0E0B4E0BB2314F4A0E017
:10183000B0E0B0933501A0933401F8948091DD01BC
:101840009091DE018115944051F4E7EDF1E0789438
:101850000000F8948681978181159440C1F3A0918E
:10186000DD01B091DE01789400002091C901309132
:10187000CA018091D3019091D401A901481B590B51
:1018800089F08091D3019091D401A81BB90B28EE67
:1018900033E00E94FC119A01550F440B550B0E9436
:1018A000CE11D901A13084E0B80714F0A0E0B4E073
:1018B000BB2314F4A0E0B0E0B0933301A093320155
:1018C000F8948091DF019091E0018115944051F4EA
:1018D000E7EDF1E078940000F8948085918581151A
:1018E0009440C1F3A091DF01B091E0017894000031
:1018F0002091CB013091CC018091D5019091D601FE
:10190000A901481B590B89F08091D5019091D6010E
:10191000A81BB90B28EE33E00E94FC119A01550F69
:10192000440B550B0E94CE11D901A13084E0B807B9
:1019300014F0A0E0B4E0BB2314F4A0E0B0E0B09356
:101940003101A093300180E00E94810390932B012C
:1019500080932A012091380130913901809136011C
:1019600090913701820F931F2091340130913501FE
:10197000820F931F2091320130913301820F931F08
:101980002091300130913101820F931F0895EF9221
:10199000FF920F931F93CF93DF937C01FB01809104
:1019A0002A0190912B01805D974020912E0130916A
:1019B0002F01AC01421B530B9A01C0912C01D09115
:1019C0002D01C80FD91FD0932D01C0932C019093E6
:1019D0002F0180932E0164E170E00E9498118B0129
:1019E000CE01B7010E949811600F711FC901880FC5
:1019F000991F820F931F99230CF401969595879553
:101A0000680F791FE617F7070CF4BF01882799279D
:101A10008E1B9F0B861797070CF4CB0199235CF460
:101A20008E0F9F1F90933B0180933A01F0933D01ED
:101A3000E0933C010AC0F0933B01E0933A01E81BBC
:101A4000F90BF0933D01E0933C01DF91CF911F91A1
:101A50000F91FF90EF9008950F931F93CF93DF9313
:101A60000097D9F020912901211117C0C1E0D0E0E1
:101A70008C0105C021969091290191110EC00E9400
:101A8000540B0E94540B843F914024F081E08093DA
:101A9000290103C0C017D10769F7DF91CF911F91CA
:101AA0000F910895EF92FF920F931F93CF93DF93BF
:101AB00088ED9FEF0E94CD0088E290E00E94BE007A
:101AC00084EF91E028EE33E0F9016F9364E06A95CA
:101AD000F1F76F913197C9F70197B1F708E813E172
:101AE0000F2EF8E8EF2EF3E1FF2EF02DC8EED3E035
:101AF00082E390E00E94CD0082E390E00E94BE006D
:101B000088E893E10E942C0D86E490E00E94CD00CD
:101B10008AEB9FEF0E94BE0084EF91E0FE016F937D
:101B200064E06A95F1F76F913197C9F70197B1F7C2
:101B300086E490E00E94CD0082E390E00E94BE0027
:101B4000C8010E942C0D8AEB9FEF0E94CD0086E415
:101B500090E00E94BE0084EF91E0FE016F9364E08C
:101B60006A95F1F76F913197C9F70197B1F782E361
:101B700090E00E94CD0082E390E00E94BE0088E8E1
:101B800093E10E942C0D8AEB9FEF0E94CD0086E42A
:101B900090E00E94BE0084EF91E0FE016F9364E04C
:101BA0006A95F1F76F913197C9F70197B1F782E321
:101BB00090E00E94CD008CE390E00E94BE00C7013F
:101BC0000E942C0D86E490E00E94CD008AEB9FEFEE
:101BD0000E94BE0084EF91E0FE016F9364E06A957D
:101BE000F1F76F913197C9F70197B1F780E3E81AE0
:101BF00088EFF80A08511C4F08358BE1180709F0E7
:101C000077CFDF91CF911F910F91FF90EF900895C3
:101C1000AF92BF92CF92DF92EF92FF920F931F93FA
:101C2000CF93DF93CDB7DEB7A0970FB6F894DEBFA2
:101C30000FBECDBF6B0180E8898380EC8A8384E985
:101C40008B8384ED8C83FE01E20FF11D8181480FAF
:101C50006AB157985A98289A24EC39E081E090E0CC
:101C6000FC016F9364E06A95F1F76F913197C9F7C2
:101C70005C9AFC016F9364E06A95F1F76F9131977C
:101C8000C9F759B15C98FC016F9364E06A95F1F76C
:101C90006F913197C9F75C9AFC016F9364E06A9584
:101CA000F1F76F913197C9F75C98552324F42150CF
:101CB000310909F0D5CF6AB934B125B16AB15BB148
:101CC00028985A9884B1826384B9579A842F90E0F7
:101CD00095958795959587959595879595958795EC
:101CE00095B180FBAA24A0F8B12CAA0CBB1C782FBC
:101CF0007670770F770F770FA72A9D7C9A2995B971
:101D00009BB188708295807F9F77892B8BB95C9A75
:101D100081E090E0FC016F9364E06A95F1F76F91C8
:101D20003197C9F75C98FC016F9364E06A95F1F70D
:101D30006F913197C9F775B1A42FA170B0E0AA0FC8
:101D4000BB1FE42FE670EE0FEE0FEE0FAE2B7D7C87
:101D5000A72BA5B97BB148704295407F7F77472B71
:101D60004BB95C9AFC016F9364E06A95F1F76F914F
:101D70003197C9F75C986F9364E06A95F1F76F91BA
:101D80000197C9F76AB95BB934B925B9C114D1044F
:101D900029F140E09601ADECBCEC0E94ED119C01F4
:101DA00036952795369527953695279571E0740FCA
:101DB000E1E0F0E0EC0FFD1FE40FF11D40E34C0DFE
:101DC000822F880F982F990F990F980FC42EC91A38
:101DD000C0826901472F232BE9F604C080E3898381
:101DE00071E003C0772309F4A9C081E090E0FE010F
:101DF000E70FF11D50816AB157985A98289A24EC40
:101E000039E0FC016F9364E06A95F1F76F913197C7
:101E1000C9F75C9AFC016F9364E06A95F1F76F91E2
:101E20003197C9F749B15C98FC016F9364E06A95FA
:101E3000F1F76F913197C9F75C9AFC016F9364E0F9
:101E40006A95F1F76F913197C9F75C98442324F4B0
:101E50002150310909F0D5CF6AB9E4B165B1BAB002
:101E6000FBB128985A9A24B1226324B9579A252F96
:101E700030E03595279535952795359527953595F6
:101E8000279545B1022F017010E06801CC0CDD1CD4
:101E9000322F3670330F330F330F3C294D7C342BE8
:101EA00035B94BB1322F38703295307F242F2F77D0
:101EB000322B3BB95C9ADC016F9364E06A95F1F7D1
:101EC0006F911197C9F75C98DC016F9364E06A9594
:101ED000F1F76F911197C9F735B150FBEE24E0F897
:101EE000F12C6701CC0CDD1C252F2670220F220F50
:101EF000220F2C293D7C232B25B93BB1252F28709F
:101F00002295207F3F77232B2BB95C9ADC016F93BE
:101F100064E06A95F1F76F911197C9F75C98DC015D
:101F20006F9364E06A95F1F76F911197C9F7BAB8AA
:101F3000FBB9E4B965B9715009F059CFA0960FB655
:101F4000F894DEBF0FBECDBFDF91CF911F910F91EF
:101F5000FF90EF90DF90CF90BF90AF900895CF9318
:101F6000DF93CDB7DEB7A0970FB6F894DEBF0FBEF4
:101F7000CDBF8091F5019091F601892B21F1E5EF1C
:101F8000F1E081E08187808782819381009739F435
:101F90008FEF9FEF9093FC018093FB0104C090931F
:101FA000FC018093FB018AE080938100E5EFF1E082
:101FB000818180938900808180938800E0E8F0E04F
:101FC00080818061808384E690E028EE33E0F9012F
:101FD0006F9364E06A95F1F76F913197C9F70197B4
:101FE000B1F7E5EFF1E011861086E0E8F0E010824D
:101FF0001092810080818F7E808320E041E063E049
:1020000071E082EC91E00E94610421E040E069E02F
:1020100071E082EC91E00E9461040E94490380E13A
:102020000E94010B22E040E061E082EC91E00E941E
:10203000D905F8948091E1019091E20181159440D5
:1020400051F4E7EDF1E078940000F89482859385EF
:1020500081159440C1F3A091E101B091E20178941F
:10206000000028E833E10E94FC1161507E4F8F4F41
:102070009F4F2FEF33E040E050E00E94AC11DA01B7
:10208000C901880F991FAA1FBB1F820F931FA41F8E
:10209000B51F0196A11DB11DBC01CD019695879577
:1020A0007795679520E042E082EC91E00E94080E6F
:1020B00020E046E062E171E082EC91E00E94610480
:1020C00088EE93E028EE33E0F9016F9364E06A95BF
:1020D000F1F76F913197C9F70197B1F722E040E02E
:1020E00061E082EC91E00E94D90520E043E065E1E7
:1020F00071E082EC91E00E9461040F2EF2E38F2EDA
:10210000912CF02D612C01EC11E00F2EF0ECCF2E74
:10211000F1E0DF2EF02D762C0F2EF0E35F2EF02D68
:102120000F2EFAE0AF2EB12CF02D0F2EF1ECEF2E8A
:10213000F12CF02D90920101809200016092290112
:102140000E94540B862D0E94810390932B01809353
:102150002A010E94540BFC010097A9F19C019923CC
:1021600024F422273327281B390B121613060CF0F0
:1021700076C0462DC901B5010E94981191E0940FD7
:10218000A1E0B0E0AC0FBD1FA40FB11D362F330F7F
:10219000832F880F880F830F205D281B2C93262FF9
:1021A000372F492F121613062CF3FF237CF401C09E
:1021B00090E0E1E0F0E0EC0FFD1FE90FF11D8DE292
:1021C00080839F5F03C0598291E002C09923D9F1B7
:1021D000D801EC9181E08E0F803609F4872DD6016D
:1021E0002C91281751F0F0E0E25CFE4FDE01A90FC0
:1021F000B11D2C9122A3F8018083915049F723C08F
:10220000D6019C91981739F0F0E0E25CFE4F9AE01D
:1022100092A3F8018083D7018C9180628C930E94F5
:10222000540B843F914014F40E94520D0E94540BB1
:10223000813098400CF07ECF67E870E080ED97E049
:102240000E94C70C77CFD7018C9180628C93D80104
:10225000EC9181E08E0F803699F6862DD1CFFF2349
:1022600094F7A6CF0E943B0B7894199949C0F89433
:102270008091E1019091E2018115944051F4E7EDE4
:10228000F1E078940000F89482859385811594405C
:10229000C1F3A091E101B091E2017894000028E837
:1022A00033E10E94FC1161507E4F8F4F9F4F2FEF03
:1022B00033E040E050E00E94AC11A3E0B0E00E94A7
:1022C0000312DC01CB010196A11DB11DBC01CD01A2
:1022D000969587957795679520E044E082EC91E0AC
:1022E0000E94080E80ED97E028EE33E0F9016F932D
:1022F00064E06A95F1F76F913197C9F70197B1F7EB
:102300000E94AF0FE5EFF1E011861386108684EC92
:1023100099E0918380831582148213821282EEE306
:10232000F1E010A211A21092C0011092C101089513
:1023300097FB072E16F4009407D077FD09D00E9472
:10234000161207FC05D03EF4909581959F4F089595
:10235000709561957F4F0895A1E21A2EAA1BBB1BB1
:10236000FD010DC0AA1FBB1FEE1FFF1FA217B30761
:10237000E407F50720F0A21BB30BE40BF50B661F77
:10238000771F881F991F1A9469F76095709580953B
:1023900090959B01AC01BD01CF010895052E97FBDF
:1023A0001EF400940E94E51157FD07D00E94AC1165
:1023B00007FC03D04EF40C94E511509540953095F0
:1023C00021953F4F4F4F5F4F0895909580957095A1
:1023D00061957F4F8F4F9F4F0895A29FB001B39F8C
:1023E000C001A39F700D811D1124911DB29F700D1E
:1023F000811D1124911D08950E94ED11B7FF0895CC
:10240000821B930B08950E94ED11A59F900DB49F20
:10241000900DA49F800D911D11240895B7FF0C9479
:1024200003120E940312821B930B0895AA1BBB1B6D
:1024300051E107C0AA1FBB1FA617B70710F0A61BC4
:10244000B70B881F991F5A95A9F780959095BC01E5
:10245000CD010895EE0FFF1F0590F491E02D099432
:04246000F894FFCF1E
:10246400320001707265737300427574746F6E5F2D
:1024740042006D5600676F2100747E7A33000102BA
:042484000304060740
:00000001FF
