S01300006C696E65666F6C6F7765722E737265636B
S11300000C9435000C945D000C945D000C945D0020
S11300100C945D000C945D000C945D000C945D00E8
S11300200C945D000C945D000C945D000C945D00D8
S11300300C945D000C945D000C945D000C945D00C8
S11300400C94E6000C945D000C94720A0C94C80A9B
S11300500C945D000C94E3010C945D000C945D0021
S11300600C945D000C945D001B1011241FBECFEF97
S1130070D8E0DEBFCDBF11E0A0E0B1E0E6E9F1E2F7
S113008002C005900D92A632B107D9F722E0A6E28C
S1130090B1E001C01D92A330B207E1F710E0C5E35F
S11300A0D0E004C02197FE010E94C310C433D107DD
S11300B0C9F70E94CB0F0C94C9100C9400008AE07D
S11300C08093810010928B0010928A00229A2A98C1
S11300D0089583EF8093B00084BD82E08093B100E3
S11300E085BD1092B4001092B30018BC17BCEEE6A4
S11300F0F0E08081816080838AB188668AB9239A1E
S11301005D985E985B982B98089514BC1092B0008B
S113011015BC1092B1000895992364F418BC91950C
S1130120819591098F3F910519F014F08FEF90E0BC
S113013087BD08958F3F910519F014F08FEF90E07B
S113014088BD17BC0895992374F41092B400919556
S1130150819591098F3F910519F014F08FEF90E08C
S11301608093B30008958F3F910519F014F08FEF39
S113017090E08093B4001092B30008959093F60138
S11301808093F50120910301222321F081E08093E3
S1130190EE0108950E94A30008959093F4018093C2
S11301A0F30120910301222321F081E08093ED01EA
S11301B008950E948C000895882321F0CB010E94A9
S11301C0A3000895CB010E948C0008951F920F9202
S11301D00FB60F9211242F933F934F935F936F9316
S11301E07F938F939F93AF93BF93CF93DF93EF93BB
S11301F0FF938091EB018F5F8093EB018A3009F0CC
S1130200CFC01092EB018091E7019091E801A09199
S1130210E901B091EA010196A11DB11D8093E701A6
S11302209093E801A093E901B093EA018091000260
S1130230882309F44AC08091FD019091FE018F3F0B
S11302402FEF920709F441C001979093FE01809328
S1130250FD01892BD1F58091FF018823F9F080916C
S1130260FB019091FC01009739F48FEF9FEF90937D
S1130270FE018093FD0104C09093FE018093FD0173
S1130280E0E8F0E080818F7E8083E7EFF1E0818118
S11302908093890080818093880011C0E7EFF1E0AA
S11302A08281938197838683A0E8B0E08C918061FA
S11302B08C93818180938900808180938800E7EF0B
S11302C0F1E0908581E0892780878091EC0181119C
S11302D067C081E08093EC01C0E0D0E08C2F9E01E8
S11302E0FE01E351FE4F9081992309F452C0AE01FF
S11302F0440F551FFA01ED50FE4F60817181FA01E0
S1130300E151FE4F408151816417750729F4F901C9
S1130310E351FE4F10823DC0A901440F551FFA015D
S1130320ED50FE4F60817181FA01E151FE4F408131
S11303305181641B750BAB0122F444275527461BDE
S1130340570B1416150614F441E050E0B901660F7A
S1130350771FFB01ED50FE4F0190F081E02DDB0192
S1130360A151BE4F6D917C91E617F7071CF451958E
S113037041955109220F331FF901E151FE4F2081AC
S11303803181420F531F51834083608171810E94E8
S1130390DC002196C230D10509F0A0CF1092EC0107
S11303A0FF91EF91DF91CF91BF91AF919F918F9189
S11303B07F916F915F914F913F912F910F900FBE5D
S11303C00F901F9018951F920F920FB60F92112441
S11303D02F938F939F93EF93FF9380912A01882308
S11303E009F472C0809178002091790090E0922BFA
S11303F0E091290121E02E0F20932901F0E0EE0F76
S1130400FF1FE752FE4F91838083263009F04DC0D1
S113041020910102222309F468C0813322E092076B
S113042008F05EC062C080910102882309F443C0D1
S1130430E7EFF1E0128611861086E0E8F0E0108222
S11304401092810080818F7E80832FC08033924000
S113045008F450C030C08091010281112CC0E7EF34
S1130460F1E081E08287108688EE93E093838283B3
S113047084EF91E09583848380819181892BD9F0E5
S113048081E08187808788EE93E0978386838AE082
S1130490809381008181809389008081809388008A
S11304A0E0E8F0E0808180618083809129018730D9
S11304B011F410922901E0912901F0E0E25EFE4F6F
S11304C08081806480937C0090912A0181E0892757
S11304D080932A01EAE7F0E08081806480830FC082
S11304E08091020281119FCFE6CF20910102211158
S11304F0E2CFACCF809102028111ADCFDCCFFF916E
S1130500EF919F918F912F910F900FBE0F901F909D
S1130510189520E030E040E054E0C901880F991FAD
S1130520FC01EB53FE4F11821082FC01E153FE4F9C
S1130530518340832F5F3F4F2530310571F7089574
S1130540AF92BF92DF92EF92FF920F931F93CF93DC
S1130550DF93CDB7DEB764970FB6F894DEBF0FBE56
S1130560CDBFD12C7E011BE0E10EF11CCE01019622
S11305705C01DC01B70140E050E0F8949A01FA0113
S1130580EE0FFF1FE752FE4F808191818115944049
S113059069F4FA01EE0FFF1FE752FE4F7894000052
S11305A0F8948081918181159440C1F3220F331F07
S11305B0F901E752FE4F8081918178940000DD209B
S11305C009F453C02D913C911197281739070CF465
S11305D048C0FB0120813181821793071CF4FB0181
S11305E0918380834F5F5F4F6E5F7F4F12964530DC
S11305F0510509F0C2CFD394FAE0DF12B3CF80E003
S113060090E09C01F701419151917F01FC01EE0FB3
S1130610FF1FEB53FE4F60817181641775073CF433
S1130620FC01EE0FFF1FEB53FE4F51834083F50196
S1130630419151915F01F901EE0FFF1FE153FE4F0C
S113064060817181461757073CF4220F331FF9016B
S1130650E153FE4F5183408301968530910589F61D
S113066008C011969C938E93B4CF11969C938E934D
S1130670B6CF64960FB6F894DEBF0FBECDBFDF9140
S1130680CF911F910F91FF90EF90DF90BF90AF90AB
S113069008951F93CF93DF930E9489021CEEC8EE46
S11306A0D3E0183248F088E290E00E94CD0088ED53
S11306B09FEF0E94BE0008C088ED9FEF0E94CD000E
S11306C088E290E00E94BE000E94A00284E190E0D3
S11306D0FE016F9364E06A95F1F76F913197C9F762
S11306E00197B1F71F5F1C33E1F680E090E00E94B0
S11306F0CD0080E090E00E94BE00DF91CF911F9179
S113070008953F924F925F926F927F928F929F9241
S1130710AF92BF92CF92DF92EF92FF920F931F930B
S1130720CF93DF93582EC12CD12C7601C0E0D0E0BA
S1130730612C712C812C912C5401412C00E014E08B
S113074033243394F894BE01FE01EE0FFF1FE752E9
S1130750FE4F808191818115944069F4FE01EE0F72
S1130760FF1FE752FE4F78940000F8948081918136
S113077081159440C1F3CB01880F991FFC01E75206
S1130780FE4F2081318178940000FC01EB53FE4F31
S113079040815181FC01E153FE4F80819181481BCE
S11307A0590BA1F0660F771FFB01E153FE4F8081C7
S11307B09181D901A81BB90B28EE33E00E94951052
S11307C09A01550F440B550B0E946710213084E0A9
S11307D038070CF09801F901FF2314F4E0E0F0E08D
S11307E0552021F0C8018E1B9F0BFC01E93CF1054B
S11307F00CF0432CE333F1055CF0DF01A701960113
S11308000E94A710860E971EA81EB91E6E0E7F1E8C
S1130810219694E0D90EE11CF11CC530D10509F0F4
S113082091CF41100AC08091270190912801811530
S1130830984084F080E090E10FC0930140E050E0E4
S1130840C501B4010E944510C901309328012093C9
S1130850270102C080E090E0DF91CF911F910F91BA
S1130860FF90EF90DF90CF90BF90AF909F908F90CC
S11308707F906F905F904F903F9008958FE38093A7
S11308807E008FED80937A0010927B0080E4809349
S11308907C0088B18F6388B9E9EDF1E080E094E0F1
S11308A091838083938382839583848397838683D0
S11308B09187808793878287958784870E9489029E
S11308C008958F929F92BF92CF92DF92EF92FF9200
S11308D00F931F93CF93DF9300D000D0CDB7DEB733
S11308E080E8898380EC8A8384E98B8384ED8C831C
S11308F0FE01E20FF11D8181480FBAB057985A9852
S1130900289A24EC39E081E090E0FC016F9364E0E4
S11309106A95F1F76F913197C9F75C9AFC016F936F
S113092064E06A95F1F76F913197C9F759B15C9812
S1130930FC016F9364E06A95F1F76F913197C9F701
S11309405C9AFC016F9364E06A95F1F76F913197BB
S1130950C9F75C98552324F42150310909F0D5CF07
S1130960BAB834B125B1AAB15BB128985A9884B108
S1130970826384B9579A842F90E0959587959595CD
S11309808795959587959595879595B180FBCC240A
S1130990C0F8D12CCC0CDD1CF82FF670FF0FFF0F24
S11309A0FF0FCF2A9D7C9C2995B99BB188708295B5
S11309B0807F9F77892B8BB95C9A81E090E06C01F2
S11309C0FC016F9364E06A95F1F76F913197C9F771
S11309D05C98FC016F9364E06A95F1F76F9131972D
S11309E0C9F7F5B140FBEE24E0F8F12CEE0CFF1C46
S11309F0B42FB670FB2EFF0CFF0CFF0CEF28FD7C10
S1130A00EF2AE5B8FBB148704295407FFF774F2B42
S1130A104BB95C9AF6016F9364E06A95F1F76F91B4
S1130A203197C9F75C986F9364E06A95F1F76F9119
S1130A300197C9F7AAB95BB934B925B9DB015C914F
S1130A40552309F4A6C06F5F7F4F81E090E0FAB0B0
S1130A5057985A98289A24EC39E0FC016F9364E083
S1130A606A95F1F76F913197C9F75C9AFC016F931E
S1130A7064E06A95F1F76F913197C9F749B15C98D1
S1130A80FC016F9364E06A95F1F76F913197C9F7B0
S1130A905C9AFC016F9364E06A95F1F76F9131976A
S1130AA0C9F75C98442324F42150310909F0D5CFC7
S1130AB0FAB8F4B1E5B1EAB0FBB028985A9A24B177
S1130AC0226324B9579A252F30E03595279535951B
S1130AD02795359527953595279545B120FB88248D
S1130AE080F8912C6401CC0CDD1C322F3670330F4E
S1130AF0330F330F3C294D7C342B35B93BB128706F
S1130B002295207F3F77232B2BB95C9ADC016F93CE
S1130B1064E06A95F1F76F911197C9F75C98DC016D
S1130B206F9364E06A95F1F76F911197C9F735B146
S1130B30052F017010E06801CC0CDD1C252F2670F8
S1130B40220F220F220F2C293D7C232B25B92BB1F8
S1130B5058705295507F2F77522B5BB95C9ADC0109
S1130B606F9364E06A95F1F76F911197C9F75C98F8
S1130B70DC016F9364E06A95F1F76F911197C9F7FF
S1130B80EAB8FBB8F4B9E5B9FB015191BF015111C1
S1130B905ECF0F900F900F900F90DF91CF911F9128
S1130BA00F91FF90EF90DF90CF90BF909F908F9028
S1130BB008950F931F93CF93DF935AB157985A9880
S1130BC0289AA4ECB9E081E090E0FC016F9364E022
S1130BD06A95F1F76F913197C9F75C9AFC016F93AD
S1130BE064E06A95F1F76F913197C9F739B15C9870
S1130BF0FC016F9364E06A95F1F76F913197C9F73F
S1130C005C9AFC016F9364E06A95F1F76F913197F8
S1130C10C9F75C9833231CF4119709F0D6CF5AB95D
S1130C2054B135B1EAB17BB12898442311F05A9AF2
S1130C3001C05A9884B1826384B9579A213009F467
S1130C4033C0862F90E095958795959587959595D2
S1130C5087959595879595B1082F017010E0000F41
S1130C60111F282F2670220F220F220F022B9D7C8A
S1130C70092B05B99BB188708295807F9F77892B5A
S1130C808BB95C9A81E090E0DC016F9364E06A9533
S1130C90F1F76F911197C9F75C986F9364E06A95C7
S1130CA0F1F76F910197C9F785B1962F9170C92F0C
S1130CB090E0D92FCC0FDD1F962F9670990F990FC6
S1130CC0990FC92B8D7CC82BC5B98BB168706295FF
S1130CD0607F8F77682B6BB95C9A81E090E0DC01D0
S1130CE06F9364E06A95F1F76F911197C9F75C9877
S1130CF06F9364E06A95F1F76F910197C9F7EAB9C8
S1130D007BB954B935B9DF91CF911F910F910895F3
S1130D10529A209A549A8EE190E028EE33E0F90139
S1130D206F9364E06A95F1F76F913197C9F7019772
S1130D30B1F75AB157985A98289A24EC39E081E0CF
S1130D4090E0FC016F9364E06A95F1F76F9131973D
S1130D50C9F75C9AFC016F9364E06A95F1F76F91AF
S1130D603197C9F749B15C98FC016F9364E06A95C7
S1130D70F1F76F913197C9F75C9AFC016F9364E0C6
S1130D806A95F1F76F913197C9F75C98442324F47D
S1130D902150310909F0D5CF5AB934B125B15AB12E
S1130DA04BB128985A9884B1826384B9579A85B113
S1130DB08D7C826185B95F985C9A81E090E0FC014A
S1130DC06F9364E06A95F1F76F913197C9F75C9876
S1130DD06F9364E06A95F1F76F910197C9F75AB977
S1130DE04BB934B925B986E090E028EE33E0F90137
S1130DF06F9364E06A95F1F76F913197C9F70197A2
S1130E00B1F75AB157985A98289A24EC39E081E0FE
S1130E1090E0FC016F9364E06A95F1F76F9131976C
S1130E20C9F75C9AFC016F9364E06A95F1F76F91DE
S1130E303197C9F749B15C98FC016F9364E06A95F6
S1130E40F1F76F913197C9F75C9AFC016F9364E0F5
S1130E506A95F1F76F913197C9F75C98442324F4AC
S1130E602150310909F0D5CF5AB934B125B15AB15D
S1130E704BB128985A9884B1826384B9579A85B142
S1130E808D7C826185B95F985C9A81E090E0FC0179
S1130E906F9364E06A95F1F76F913197C9F75C98A5
S1130EA06F9364E06A95F1F76F910197C9F75AB9A6
S1130EB04BB934B925B988EE93E0FC016F9364E033
S1130EC06A95F1F76F913197C9F76F9364E06A956A
S1130ED0F1F76F910197C9F75AB157985A98289A20
S1130EE024EC39E081E090E0FC016F9364E06A95C2
S1130EF0F1F76F913197C9F75C9AFC016F9364E045
S1130F006A95F1F76F913197C9F749B15C98FC0183
S1130F106F9364E06A95F1F76F913197C9F75C9A22
S1130F20FC016F9364E06A95F1F76F913197C9F70B
S1130F305C98442324F42150310909F0D5CF5AB9DF
S1130F4034B125B15AB14BB128985A9884B182630F
S1130F5084B9579A85B18D7C826185B95F985C9A12
S1130F6081E090E0FC016F9364E06A95F1F76F9182
S1130F703197C9F75C986F9364E06A95F1F76F91C4
S1130F800197C9F75AB94BB934B925B988EE93E03A
S1130F90FC016F9364E06A95F1F76F913197C9F79B
S1130FA06F9364E06A95F1F76F910197C9F75AB1AD
S1130FB057985A98289A24EC39E081E090E0FC0193
S1130FC06F9364E06A95F1F76F913197C9F75C9A72
S1130FD0FC016F9364E06A95F1F76F913197C9F75B
S1130FE049B15C98FC016F9364E06A95F1F76F91E5
S1130FF03197C9F75C9AFC016F9364E06A95F1F745
S11310006F913197C9F75C98442324F42150310936
S113101009F0D5CF5AB934B125B15AB14BB128989A
S11310205A9884B1826384B9579A85B18D7C806162
S113103085B95F985C9A81E090E0FC016F9364E06D
S11310406A95F1F76F913197C9F75C986F9364E0F3
S11310506A95F1F76F910197C9F75AB94BB934B949
S113106025B988EE93E0FC016F9364E06A95F1F78B
S11310706F913197C9F76F9364E06A95F1F76F91B7
S11310800197C9F75AB157985A98289A24EC39E02D
S113109081E090E0FC016F9364E06A95F1F76F9151
S11310A03197C9F75C9AFC016F9364E06A95F1F794
S11310B06F913197C9F749B15C98FC016F9364E073
S11310C06A95F1F76F913197C9F75C9AFC016F93B8
S11310D064E06A95F1F76F913197C9F75C984423FE
S11310E024F42150310909F0D5CF5AB944B135B1AE
S11310F06AB15BB128985A9884B1826384B9579ACB
S113110085B18D7C806185B95F985C9A81E090E0BF
S1131110FC016F9364E06A95F1F76F913197C9F719
S11311205C98FC016F9364E06A95F1F76F913197D5
S1131130C9F725B12D7C25B95F9A5C9AFC016F93A0
S113114064E06A95F1F76F913197C9F75C986F93F2
S113115064E06A95F1F76F910197C9F76AB95BB9D1
S113116044B935B95AB157985A98289A24EC39E0B9
S113117081E090E0FC016F9364E06A95F1F76F9170
S11311803197C9F75C9AFC016F9364E06A95F1F7B3
S11311906F913197C9F749B15C98FC016F9364E092
S11311A06A95F1F76F913197C9F75C9AFC016F93D7
S11311B064E06A95F1F76F913197C9F75C9844231D
S11311C024F42150310909F0D5CF5AB944B135B1CD
S11311D06AB15BB128985A9884B1826384B9579AEA
S11311E085B18D7C85B95F985C9A81E090E0FC01C3
S11311F06F9364E06A95F1F76F913197C9F75C9842
S1131200FC016F9364E06A95F1F76F913197C9F728
S113121025B12D7C25B95F9A5C9AFC016F9364E03B
S11312206A95F1F76F913197C9F75C986F9364E011
S11312306A95F1F76F910197C9F76AB95BB944B937
S113124035B95AB157985A98289A24EC39E081E074
S113125090E0FC016F9364E06A95F1F76F91319728
S1131260C9F75C9AFC016F9364E06A95F1F76F919A
S11312703197C9F749B15C98FC016F9364E06A95B2
S1131280F1F76F913197C9F75C9AFC016F9364E0B1
S11312906A95F1F76F913197C9F75C98442324F468
S11312A02150310909F0D5CF5AB944B135B16AB1E9
S11312B05BB128985A9884B1826384B9579A85B1EE
S11312C08D7C85B95F985C9A81E090E0FC016F9316
S11312D064E06A95F1F76F913197C9F75C98FC0166
S11312E06F9364E06A95F1F76F913197C9F725B16F
S11312F02D7C226025B95F985C9AFC016F9364E0B1
S11313006A95F1F76F913197C9F75C986F9364E030
S11313106A95F1F76F910197C9F76AB95BB944B956
S113132035B95AB157985A98289A24EC39E081E093
S113133090E0FC016F9364E06A95F1F76F91319747
S1131340C9F75C9AFC016F9364E06A95F1F76F91B9
S11313503197C9F749B15C98FC016F9364E06A95D1
S1131360F1F76F913197C9F75C9AFC016F9364E0D0
S11313706A95F1F76F913197C9F75C98442324F487
S11313802150310909F0D5CF5AB944B135B16AB108
S11313905BB128985A9884B1826384B9579A85B10D
S11313A08D7C85B95F985C9A81E090E0FC016F9335
S11313B064E06A95F1F76F913197C9F75C98FC0185
S11313C06F9364E06A95F1F76F913197C9F725B18E
S11313D02D7C206325B95F985C9AFC016F9364E0CF
S11313E06A95F1F76F913197C9F75C986F9364E050
S11313F06A95F1F76F910197C9F76AB95BB944B976
S113140035B95AB157985A98289A24EC39E081E0B2
S113141090E0FC016F9364E06A95F1F76F91319766
S1131420C9F75C9AFC016F9364E06A95F1F76F91D8
S11314303197C9F749B15C98FC016F9364E06A95F0
S1131440F1F76F913197C9F75C9AFC016F9364E0EF
S11314506A95F1F76F913197C9F75C98442324F4A6
S11314602150310909F0D5CF5AB944B135B16AB127
S11314705BB128985A9884B1826384B9579A85B12C
S11314808D7C85B95F985C9A81E090E0FC016F9354
S113149064E06A95F1F76F913197C9F75C98FC01A4
S11314A06F9364E06A95F1F76F913197C9F725B1AD
S11314B02D7C206225B95F9A5C9AFC016F9364E0ED
S11314C06A95F1F76F913197C9F75C986F9364E06F
S11314D06A95F1F76F910197C9F76AB95BB944B995
S11314E035B908951F920F920FB60F9211242F93BE
S11314F03F934F935F936F937F938F939F93AF9398
S1131500BF93EF93FF939091C60080912601E82F3B
S1131510F0E0E65EFE4F2081921316C08F5F809349
S11315202601843099F40E94850022E040E061E0C5
S113153084EC91E00E94D905F894E0E6F0E088E1BB
S1131540808388E08083FFCF10922601E0916101BF
S113155081E08E0F803209F480E020916001281729
S113156031F0F0E0E05CFE4F908380936101FF91E5
S1131570EF91BF91AF919F918F917F916F915F9107
S11315804F913F912F910F900FBE0F901F90189580
S11315901F920F920FB60F9211248F939F93AF93C4
S11315A0BF93EF93FF939091C2018091C301981769
S11315B089F0A2ECB1E0EC91F0E0E05CFE4F92A186
S11315C08C918F5F803609F480E08093C201909300
S11315D0C60005C0E1ECF0E080818F7D8083FF913F
S11315E0EF91BF91AF919F918F910F900FBE0F908C
S11315F01F90189584B18D7C84B985B1826385B9B7
S1131600089548EE53E093B19823E9F725E030E0DC
S1131610FA016F9364E06A95F1F76F913197C9F716
S113162021503109A9F793B1982369F722E330E0F7
S113163048EE53E0FA016F9364E06A95F1F76F9115
S11316403197C9F721503109A9F748EE53E093B116
S11316509823E9F325E030E0FA016F9364E06A959A
S1131660F1F76F913197C9F721503109A9F793B177
S1131670982369F308950E945F000E9469000E9404
S11316803E040E94880682E08093C00086E0809336
S1131690C2001092C50085E18093C40088E980935C
S11316A0C1000E94FA0A0895F8948091D90190919A
S11316B0DA018115944051F4E9EDF1E078940000E9
S11316C0F8948081918181159440C1F3A091D9014E
S11316D0B091DA01789400002091C5013091C601DF
S11316E08091CF019091D001A901481B590B89F039
S11316F08091CF019091D001A81BB90B28EE33E063
S11317000E9495109A01550F440B550B0E946710C7
S1131710D901A13084E0B80714F0A0E0B4E0BB2301
S113172014F4A0E0B0E0B0933B01A0933A01F89424
S11317308091DB019091DC018115944051F4E9ED35
S1131740F1E078940000F8948281938181159440AB
S1131750C1F3A091DB01B091DC01789400002091E9
S1131760C7013091C8018091D1019091D201A901A2
S1131770481B590B89F08091D1019091D201A81B8B
S1131780B90B28EE33E00E9495109A01550F440BD3
S1131790550B0E946710D901A13084E0B80714F0FA
S11317A0A0E0B4E0BB2314F4A0E0B0E0B0933901AE
S11317B0A0933801F8948091DD019091DE018115A8
S11317C0944051F4E9EDF1E078940000F8948481B8
S11317D0958181159440C1F3A091DD01B091DE01A2
S11317E0789400002091C9013091CA018091D301FD
S11317F09091D401A901481B590B89F08091D30120
S11318009091D401A81BB90B28EE33E00E949510E7
S11318109A01550F440B550B0E946710D901A13052
S113182084E0B80714F0A0E0B4E0BB2314F4A0E013
S1131830B0E0B0933701A0933601F8948091DF01B2
S11318409091E0018115944051F4E9EDF1E0789430
S11318500000F8948681978181159440C1F3A0918A
S1131860DF01B091E001789400002091CB01309128
S1131870CC018091D5019091D601A901481B590B47
S113188089F08091D5019091D601A81BB90B28EE5F
S113189033E00E9495109A01550F440B550B0E949A
S11318A06710D901A13084E0B80714F0A0E0B4E0D7
S11318B0BB2314F4A0E0B0E0B0933501A09334014D
S11318C0F8948091E1019091E2018115944051F4E2
S11318D0E9EDF1E078940000F89480859185811514
S11318E09440C1F3A091E101B091E2017894000029
S11318F02091CD013091CE018091D7019091D801F2
S1131900A901481B590B89F08091D7019091D80106
S1131910A81BB90B28EE33E00E9495109A01550FCD
S1131920440B550B0E946710D901A13084E0B8071D
S113193014F0A0E0B4E0BB2314F4A0E0B0E0B09352
S11319403301A093320120913A0130913B018091FF
S1131950380190913901820F931F20913601309103
S11319603701820F931F2091340130913501820F8A
S1131970931F8A0F9B1F0895CF93DF9388E290E013
S11319800E94CD0088E290E00E94BE00C0E2D3E055
S11319901092000180E00E94810390932D018093B6
S11319A02C010E94540B409724F081E080932B017A
S11319B002C0219769F7DF91CF910895AF92BF924A
S11319C0CF92DF92EF92FF920F931F93CF93DF9307
S11319D0CDB7DEB7A0970FB6F894DEBF0FBECDBF6C
S11319E06B0180E8898380EC8A8384E98B8384EDAE
S11319F08C83FE01E20FF11D8181480F6AB1579873
S1131A005A98289A24EC39E081E090E0FC016F9325
S1131A1064E06A95F1F76F913197C9F75C9AFC011C
S1131A206F9364E06A95F1F76F913197C9F759B1F3
S1131A305C98FC016F9364E06A95F1F76F913197BC
S1131A40C9F75C9AFC016F9364E06A95F1F76F91B2
S1131A503197C9F75C98552324F42150310909F0D2
S1131A60D5CF6AB934B125B16AB15BB128985A9817
S1131A7084B1826384B9579A842F90E095958795B1
S1131A8095958795959587959595879595B180FBBF
S1131A90AA24A0F8B12CAA0CBB1C782F7670770F5F
S1131AA0770F770FA72A9D7C9A2995B99BB18870E7
S1131AB08295807F9F77892B8BB95C9A81E090E037
S1131AC0FC016F9364E06A95F1F76F913197C9F760
S1131AD05C98FC016F9364E06A95F1F76F9131971C
S1131AE0C9F775B1A42FA170B0E0AA0FBB1FE42FF2
S1131AF0E670EE0FEE0FEE0FAE2B7D7CA72BA5B993
S1131B007BB148704295407F7F77472B4BB95C9AF5
S1131B10FC016F9364E06A95F1F76F913197C9F70F
S1131B205C986F9364E06A95F1F76F910197C9F738
S1131B306AB95BB934B925B9C114D10429F140E0BB
S1131B409601ADECBCEC0E9486109C01369527955D
S1131B50369527953695279571E0740FE1E0F0E00E
S1131B60EC0FFD1FE40FF11D40E34C0D822F880F95
S1131B70982F990F990F980FC42EC91AC082690122
S1131B80472F232BE9F604C080E3898371E003C067
S1131B90772309F4A9C081E090E0FE01E70FF11D6D
S1131BA050816AB157985A98289A24EC39E0FC017C
S1131BB06F9364E06A95F1F76F913197C9F75C9A76
S1131BC0FC016F9364E06A95F1F76F913197C9F75F
S1131BD049B15C98FC016F9364E06A95F1F76F91E9
S1131BE03197C9F75C9AFC016F9364E06A95F1F749
S1131BF06F913197C9F75C98442324F4215031093B
S1131C0009F0D5CF6AB9E4B165B1BAB0FBB128988F
S1131C105A9A24B1226324B9579A252F30E0359576
S1131C20279535952795359527953595279545B16C
S1131C30022F017010E06801CC0CDD1C322F3670CD
S1131C40330F330F330F3C294D7C342B35B94BB153
S1131C50322F38703295307F242F2F77322B3BB9B7
S1131C605C9ADC016F9364E06A95F1F76F911197C8
S1131C70C9F75C98DC016F9364E06A95F1F76F91A2
S1131C801197C9F735B150FBEE24E0F8F12C670148
S1131C90CC0CDD1C252F2670220F220F220F2C299D
S1131CA03D7C232B25B93BB1252F28702295207F1D
S1131CB03F77232B2BB95C9ADC016F9364E06A9520
S1131CC0F1F76F911197C9F75C98DC016F9364E0A9
S1131CD06A95F1F76F911197C9F7BAB8FBB9E4B9EE
S1131CE065B9715009F059CFA0960FB6F894DEBFCC
S1131CF00FBECDBFDF91CF911F910F91FF90EF9059
S1131D00DF90CF90BF90AF9008958091F7019091AC
S1131D10F801892B21F1E7EFF1E081E081878087E9
S1131D2082819381009739F48FEF9FEF9093FE01A6
S1131D308093FD0104C09093FE018093FD018AE02D
S1131D4080938100E7EFF1E08181809389008081B5
S1131D5080938800E0E8F0E080818061808384E6FD
S1131D6090E028EE33E0F9016F9364E06A95F1F7AF
S1131D706F913197C9F70197B1F7E7EFF1E0118659
S1131D801086E0E8F0E010821092810080818F7E5E
S1131D90808320E041E064E071E084EC91E00E9403
S1131DA0610421E040E06AE071E084EC91E00E948B
S1131DB061040E94490380E10E94010B22E040E09B
S1131DC061E084EC91E00E94D905F8948091E301EC
S1131DD09091E4018115944051F4E9EDF1E0789497
S1131DE00000F8948285938581159440C1F3A091F5
S1131DF0E301B091E4017894000028E833E10E9403
S1131E00951061507E4F8F4F9F4F2FEF33E040E08E
S1131E1050E00E944510DA01C901880F991FAA1FDA
S1131E20BB1F820F931FA41FB51F0196A11DB11DD7
S1131E30BC01CD01969587957795679520E042E0A2
S1131E4084EC91E00E94DE0C20E046E063E171E066
S1131E5084EC91E00E94610488EE93E028EE33E084
S1131E60F9016F9364E06A95F1F76F913197C9F7BF
S1131E700197B1F722E040E061E084EC91E00E9438
S1131E80D90520E043E066E171E084EC91E00E9432
S1131E90610408EE13E00F2EF4E1CF2ED12CF02DC7
S1131EA00F2EF0E1EF2EF7E2FF2EF02DCCE3D0E081
S1131EB00F2EF4EC8F2EF02D99249A941093020196
S1131EC00093010110922B011092000180E00E9406
S1131ED0810390932D0180932C010E94540B843F25
S1131EE091401CF40E94BC0CE9CF80912C0190918C
S1131EF02D01805D97402091300130913101AC017A
S1131F00421B530B9A01E0912E01F0912F01E80F2F
S1131F10F91FF0932F01E0932E01909331018093E8
S1131F203001B6010E9431105B01CF01B7010E945C
S1131F3031106A0D7B1D5901AA0CBB1C2A0D3B1DD7
S1131F40332314F42F5F3F4F35952795620F731F8A
S1131F506D3371050CF0BE01643C5FEF750714F43A
S1131F60682D792D77235CF4645C7F4F70933D0179
S1131F7060933C01D0933F01C0933E019FCFD09327
S1131F803D01C0933C01CE01861B970B90933F010A
S1131F9080933E0193CF0E943B0B7894199949C0DA
S1131FA0F8948091E3019091E4018115944051F4F7
S1131FB0E9EDF1E078940000F89482859385811529
S1131FC09440C1F3A091E301B091E401789400003E
S1131FD028E833E10E94951061507E4F8F4F9F4F48
S1131FE02FEF33E040E050E00E944510A3E0B0E062
S1131FF00E949C10DC01CB010196A11DB11DBC0106
S1132000CD01969587957795679520E044E084EC1B
S113201091E00E94DE0C80ED97E028EE33E0F901B8
S11320206F9364E06A95F1F76F913197C9F701975F
S1132030B1F70E94850EE7EFF1E011861386108652
S113204084EC99E091838083158214821382128236
S1132050E0E4F1E010A211A21092C2011092C301B7
S1132060089597FB072E16F4009407D077FD09D046
S11320700E94AF1007FC05D03EF4909581959F4FC8
S11320800895709561957F4F0895A1E21A2EAA1BB9
S1132090BB1BFD010DC0AA1FBB1FEE1FFF1FA21714
S11320A0B307E407F50720F0A21BB30BE40BF50B11
S11320B0661F771F881F991F1A9469F7609570959A
S11320C0809590959B01AC01BD01CF010895052E2B
S11320D097FB1EF400940E947E1057FD07D00E94C7
S11320E0451007FC03D04EF40C947E105095409597
S11320F0309521953F4F4F4F5F4F089590958095B0
S1132100709561957F4F8F4F9F4F0895A29FB001A7
S1132110B39FC001A39F700D811D1124911DB29F17
S1132120700D811D1124911D08950E948610B7FF22
S11321300895821B930B08950E948610A59F900D0D
S1132140B49F900DA49F800D911D11240895B7FF95
S11321500C949C100E949C10821B930B0895AA1B44
S1132160BB1B51E107C0AA1FBB1FA617B70710F07E
S1132170A61BB70B881F991F5A95A9F780959095B0
S1132180BC01CD010895EE0FFF1F0590F491E02DE1
S10921900994F894FFCF4E
S113219601E80301707265737300427574746F6E9F
S11321A65F42006D5600676F2100747E7A3300012A
S10921B602030406070009
S9030000FC
