S01300006C696E65666F6C6F7765722E737265636B
S11300000C9435000C945D000C945D000C945D0020
S11300100C945D000C945D000C945D000C945D00E8
S11300200C945D000C945D000C945D000C945D00D8
S11300300C945D000C945D000C945D000C945D00C8
S11300400C94E6000C945D000C94720A0C94C80A9B
S11300500C945D000C94E3010C945D000C945D0021
S11300600C945D000C945D00341211241FBECFEF7C
S1130070D8E0DEBFCDBF11E0A0E0B1E0E8ECF5E2EE
S113008002C005900D92A632B107D9F722E0A6E28C
S1130090B1E001C01D92A530B207E1F710E0C5E35D
S11300A0D0E004C02197FE010E94DC12C433D107C2
S11300B0C9F70E94E4110C94E2120C9400008AE047
S11300C08093810010928B0010928A00229A2A98C1
S11300D0089583EF8093B00084BD82E08093B100E3
S11300E085BD1092B4001092B30018BC17BCEEE6A4
S11300F0F0E08081816080838AB188668AB9239A1E
S11301005D985E985B982B98089514BC1092B0008B
S113011015BC1092B1000895992364F418BC91950C
S1130120819591098F3F910519F014F08FEF90E0BC
S113013087BD08958F3F910519F014F08FEF90E07B
S113014088BD17BC0895992374F41092B400919556
S1130150819591098F3F910519F014F08FEF90E08C
S11301608093B30008958F3F910519F014F08FEF39
S113017090E08093B4001092B30008959093F80136
S11301808093F70120910101222321F081E08093E3
S1130190F00108950E94A30008959093F6018093BE
S11301A0F50120910101222321F081E08093EF01E8
S11301B008950E948C000895882321F0CB010E94A9
S11301C0A3000895CB010E948C0008951F920F9202
S11301D00FB60F9211242F933F934F935F936F9316
S11301E07F938F939F93AF93BF93CF93DF93EF93BB
S11301F0FF938091ED018F5F8093ED018A3009F0C8
S1130200CFC01092ED018091E9019091EA01A09193
S1130210EB01B091EC010196A11DB11D8093E901A0
S11302209093EA01A093EB01B093EC018091020258
S1130230882309F44AC08091FF01909100028F3F06
S11302402FEF920709F441C0019790930002809325
S1130250FF01892BD1F5809101028823F9F0809167
S1130260FD019091FE01009739F48FEF9FEF909379
S113027000028093FF0104C0909300028093FF0169
S1130280E0E8F0E080818F7E8083E9EFF1E0818116
S11302908093890080818093880011C0E9EFF1E0A8
S11302A08281938197838683A0E8B0E08C918061FA
S11302B08C93818180938900808180938800E9EF09
S11302C0F1E0908581E0892780878091EE0181119A
S11302D067C081E08093EE01C0E0D0E08C2F9E01E6
S11302E0FE01E151FE4F9081992309F452C0AE0101
S11302F0440F551FFA01EB50FE4F60817181FA01E2
S1130300EF50FE4F408151816417750729F4F901BC
S1130310E151FE4F10823DC0A901440F551FFA015F
S1130320EB50FE4F60817181FA01EF50FE4F408126
S11303305181641B750BAB0122F444275527461BDE
S1130340570B1416150614F441E050E0B901660F7A
S1130350771FFB01EB50FE4F0190F081E02DDB0194
S1130360AF50BE4F6D917C91E617F7071CF4519581
S113037041955109220F331FF901EF50FE4F20819F
S11303803181420F531F51834083608171810E94E8
S1130390DC002196C230D10509F0A0CF1092EE0105
S11303A0FF91EF91DF91CF91BF91AF919F918F9189
S11303B07F916F915F914F913F912F910F900FBE5D
S11303C00F901F9018951F920F920FB60F92112441
S11303D02F938F939F93EF93FF9380912A01882308
S11303E009F472C0809178002091790090E0922BFA
S11303F0E091290121E02E0F20932901F0E0EE0F76
S1130400FF1FE552FE4F91838083263009F04DC0D3
S113041020910302222309F468C0813322E0920769
S113042008F05EC062C080910302882309F443C0CF
S1130430E9EFF1E0128611861086E0E8F0E0108220
S11304401092810080818F7E80832FC08033924000
S113045008F450C030C08091030281112CC0E9EF30
S1130460F1E081E08287108688EE93E093838283B3
S113047084EF91E09583848380819181892BD9F0E5
S113048081E08187808788EE93E0978386838AE082
S1130490809381008181809389008081809388008A
S11304A0E0E8F0E0808180618083809129018730D9
S11304B011F410922901E0912901F0E0E15EFE4F70
S11304C08081806480937C0090912A0181E0892757
S11304D080932A01EAE7F0E08081806480830FC082
S11304E08091040281119FCFE6CF20910302211154
S11304F0E2CFACCF809104028111ADCFDCCFFF916C
S1130500EF919F918F912F910F900FBE0F901F909D
S1130510189520E030E040E054E0C901880F991FAD
S1130520FC01E953FE4F11821082FC01EF52FE4F91
S1130530518340832F5F3F4F2530310571F7089574
S1130540AF92BF92DF92EF92FF920F931F93CF93DC
S1130550DF93CDB7DEB764970FB6F894DEBF0FBE56
S1130560CDBFD12C7E011BE0E10EF11CCE01019622
S11305705C01DC01B70140E050E0F8949A01FA0113
S1130580EE0FFF1FE552FE4F80819181811594404B
S113059069F4FA01EE0FFF1FE552FE4F7894000054
S11305A0F8948081918181159440C1F3220F331F07
S11305B0F901E552FE4F8081918178940000DD209D
S11305C009F453C02D913C911197281739070CF465
S11305D048C0FB0120813181821793071CF4FB0181
S11305E0918380834F5F5F4F6E5F7F4F12964530DC
S11305F0510509F0C2CFD394FAE0DF12B3CF80E003
S113060090E09C01F701419151917F01FC01EE0FB3
S1130610FF1FE953FE4F60817181641775073CF435
S1130620FC01EE0FFF1FE953FE4F51834083F50198
S1130630419151915F01F901EE0FFF1FEF52FE4FFF
S113064060817181461757073CF4220F331FF9016B
S1130650EF52FE4F5183408301968530910589F610
S113066008C011969C938E93B4CF11969C938E934D
S1130670B6CF64960FB6F894DEBF0FBECDBFDF9140
S1130680CF911F910F91FF90EF90DF90BF90AF90AB
S113069008951F93CF93DF930E9489021CEEC8EE46
S11306A0D3E0183248F088E290E00E94CD0088ED53
S11306B09FEF0E94BE0008C088ED9FEF0E94CD000E
S11306C088E290E00E94BE000E94A00284E190E0D3
S11306D0FE016F9364E06A95F1F76F913197C9F762
S11306E00197B1F71F5F1C33E1F680E090E00E94B0
S11306F0CD0080E090E00E94BE00DF91CF911F9179
S113070008953F924F925F926F927F928F929F9241
S1130710AF92BF92CF92DF92EF92FF920F931F930B
S1130720CF93DF93582EC12CD12C7601C0E0D0E0BA
S1130730612C712C812C912C5401412C00E014E08B
S113074033243394F894BE01FE01EE0FFF1FE552EB
S1130750FE4F808191818115944069F4FE01EE0F72
S1130760FF1FE552FE4F78940000F8948081918138
S113077081159440C1F3CB01880F991FFC01E55208
S1130780FE4F2081318178940000FC01E953FE4F33
S113079040815181FC01EF52FE4F80819181481BC1
S11307A0590BA1F0660F771FFB01EF52FE4F8081BA
S11307B09181D901A81BB90B28EE33E00E94AE1237
S11307C09A01550F440B550B0E948012213084E08E
S11307D038070CF09801F901FF2314F4E0E0F0E08D
S11307E0552021F0C8018E1B9F0BFC01E93CF1054B
S11307F00CF0432CE333F1055CF0DF01A701960113
S11308000E94C012860E971EA81EB91E6E0E7F1E71
S1130810219694E0D90EE11CF11CC530D10509F0F4
S113082091CF41100AC08091270190912801811530
S1130830984084F080E090E10FC0930140E050E0E4
S1130840C501B4010E945E12C901309328012093AE
S1130850270102C080E090E0DF91CF911F910F91BA
S1130860FF90EF90DF90CF90BF90AF909F908F90CC
S11308707F906F905F904F903F9008958FE38093A7
S11308807E008FED80937A0010927B0080E4809349
S11308907C0088B18F6388B9EBEDF1E080E094E0EF
S11308A091838083938382839583848397838683D0
S11308B09187808793878287958784870E9489029E
S11308C008958F929F92BF92CF92DF92EF92FF9200
S11308D00F931F93CF93DF9300D000D0CDB7DEB733
S11308E080E8898380EC8A8384E98B8384ED8C831C
S11308F0FE01E20FF11D8181480FBAB057985A9852
S1130900289A24EC39E081E090E0FC016F9364E0E4
S11309106A95F1F76F913197C9F75C9AFC016F936F
S113092064E06A95F1F76F913197C9F759B15C9812
S1130930FC016F9364E06A95F1F76F913197C9F701
S11309405C9AFC016F9364E06A95F1F76F913197BB
S1130950C9F75C98552324F42150310909F0D5CF07
S1130960BAB834B125B1AAB15BB128985A9884B108
S1130970826384B9579A842F90E0959587959595CD
S11309808795959587959595879595B180FBCC240A
S1130990C0F8D12CCC0CDD1CF82FF670FF0FFF0F24
S11309A0FF0FCF2A9D7C9C2995B99BB188708295B5
S11309B0807F9F77892B8BB95C9A81E090E06C01F2
S11309C0FC016F9364E06A95F1F76F913197C9F771
S11309D05C98FC016F9364E06A95F1F76F9131972D
S11309E0C9F7F5B140FBEE24E0F8F12CEE0CFF1C46
S11309F0B42FB670FB2EFF0CFF0CFF0CEF28FD7C10
S1130A00EF2AE5B8FBB148704295407FFF774F2B42
S1130A104BB95C9AF6016F9364E06A95F1F76F91B4
S1130A203197C9F75C986F9364E06A95F1F76F9119
S1130A300197C9F7AAB95BB934B925B9DB015C914F
S1130A40552309F4A6C06F5F7F4F81E090E0FAB0B0
S1130A5057985A98289A24EC39E0FC016F9364E083
S1130A606A95F1F76F913197C9F75C9AFC016F931E
S1130A7064E06A95F1F76F913197C9F749B15C98D1
S1130A80FC016F9364E06A95F1F76F913197C9F7B0
S1130A905C9AFC016F9364E06A95F1F76F9131976A
S1130AA0C9F75C98442324F42150310909F0D5CFC7
S1130AB0FAB8F4B1E5B1EAB0FBB028985A9A24B177
S1130AC0226324B9579A252F30E03595279535951B
S1130AD02795359527953595279545B120FB88248D
S1130AE080F8912C6401CC0CDD1C322F3670330F4E
S1130AF0330F330F3C294D7C342B35B93BB128706F
S1130B002295207F3F77232B2BB95C9ADC016F93CE
S1130B1064E06A95F1F76F911197C9F75C98DC016D
S1130B206F9364E06A95F1F76F911197C9F735B146
S1130B30052F017010E06801CC0CDD1C252F2670F8
S1130B40220F220F220F2C293D7C232B25B92BB1F8
S1130B5058705295507F2F77522B5BB95C9ADC0109
S1130B606F9364E06A95F1F76F911197C9F75C98F8
S1130B70DC016F9364E06A95F1F76F911197C9F7FF
S1130B80EAB8FBB8F4B9E5B9FB015191BF015111C1
S1130B905ECF0F900F900F900F90DF91CF911F9128
S1130BA00F91FF90EF90DF90CF90BF909F908F9028
S1130BB008950F931F93CF93DF935AB157985A9880
S1130BC0289AA4ECB9E081E090E0FC016F9364E022
S1130BD06A95F1F76F913197C9F75C9AFC016F93AD
S1130BE064E06A95F1F76F913197C9F739B15C9870
S1130BF0FC016F9364E06A95F1F76F913197C9F73F
S1130C005C9AFC016F9364E06A95F1F76F913197F8
S1130C10C9F75C9833231CF4119709F0D6CF5AB95D
S1130C2054B135B1EAB17BB12898442311F05A9AF2
S1130C3001C05A9884B1826384B9579A213009F467
S1130C4033C0862F90E095958795959587959595D2
S1130C5087959595879595B1082F017010E0000F41
S1130C60111F282F2670220F220F220F022B9D7C8A
S1130C70092B05B99BB188708295807F9F77892B5A
S1130C808BB95C9A81E090E0DC016F9364E06A9533
S1130C90F1F76F911197C9F75C986F9364E06A95C7
S1130CA0F1F76F910197C9F785B1962F9170C92F0C
S1130CB090E0D92FCC0FDD1F962F9670990F990FC6
S1130CC0990FC92B8D7CC82BC5B98BB168706295FF
S1130CD0607F8F77682B6BB95C9A81E090E0DC01D0
S1130CE06F9364E06A95F1F76F911197C9F75C9877
S1130CF06F9364E06A95F1F76F910197C9F7EAB9C8
S1130D007BB954B935B9DF91CF911F910F910895F3
S1130D10529A209A549A8EE190E028EE33E0F90139
S1130D206F9364E06A95F1F76F913197C9F7019772
S1130D30B1F75AB157985A98289A24EC39E081E0CF
S1130D4090E0FC016F9364E06A95F1F76F9131973D
S1130D50C9F75C9AFC016F9364E06A95F1F76F91AF
S1130D603197C9F749B15C98FC016F9364E06A95C7
S1130D70F1F76F913197C9F75C9AFC016F9364E0C6
S1130D806A95F1F76F913197C9F75C98442324F47D
S1130D902150310909F0D5CF5AB934B125B15AB12E
S1130DA04BB128985A9884B1826384B9579A85B113
S1130DB08D7C826185B95F985C9A81E090E0FC014A
S1130DC06F9364E06A95F1F76F913197C9F75C9876
S1130DD06F9364E06A95F1F76F910197C9F75AB977
S1130DE04BB934B925B986E090E028EE33E0F90137
S1130DF06F9364E06A95F1F76F913197C9F70197A2
S1130E00B1F75AB157985A98289A24EC39E081E0FE
S1130E1090E0FC016F9364E06A95F1F76F9131976C
S1130E20C9F75C9AFC016F9364E06A95F1F76F91DE
S1130E303197C9F749B15C98FC016F9364E06A95F6
S1130E40F1F76F913197C9F75C9AFC016F9364E0F5
S1130E506A95F1F76F913197C9F75C98442324F4AC
S1130E602150310909F0D5CF5AB934B125B15AB15D
S1130E704BB128985A9884B1826384B9579A85B142
S1130E808D7C826185B95F985C9A81E090E0FC0179
S1130E906F9364E06A95F1F76F913197C9F75C98A5
S1130EA06F9364E06A95F1F76F910197C9F75AB9A6
S1130EB04BB934B925B988EE93E0FC016F9364E033
S1130EC06A95F1F76F913197C9F76F9364E06A956A
S1130ED0F1F76F910197C9F75AB157985A98289A20
S1130EE024EC39E081E090E0FC016F9364E06A95C2
S1130EF0F1F76F913197C9F75C9AFC016F9364E045
S1130F006A95F1F76F913197C9F749B15C98FC0183
S1130F106F9364E06A95F1F76F913197C9F75C9A22
S1130F20FC016F9364E06A95F1F76F913197C9F70B
S1130F305C98442324F42150310909F0D5CF5AB9DF
S1130F4034B125B15AB14BB128985A9884B182630F
S1130F5084B9579A85B18D7C826185B95F985C9A12
S1130F6081E090E0FC016F9364E06A95F1F76F9182
S1130F703197C9F75C986F9364E06A95F1F76F91C4
S1130F800197C9F75AB94BB934B925B988EE93E03A
S1130F90FC016F9364E06A95F1F76F913197C9F79B
S1130FA06F9364E06A95F1F76F910197C9F75AB1AD
S1130FB057985A98289A24EC39E081E090E0FC0193
S1130FC06F9364E06A95F1F76F913197C9F75C9A72
S1130FD0FC016F9364E06A95F1F76F913197C9F75B
S1130FE049B15C98FC016F9364E06A95F1F76F91E5
S1130FF03197C9F75C9AFC016F9364E06A95F1F745
S11310006F913197C9F75C98442324F42150310936
S113101009F0D5CF5AB934B125B15AB14BB128989A
S11310205A9884B1826384B9579A85B18D7C806162
S113103085B95F985C9A81E090E0FC016F9364E06D
S11310406A95F1F76F913197C9F75C986F9364E0F3
S11310506A95F1F76F910197C9F75AB94BB934B949
S113106025B988EE93E0FC016F9364E06A95F1F78B
S11310706F913197C9F76F9364E06A95F1F76F91B7
S11310800197C9F75AB157985A98289A24EC39E02D
S113109081E090E0FC016F9364E06A95F1F76F9151
S11310A03197C9F75C9AFC016F9364E06A95F1F794
S11310B06F913197C9F749B15C98FC016F9364E073
S11310C06A95F1F76F913197C9F75C9AFC016F93B8
S11310D064E06A95F1F76F913197C9F75C984423FE
S11310E024F42150310909F0D5CF5AB944B135B1AE
S11310F06AB15BB128985A9884B1826384B9579ACB
S113110085B18D7C806185B95F985C9A81E090E0BF
S1131110FC016F9364E06A95F1F76F913197C9F719
S11311205C98FC016F9364E06A95F1F76F913197D5
S1131130C9F725B12D7C25B95F9A5C9AFC016F93A0
S113114064E06A95F1F76F913197C9F75C986F93F2
S113115064E06A95F1F76F910197C9F76AB95BB9D1
S113116044B935B95AB157985A98289A24EC39E0B9
S113117081E090E0FC016F9364E06A95F1F76F9170
S11311803197C9F75C9AFC016F9364E06A95F1F7B3
S11311906F913197C9F749B15C98FC016F9364E092
S11311A06A95F1F76F913197C9F75C9AFC016F93D7
S11311B064E06A95F1F76F913197C9F75C9844231D
S11311C024F42150310909F0D5CF5AB944B135B1CD
S11311D06AB15BB128985A9884B1826384B9579AEA
S11311E085B18D7C85B95F985C9A81E090E0FC01C3
S11311F06F9364E06A95F1F76F913197C9F75C9842
S1131200FC016F9364E06A95F1F76F913197C9F728
S113121025B12D7C25B95F9A5C9AFC016F9364E03B
S11312206A95F1F76F913197C9F75C986F9364E011
S11312306A95F1F76F910197C9F76AB95BB944B937
S113124035B95AB157985A98289A24EC39E081E074
S113125090E0FC016F9364E06A95F1F76F91319728
S1131260C9F75C9AFC016F9364E06A95F1F76F919A
S11312703197C9F749B15C98FC016F9364E06A95B2
S1131280F1F76F913197C9F75C9AFC016F9364E0B1
S11312906A95F1F76F913197C9F75C98442324F468
S11312A02150310909F0D5CF5AB944B135B16AB1E9
S11312B05BB128985A9884B1826384B9579A85B1EE
S11312C08D7C85B95F985C9A81E090E0FC016F9316
S11312D064E06A95F1F76F913197C9F75C98FC0166
S11312E06F9364E06A95F1F76F913197C9F725B16F
S11312F02D7C226025B95F985C9AFC016F9364E0B1
S11313006A95F1F76F913197C9F75C986F9364E030
S11313106A95F1F76F910197C9F76AB95BB944B956
S113132035B95AB157985A98289A24EC39E081E093
S113133090E0FC016F9364E06A95F1F76F91319747
S1131340C9F75C9AFC016F9364E06A95F1F76F91B9
S11313503197C9F749B15C98FC016F9364E06A95D1
S1131360F1F76F913197C9F75C9AFC016F9364E0D0
S11313706A95F1F76F913197C9F75C98442324F487
S11313802150310909F0D5CF5AB944B135B16AB108
S11313905BB128985A9884B1826384B9579A85B10D
S11313A08D7C85B95F985C9A81E090E0FC016F9335
S11313B064E06A95F1F76F913197C9F75C98FC0185
S11313C06F9364E06A95F1F76F913197C9F725B18E
S11313D02D7C206325B95F985C9AFC016F9364E0CF
S11313E06A95F1F76F913197C9F75C986F9364E050
S11313F06A95F1F76F910197C9F76AB95BB944B976
S113140035B95AB157985A98289A24EC39E081E0B2
S113141090E0FC016F9364E06A95F1F76F91319766
S1131420C9F75C9AFC016F9364E06A95F1F76F91D8
S11314303197C9F749B15C98FC016F9364E06A95F0
S1131440F1F76F913197C9F75C9AFC016F9364E0EF
S11314506A95F1F76F913197C9F75C98442324F4A6
S11314602150310909F0D5CF5AB944B135B16AB127
S11314705BB128985A9884B1826384B9579A85B12C
S11314808D7C85B95F985C9A81E090E0FC016F9354
S113149064E06A95F1F76F913197C9F75C98FC01A4
S11314A06F9364E06A95F1F76F913197C9F725B1AD
S11314B02D7C206225B95F9A5C9AFC016F9364E0ED
S11314C06A95F1F76F913197C9F75C986F9364E06F
S11314D06A95F1F76F910197C9F76AB95BB944B995
S11314E035B908951F920F920FB60F9211242F93BE
S11314F03F934F935F936F937F938F939F93AF9398
S1131500BF93EF93FF939091C60080912601E82F3B
S1131510F0E0E55EFE4F2081921316C08F5F80934A
S11315202601843099F40E94850022E040E061E0C5
S113153086EC91E00E94D905F894E0E6F0E088E1B9
S1131540808388E08083FFCF10922601E0916301BD
S113155081E08E0F803209F480E020916201281727
S113156031F0F0E0EE5BFE4F908380936301FF91D6
S1131570EF91BF91AF919F918F917F916F915F9107
S11315804F913F912F910F900FBE0F901F90189580
S11315901F920F920FB60F9211248F939F93AF93C4
S11315A0BF93EF93FF939091C4018091C501981765
S11315B089F0A4ECB1E0EC91F0E0EE5BFE4F92A177
S11315C08C918F5F803609F480E08093C4019093FE
S11315D0C60005C0E1ECF0E080818F7D8083FF913F
S11315E0EF91BF91AF919F918F910F900FBE0F908C
S11315F01F90189584B18D7C84B985B1826385B9B7
S1131600089548EE53E093B19823E9F725E030E0DC
S1131610FA016F9364E06A95F1F76F913197C9F716
S113162021503109A9F793B1982369F722E330E0F7
S113163048EE53E0FA016F9364E06A95F1F76F9115
S11316403197C9F721503109A9F748EE53E093B116
S11316509823E9F325E030E0FA016F9364E06A959A
S1131660F1F76F913197C9F721503109A9F793B177
S1131670982369F308950E945F000E9469000E9404
S11316803E040E94880682E08093C00086E0809336
S1131690C2001092C50085E18093C40088E980935C
S11316A0C1000E94FA0A08958F929F92AF92BF924E
S11316B0CF92DF92EF92FF920F931F93CF93DF931A
S11316C088E290E00E94CD0088E290E00E94BE0093
S11316D00F2EF0E2CF2EF3E0DF2EF02DCBEDD1E094
S11316E00F2EF7ECEF2EF1E0FF2EF02D01ED11E0BF
S11316F0A12C6894BB24B2F8812C912CF894888195
S113170099818115944041F478940000F89488817B
S1131710998181159440C1F328813981789400001E
S1131720F70140815181F80180819181481B590B57
S113173079F080819181D901A81BB90B28EE33E09F
S11317400E94AE129A01550F440B550B0E94801251
S11317502130F4E03F0714F02A2D3B2D332314F4F9
S1131760282D392D30933D0120933C01F8948A8132
S11317709B818115944041F478940000F8948A8107
S11317809B8181159440C1F32A813B8178940000A8
S1131790F70142815381F80182819381481B590BDF
S11317A079F082819381D901A81BB90B28EE33E02B
S11317B00E94AE129A01550F440B550B0E948012E1
S11317C02130F4E03F0714F02A2D3B2D332314F489
S11317D0282D392D30933B0120933A01F8948C81C4
S11317E09D818115944041F478940000F8948C8193
S11317F09D8181159440C1F32C813D817894000032
S1131800F70144815581F80184819581481B590B66
S113181079F084819581D901A81BB90B28EE33E0B6
S11318200E94AE129A01550F440B550B0E94801270
S11318302130F4E03F0714F02A2D3B2D332314F418
S1131840282D392D3093390120933801F8948E8155
S11318509F818115944041F478940000F8948E811E
S11318609F8181159440C1F32E813F8178940000BB
S1131870F70146815781F80186819781481B590BEE
S113188079F086819781D901A81BB90B28EE33E042
S11318900E94AE129A01550F440B550B0E94801200
S11318A02130F4E03F0714F02A2D3B2D332314F4A8
S11318B0282D392D3093370120933601F8948885EB
S11318C099858115944041F478940000F8948885B2
S11318D0998581159440C1F3288539857894000051
S11318E0F70140855185F80180859185481B590B86
S11318F079F080859185D901A81BB90B28EE33E0D6
S11319000E94AE129A01550F440B550B0E9480128F
S11319102130F4E03F0714F02A2D3B2D332314F437
S1131920282D392D309335012093340140913C0109
S113193050913D0180913A0190913B01840F951F94
S11319404091380150913901840F951F409136011F
S113195050913701840F951F280F391F309333019D
S1131960209332011092000180E00E948103909341
S11319702D0180932C018091320190913301409785
S113198024F081E080932B0105C021E0C21AD10824
S113199009F0B4CEDF91CF911F910F91FF90EF909A
S11319A0DF90CF90BF90AF909F908F900895AF92AB
S11319B0BF92CF92DF92EF92FF920F931F93CF9338
S11319C0DF93CDB7DEB7A0970FB6F894DEBF0FBE96
S11319D0CDBF6B0180E8898380EC8A8384E98B83A3
S11319E084ED8C83FE01E20FF11D8181480F6AB101
S11319F057985A98289A24EC39E081E090E0FC0149
S1131A006F9364E06A95F1F76F913197C9F75C9A27
S1131A10FC016F9364E06A95F1F76F913197C9F710
S1131A2059B15C98FC016F9364E06A95F1F76F918A
S1131A303197C9F75C9AFC016F9364E06A95F1F7FA
S1131A406F913197C9F75C98552324F421503109DB
S1131A5009F0D5CF6AB934B125B16AB15BB1289820
S1131A605A9884B1826384B9579A842F90E09595EB
S1131A70879595958795959587959595879595B12E
S1131A8080FBAA24A0F8B12CAA0CBB1C782F76707A
S1131A90770F770F770FA72A9D7C9A2995B99BB169
S1131AA088708295807F9F77892B8BB95C9A81E0BF
S1131AB090E0FC016F9364E06A95F1F76F913197C0
S1131AC0C9F75C98FC016F9364E06A95F1F76F9134
S1131AD03197C9F775B1A42FA170B0E0AA0FBB1F4D
S1131AE0E42FE670EE0FEE0FEE0FAE2B7D7CA72BEE
S1131AF0A5B97BB148704295407F7F77472B4BB99E
S1131B005C9AFC016F9364E06A95F1F76F913197E9
S1131B10C9F75C986F9364E06A95F1F76F91019748
S1131B20C9F76AB95BB934B925B9C114D10429F12B
S1131B3040E09601ADECBCEC0E949F129C013695EE
S1131B402795369527953695279571E0740FE1E032
S1131B50F0E0EC0FFD1FE40FF11D40E34C0D822F6C
S1131B60880F982F990F990F980FC42EC91AC08205
S1131B706901472F232BE9F604C080E3898371E0D0
S1131B8003C0772309F4A9C081E090E0FE01E70FC8
S1131B90F11D50816AB157985A98289A24EC39E07B
S1131BA0FC016F9364E06A95F1F76F913197C9F77F
S1131BB05C9AFC016F9364E06A95F1F76F91319739
S1131BC0C9F749B15C98FC016F9364E06A95F1F739
S1131BD06F913197C9F75C9AFC016F9364E06A9541
S1131BE0F1F76F913197C9F75C98442324F421509D
S1131BF0310909F0D5CF6AB9E4B165B1BAB0FBB126
S1131C0028985A9A24B1226324B9579A252F30E090
S1131C1035952795359527953595279535952795A8
S1131C2045B1022F017010E06801CC0CDD1C322F8D
S1131C303670330F330F330F3C294D7C342B35B9B9
S1131C404BB1322F38703295307F242F2F77322BBF
S1131C503BB95C9ADC016F9364E06A95F1F76F918C
S1131C601197C9F75C98DC016F9364E06A95F1F70A
S1131C706F911197C9F735B150FBEE24E0F8F12CC0
S1131C806701CC0CDD1C252F2670220F220F220F9A
S1131C902C293D7C232B25B93BB1252F2870229577
S1131CA0207F3F77232B2BB95C9ADC016F9364E090
S1131CB06A95F1F76F911197C9F75C98DC016F93FE
S1131CC064E06A95F1F76F911197C9F7BAB8FBB957
S1131CD0E4B965B9715009F059CFA0960FB6F894DC
S1131CE0DEBF0FBECDBFDF91CF911F910F91FF904B
S1131CF0EF90DF90CF90BF90AF900895CF93DF9394
S1131D00CDB7DEB7A0970FB6F894DEBF0FBECDBF38
S1131D108091F9019091FA01892B21F1E9EFF1E029
S1131D2081E08187808782819381009739F48FEFE6
S1131D309FEF909300028093FF0104C090930002F0
S1131D408093FF018AE080938100E9EFF1E08181D3
S1131D5080938900808180938800E0E8F0E08081AE
S1131D608061808384E690E028EE33E0F9016F938C
S1131D7064E06A95F1F76F913197C9F70197B1F76C
S1131D80E9EFF1E011861086E0E8F0E010821092AD
S1131D90810080818F7E808320E041E062E071E0F9
S1131DA086EC91E00E94610421E040E068E071E08B
S1131DB086EC91E00E9461040E94490380E10E9444
S1131DC0010B22E040E061E086EC91E00E94D9053D
S1131DD0F8948091E5019091E6018115944051F4C5
S1131DE0EBEDF1E078940000F894828593858115F9
S1131DF09440C1F3A091E501B091E601789400000C
S1131E0028E833E10E94AE1261507E4F8F4F9F4FFE
S1131E102FEF33E040E050E00E945E12DA01C90186
S1131E20880F991FAA1FBB1F820F931FA41FB51FE2
S1131E300196A11DB11DBC01CD019695879577959D
S1131E40679520E042E086EC91E00E94D70C20E008
S1131E5046E061E171E086EC91E00E94610488EE65
S1131E6093E028EE33E0F9016F9364E06A95F1F7AB
S1131E706F913197C9F70197B1F722E040E061E033
S1131E8086EC91E00E94D90520E042E064E171E033
S1131E9086EC91E00E9461040BED11E00F2EF7EC4B
S1131EA08F2EF1E09F2EF02D0F2EF1EDAF2EF1E0ED
S1131EB0BF2EF02D0F2EF5ECEF2EF1E0FF2EF02DBE
S1131EC00F2EF4ECCF2EF1E0DF2EF02D0F2EFAE0E2
S1131ED02F2E312CF02D0F2EF1EC6F2E712CF02DB6
S1131EE010922B011092330110923201F894D80110
S1131EF08D919C918115944049F478940000F89454
S1131F00F8018081918181159440B9F3F801A08191
S1131F10B18178940000F40140815181F501808100
S1131F209181481B590B79F080819181A81BB90BD1
S1131F3028EE33E00E94AE129A01550F440B550B64
S1131F400E948012D9019D01A130B44014F020E018
S1131F5034E0332314F420E030E030933D01209347
S1131F603C01F894D80112968D919C911397811598
S1131F70944049F478940000F894F80182819381A4
S1131F8081159440B9F3F801A281B38178940000DB
S1131F90F40142815381F50182819381481B590BDD
S1131FA079F082819381A81BB90B28EE33E00E945B
S1131FB0AE129A01550F440B550B0E948012D901A1
S1131FC09D01A130B44014F020E034E0332314F434
S1131FD020E030E030933B0120933A01F894D8019B
S1131FE014968D919C9115978115944049F4789499
S1131FF00000F894F8018481958181159440B9F327
S1132000F801A481B58178940000F40144815581DC
S1132010F50184819581481B590B79F08481958160
S1132020A81BB90B28EE33E00E94AE129A01550F9B
S1132030440B550B0E948012D9019D01A130B4407C
S113204014F020E034E0332314F420E030E0309343
S1132050390120933801F894D80116968D919C91FA
S113206017978115944049F478940000F894F80186
S11320708681978181159440B9F3F801A681B781CF
S113208078940000F40146815781F5018681978197
S1132090481B590B79F086819781A81BB90B28EE50
S11320A033E00E94AE129A01550F440B550B0E9467
S11320B08012D9019D01A130B44014F020E034E035
S11320C0332314F420E030E03093370120933601B9
S11320D0F894D80118968D919C9119978115944084
S11320E049F478940000F894F8018085918581156D
S11320F09440B9F3F801A085B18578940000F40107
S113210040855185F50180859185481B590B79F0EF
S113211080859185A81BB90B28EE33E00E94AE128E
S11321209A01550F440B550B0E948012D9019D0151
S1132130A130B44014F020E034E0332314F420E060
S113214030E0309335012093340140913C015091AB
S11321503D0180913A0190913B01840F951F40917C
S1132160380150913901840F951F409136015091E7
S11321703701840F951F280F391F309333012093A3
S113218032011092000180E00E94810390932D019E
S113219080932C01E0913201F09133013097A9F141
S11321A09F01FF2324F4222733272E1B3F0B1216F3
S11321B013060CF006C140E0C901B1010E944A12A5
S11321C091E0940FA1E0B0E0AC0FBD1FA40FB11DCE
S11321D0362F330F832F880F880F830F205D281B22
S11321E02C93262F372F492F121613062CF3FF2377
S11321F084F401C090E0E1E0F0E0EC0FFD1FE90F92
S1132200F11D8DE280839F5F04C080E3898391E0A8
S113221003C0992309F4CCC030E0D701EC9181E0EC
S11322208E0F803609F4832FD6012C91281751F094
S1132230F0E0EE5BFE4FDE01A90FB11D2C9122A34D
S1132240F7018083915049F7B3C0F701408181E0E1
S1132250840F803609F4832FF6012081281739F082
S1132260E42FF0E0EE5BFE4F92A3F70180839D9193
S11322709111EBCFD3018C9180628C9380913201C8
S113228090913301843F91401CF40E94540B28CE5A
S113229080912C0190912D01805D97402091300117
S11322A030913101FC01E21BF30B9F01E0912E01FF
S11322B0F0912F01E80FF91FF0932F01E0932E0105
S11322C0909331018093300164E170E00E944A12DE
S11322D02B01CF0160E177E20E944A12640D751D63
S11322E02901440C551C240D351D332314F42F5F90
S11322F03F4F35952795620F731F6D33710514F0A9
S11323006CE370E0643CFFEF7F0714F464EC7FEF50
S113231077236CF4645C7F4F70933F0160933E01BC
S11323208CE390E090934101809340010CC08CE3D6
S113233090E090933F0180933E01861B970B90930E
S113234041018093400180912C0190912D018115D0
S113235024E0920774F44090400150904101809130
S11323603E0190913F010E94CD00C2010E94BE0037
S1132370B7CD81159C4074F44090400150904101C8
S113238080913E0190913F010E94CD00C2010E94C4
S1132390BE00A6CD409040015090410180913E0185
S11323A090913F010E94CD00C2010E94BE0098CDD1
S11323B0D3018C9180628C93A9E1B1E09AE030E082
S11323C044CFFF23ACF716CF0E943B0B78941999A6
S11323D049C0F8948091E5019091E60181159440FB
S11323E051F4EBEDF1E078940000F8948285938544
S11323F081159440C1F3A091E501B091E601789470
S1132400000028E833E10E94AE1261507E4F8F4FE6
S11324109F4F2FEF33E040E050E00E945E12A3E0B4
S1132420B0E00E94B512DC01CB010196A11DB11DE3
S1132430BC01CD01969587957795679520E044E09A
S113244086EC91E00E94D70C80ED97E028EE33E013
S1132450F9016F9364E06A95F1F76F913197C9F7C9
S11324600197B1F70E947E0EE9EFF1E01186138621
S1132470108684EC99E09183808315821482138200
S11324801282E2E4F1E010A211A21092C4011092AF
S1132490C501089597FB072E16F4009407D077FD25
S11324A009D00E94C81207FC05D03EF4909581958E
S11324B09F4F0895709561957F4F0895A1E21A2E5C
S11324C0AA1BBB1BFD010DC0AA1FBB1FEE1FFF1FD4
S11324D0A217B307E407F50720F0A21BB30BE40B24
S11324E0F50B661F771F881F991F1A9469F760956B
S11324F07095809590959B01AC01BD01CF01089525
S1132500052E97FB1EF400940E94971257FD07D0E6
S11325100E945E1207FC03D04EF40C94971250955F
S11325204095309521953F4F4F4F5F4F08959095BB
S11325308095709561957F4F8F4F9F4F0895A29F0F
S1132540B001B39FC001A39F700D811D1124911D83
S1132550B29F700D811D1124911D08950E949F1238
S1132560B7FF0895821B930B08950E949F12A59FA5
S1132570900DB49F900DA49F800D911D112408957A
S1132580B7FF0C94B5120E94B512821B930B0895E9
S1132590AA1BBB1B51E107C0AA1FBB1FA617B70785
S11325A010F0A61BB70B881F991F5A95A9F78095A1
S11325B09095BC01CD010895EE0FFF1F0590F49195
S10B25C0E02D0994F894FFCF0B
S11325C80101707265737300427574746F6E5F42B3
S11325D8006D5600676F21000A0A00747E7A330082
S10925E8010203040607D2
S9030000FC
