S01300006C696E65666F6C6F7765722E737265636B
S11300000C9435000C945D000C945D000C945D0020
S11300100C945D000C945D000C945D000C945D00E8
S11300200C945D000C945D000C945D000C945D00D8
S11300300C945D000C945D000C945D000C945D00C8
S11300400C94E6000C945D000C94720A0C94C80A9B
S11300500C945D000C94E3010C945D000C945D0021
S11300600C945D000C945D00941211241FBECFEF1C
S1130070D8E0DEBFCDBF11E0A0E0B1E0E8E8F6E2F1
S113008002C005900D92A832B107D9F722E0A8E288
S1130090B1E001C01D92A730B207E1F710E0C5E35B
S11300A0D0E004C02197FE010E943C13C433D10761
S11300B0C9F70E9444120C9442130C9400008AE085
S11300C08093810010928B0010928A00229A2A98C1
S11300D0089583EF8093B00084BD82E08093B100E3
S11300E085BD1092B4001092B30018BC17BCEEE6A4
S11300F0F0E08081816080838AB188668AB9239A1E
S11301005D985E985B982B98089514BC1092B0008B
S113011015BC1092B1000895992364F418BC91950C
S1130120819591098F3F910519F014F08FEF90E0BC
S113013087BD08958F3F910519F014F08FEF90E07B
S113014088BD17BC0895992374F41092B400919556
S1130150819591098F3F910519F014F08FEF90E08C
S11301608093B30008958F3F910519F014F08FEF39
S113017090E08093B4001092B30008959093FA0134
S11301808093F90120910301222321F081E08093DF
S1130190F20108950E94A30008959093F8018093BA
S11301A0F70120910301222321F081E08093F101E2
S11301B008950E948C000895882321F0CB010E94A9
S11301C0A3000895CB010E948C0008951F920F9202
S11301D00FB60F9211242F933F934F935F936F9316
S11301E07F938F939F93AF93BF93CF93DF93EF93BB
S11301F0FF938091EF018F5F8093EF018A3009F0C4
S1130200CFC01092EF018091EB019091EC01A0918D
S1130210ED01B091EE010196A11DB11D8093EB019A
S11302209093EC01A093ED01B093EE018091040250
S1130230882309F44AC080910102909102028F3F01
S11302402FEF920709F441C0019790930202809323
S11302500102892BD1F5809103028823F9F0809162
S1130260FF0190910002009739F48FEF9FEF909374
S113027002028093010204C090930202809301025F
S1130280E0E8F0E080818F7E8083EBEFF1E0818114
S11302908093890080818093880011C0EBEFF1E0A6
S11302A08281938197838683A0E8B0E08C918061FA
S11302B08C93818180938900808180938800EBEF07
S11302C0F1E0908581E0892780878091F001811198
S11302D067C081E08093F001C0E0D0E08C2F9E01E4
S11302E0FE01EF50FE4F9081992309F452C0AE01F4
S11302F0440F551FFA01E950FE4F60817181FA01E4
S1130300ED50FE4F408151816417750729F4F901BE
S1130310EF50FE4F10823DC0A901440F551FFA0152
S1130320E950FE4F60817181FA01ED50FE4F40812A
S11303305181641B750BAB0122F444275527461BDE
S1130340570B1416150614F441E050E0B901660F7A
S1130350771FFB01E950FE4F0190F081E02DDB0196
S1130360AD50BE4F6D917C91E617F7071CF4519583
S113037041955109220F331FF901ED50FE4F2081A1
S11303803181420F531F51834083608171810E94E8
S1130390DC002196C230D10509F0A0CF1092F00103
S11303A0FF91EF91DF91CF91BF91AF919F918F9189
S11303B07F916F915F914F913F912F910F900FBE5D
S11303C00F901F9018951F920F920FB60F92112441
S11303D02F938F939F93EF93FF9380912C01882306
S11303E009F472C0809178002091790090E0922BFA
S11303F0E0912B0121E02E0F20932B01F0E0EE0F72
S1130400FF1FE352FE4F91838083263009F04DC0D5
S113041020910502222309F468C0813322E0920767
S113042008F05EC062C080910502882309F443C0CD
S1130430EBEFF1E0128611861086E0E8F0E010821E
S11304401092810080818F7E80832FC08033924000
S113045008F450C030C08091050281112CC0EBEF2C
S1130460F1E081E08287108688EE93E093838283B3
S113047084EF91E09583848380819181892BD9F0E5
S113048081E08187808788EE93E0978386838AE082
S1130490809381008181809389008081809388008A
S11304A0E0E8F0E080818061808380912B018730D7
S11304B011F410922B01E0912B01F0E0EF5DFE4F5F
S11304C08081806480937C0090912C0181E0892755
S11304D080932C01EAE7F0E08081806480830FC080
S11304E08091060281119FCFE6CF20910502211150
S11304F0E2CFACCF809106028111ADCFDCCFFF916A
S1130500EF919F918F912F910F900FBE0F901F909D
S1130510189520E030E040E054E0C901880F991FAD
S1130520FC01E753FE4F11821082FC01ED52FE4F95
S1130530518340832F5F3F4F2530310571F7089574
S1130540AF92BF92DF92EF92FF920F931F93CF93DC
S1130550DF93CDB7DEB764970FB6F894DEBF0FBE56
S1130560CDBFD12C7E011BE0E10EF11CCE01019622
S11305705C01DC01B70140E050E0F8949A01FA0113
S1130580EE0FFF1FE352FE4F80819181811594404D
S113059069F4FA01EE0FFF1FE352FE4F7894000056
S11305A0F8948081918181159440C1F3220F331F07
S11305B0F901E352FE4F8081918178940000DD209F
S11305C009F453C02D913C911197281739070CF465
S11305D048C0FB0120813181821793071CF4FB0181
S11305E0918380834F5F5F4F6E5F7F4F12964530DC
S11305F0510509F0C2CFD394FAE0DF12B3CF80E003
S113060090E09C01F701419151917F01FC01EE0FB3
S1130610FF1FE753FE4F60817181641775073CF437
S1130620FC01EE0FFF1FE753FE4F51834083F5019A
S1130630419151915F01F901EE0FFF1FED52FE4F01
S113064060817181461757073CF4220F331FF9016B
S1130650ED52FE4F5183408301968530910589F612
S113066008C011969C938E93B4CF11969C938E934D
S1130670B6CF64960FB6F894DEBF0FBECDBFDF9140
S1130680CF911F910F91FF90EF90DF90BF90AF90AB
S113069008951F93CF93DF930E9489021CEEC8EE46
S11306A0D3E0183248F088E290E00E94CD0088ED53
S11306B09FEF0E94BE0008C088ED9FEF0E94CD000E
S11306C088E290E00E94BE000E94A00284E190E0D3
S11306D0FE016F9364E06A95F1F76F913197C9F762
S11306E00197B1F71F5F1C33E1F680E090E00E94B0
S11306F0CD0080E090E00E94BE00DF91CF911F9179
S113070008953F924F925F926F927F928F929F9241
S1130710AF92BF92CF92DF92EF92FF920F931F930B
S1130720CF93DF93582EC12CD12C7601C0E0D0E0BA
S1130730612C712C812C912C5401412C00E014E08B
S113074033243394F894BE01FE01EE0FFF1FE352ED
S1130750FE4F808191818115944069F4FE01EE0F72
S1130760FF1FE352FE4F78940000F894808191813A
S113077081159440C1F3CB01880F991FFC01E3520A
S1130780FE4F2081318178940000FC01E753FE4F35
S113079040815181FC01ED52FE4F80819181481BC3
S11307A0590BA1F0660F771FFB01ED52FE4F8081BC
S11307B09181D901A81BB90B28EE33E00E940E13D6
S11307C09A01550F440B550B0E94E012213084E02E
S11307D038070CF09801F901FF2314F4E0E0F0E08D
S11307E0552021F0C8018E1B9F0BFC01E93CF1054B
S11307F00CF0432CE333F1055CF0DF01A701960113
S11308000E942013860E971EA81EB91E6E0E7F1E10
S1130810219694E0D90EE11CF11CC530D10509F0F4
S113082091CF41100AC08091290190912A0181152C
S1130830984084F080E090E10FC0930140E050E0E4
S1130840C501B4010E94BE12C90130932A0120934C
S1130850290102C080E090E0DF91CF911F910F91B8
S1130860FF90EF90DF90CF90BF90AF909F908F90CC
S11308707F906F905F904F903F9008958FE38093A7
S11308807E008FED80937A0010927B0080E4809349
S11308907C0088B18F6388B9EDEDF1E080E094E0ED
S11308A091838083938382839583848397838683D0
S11308B09187808793878287958784870E9489029E
S11308C008958F929F92BF92CF92DF92EF92FF9200
S11308D00F931F93CF93DF9300D000D0CDB7DEB733
S11308E080E8898380EC8A8384E98B8384ED8C831C
S11308F0FE01E20FF11D8181480FBAB057985A9852
S1130900289A24EC39E081E090E0FC016F9364E0E4
S11309106A95F1F76F913197C9F75C9AFC016F936F
S113092064E06A95F1F76F913197C9F759B15C9812
S1130930FC016F9364E06A95F1F76F913197C9F701
S11309405C9AFC016F9364E06A95F1F76F913197BB
S1130950C9F75C98552324F42150310909F0D5CF07
S1130960BAB834B125B1AAB15BB128985A9884B108
S1130970826384B9579A842F90E0959587959595CD
S11309808795959587959595879595B180FBCC240A
S1130990C0F8D12CCC0CDD1CF82FF670FF0FFF0F24
S11309A0FF0FCF2A9D7C9C2995B99BB188708295B5
S11309B0807F9F77892B8BB95C9A81E090E06C01F2
S11309C0FC016F9364E06A95F1F76F913197C9F771
S11309D05C98FC016F9364E06A95F1F76F9131972D
S11309E0C9F7F5B140FBEE24E0F8F12CEE0CFF1C46
S11309F0B42FB670FB2EFF0CFF0CFF0CEF28FD7C10
S1130A00EF2AE5B8FBB148704295407FFF774F2B42
S1130A104BB95C9AF6016F9364E06A95F1F76F91B4
S1130A203197C9F75C986F9364E06A95F1F76F9119
S1130A300197C9F7AAB95BB934B925B9DB015C914F
S1130A40552309F4A6C06F5F7F4F81E090E0FAB0B0
S1130A5057985A98289A24EC39E0FC016F9364E083
S1130A606A95F1F76F913197C9F75C9AFC016F931E
S1130A7064E06A95F1F76F913197C9F749B15C98D1
S1130A80FC016F9364E06A95F1F76F913197C9F7B0
S1130A905C9AFC016F9364E06A95F1F76F9131976A
S1130AA0C9F75C98442324F42150310909F0D5CFC7
S1130AB0FAB8F4B1E5B1EAB0FBB028985A9A24B177
S1130AC0226324B9579A252F30E03595279535951B
S1130AD02795359527953595279545B120FB88248D
S1130AE080F8912C6401CC0CDD1C322F3670330F4E
S1130AF0330F330F3C294D7C342B35B93BB128706F
S1130B002295207F3F77232B2BB95C9ADC016F93CE
S1130B1064E06A95F1F76F911197C9F75C98DC016D
S1130B206F9364E06A95F1F76F911197C9F735B146
S1130B30052F017010E06801CC0CDD1C252F2670F8
S1130B40220F220F220F2C293D7C232B25B92BB1F8
S1130B5058705295507F2F77522B5BB95C9ADC0109
S1130B606F9364E06A95F1F76F911197C9F75C98F8
S1130B70DC016F9364E06A95F1F76F911197C9F7FF
S1130B80EAB8FBB8F4B9E5B9FB015191BF015111C1
S1130B905ECF0F900F900F900F90DF91CF911F9128
S1130BA00F91FF90EF90DF90CF90BF909F908F9028
S1130BB008950F931F93CF93DF935AB157985A9880
S1130BC0289AA4ECB9E081E090E0FC016F9364E022
S1130BD06A95F1F76F913197C9F75C9AFC016F93AD
S1130BE064E06A95F1F76F913197C9F739B15C9870
S1130BF0FC016F9364E06A95F1F76F913197C9F73F
S1130C005C9AFC016F9364E06A95F1F76F913197F8
S1130C10C9F75C9833231CF4119709F0D6CF5AB95D
S1130C2054B135B1EAB17BB12898442311F05A9AF2
S1130C3001C05A9884B1826384B9579A213009F467
S1130C4033C0862F90E095958795959587959595D2
S1130C5087959595879595B1082F017010E0000F41
S1130C60111F282F2670220F220F220F022B9D7C8A
S1130C70092B05B99BB188708295807F9F77892B5A
S1130C808BB95C9A81E090E0DC016F9364E06A9533
S1130C90F1F76F911197C9F75C986F9364E06A95C7
S1130CA0F1F76F910197C9F785B1962F9170C92F0C
S1130CB090E0D92FCC0FDD1F962F9670990F990FC6
S1130CC0990FC92B8D7CC82BC5B98BB168706295FF
S1130CD0607F8F77682B6BB95C9A81E090E0DC01D0
S1130CE06F9364E06A95F1F76F911197C9F75C9877
S1130CF06F9364E06A95F1F76F910197C9F7EAB9C8
S1130D007BB954B935B9DF91CF911F910F910895F3
S1130D10529A209A549A8EE190E028EE33E0F90139
S1130D206F9364E06A95F1F76F913197C9F7019772
S1130D30B1F75AB157985A98289A24EC39E081E0CF
S1130D4090E0FC016F9364E06A95F1F76F9131973D
S1130D50C9F75C9AFC016F9364E06A95F1F76F91AF
S1130D603197C9F749B15C98FC016F9364E06A95C7
S1130D70F1F76F913197C9F75C9AFC016F9364E0C6
S1130D806A95F1F76F913197C9F75C98442324F47D
S1130D902150310909F0D5CF5AB934B125B15AB12E
S1130DA04BB128985A9884B1826384B9579A85B113
S1130DB08D7C826185B95F985C9A81E090E0FC014A
S1130DC06F9364E06A95F1F76F913197C9F75C9876
S1130DD06F9364E06A95F1F76F910197C9F75AB977
S1130DE04BB934B925B986E090E028EE33E0F90137
S1130DF06F9364E06A95F1F76F913197C9F70197A2
S1130E00B1F75AB157985A98289A24EC39E081E0FE
S1130E1090E0FC016F9364E06A95F1F76F9131976C
S1130E20C9F75C9AFC016F9364E06A95F1F76F91DE
S1130E303197C9F749B15C98FC016F9364E06A95F6
S1130E40F1F76F913197C9F75C9AFC016F9364E0F5
S1130E506A95F1F76F913197C9F75C98442324F4AC
S1130E602150310909F0D5CF5AB934B125B15AB15D
S1130E704BB128985A9884B1826384B9579A85B142
S1130E808D7C826185B95F985C9A81E090E0FC0179
S1130E906F9364E06A95F1F76F913197C9F75C98A5
S1130EA06F9364E06A95F1F76F910197C9F75AB9A6
S1130EB04BB934B925B988EE93E0FC016F9364E033
S1130EC06A95F1F76F913197C9F76F9364E06A956A
S1130ED0F1F76F910197C9F75AB157985A98289A20
S1130EE024EC39E081E090E0FC016F9364E06A95C2
S1130EF0F1F76F913197C9F75C9AFC016F9364E045
S1130F006A95F1F76F913197C9F749B15C98FC0183
S1130F106F9364E06A95F1F76F913197C9F75C9A22
S1130F20FC016F9364E06A95F1F76F913197C9F70B
S1130F305C98442324F42150310909F0D5CF5AB9DF
S1130F4034B125B15AB14BB128985A9884B182630F
S1130F5084B9579A85B18D7C826185B95F985C9A12
S1130F6081E090E0FC016F9364E06A95F1F76F9182
S1130F703197C9F75C986F9364E06A95F1F76F91C4
S1130F800197C9F75AB94BB934B925B988EE93E03A
S1130F90FC016F9364E06A95F1F76F913197C9F79B
S1130FA06F9364E06A95F1F76F910197C9F75AB1AD
S1130FB057985A98289A24EC39E081E090E0FC0193
S1130FC06F9364E06A95F1F76F913197C9F75C9A72
S1130FD0FC016F9364E06A95F1F76F913197C9F75B
S1130FE049B15C98FC016F9364E06A95F1F76F91E5
S1130FF03197C9F75C9AFC016F9364E06A95F1F745
S11310006F913197C9F75C98442324F42150310936
S113101009F0D5CF5AB934B125B15AB14BB128989A
S11310205A9884B1826384B9579A85B18D7C806162
S113103085B95F985C9A81E090E0FC016F9364E06D
S11310406A95F1F76F913197C9F75C986F9364E0F3
S11310506A95F1F76F910197C9F75AB94BB934B949
S113106025B988EE93E0FC016F9364E06A95F1F78B
S11310706F913197C9F76F9364E06A95F1F76F91B7
S11310800197C9F75AB157985A98289A24EC39E02D
S113109081E090E0FC016F9364E06A95F1F76F9151
S11310A03197C9F75C9AFC016F9364E06A95F1F794
S11310B06F913197C9F749B15C98FC016F9364E073
S11310C06A95F1F76F913197C9F75C9AFC016F93B8
S11310D064E06A95F1F76F913197C9F75C984423FE
S11310E024F42150310909F0D5CF5AB944B135B1AE
S11310F06AB15BB128985A9884B1826384B9579ACB
S113110085B18D7C806185B95F985C9A81E090E0BF
S1131110FC016F9364E06A95F1F76F913197C9F719
S11311205C98FC016F9364E06A95F1F76F913197D5
S1131130C9F725B12D7C25B95F9A5C9AFC016F93A0
S113114064E06A95F1F76F913197C9F75C986F93F2
S113115064E06A95F1F76F910197C9F76AB95BB9D1
S113116044B935B95AB157985A98289A24EC39E0B9
S113117081E090E0FC016F9364E06A95F1F76F9170
S11311803197C9F75C9AFC016F9364E06A95F1F7B3
S11311906F913197C9F749B15C98FC016F9364E092
S11311A06A95F1F76F913197C9F75C9AFC016F93D7
S11311B064E06A95F1F76F913197C9F75C9844231D
S11311C024F42150310909F0D5CF5AB944B135B1CD
S11311D06AB15BB128985A9884B1826384B9579AEA
S11311E085B18D7C85B95F985C9A81E090E0FC01C3
S11311F06F9364E06A95F1F76F913197C9F75C9842
S1131200FC016F9364E06A95F1F76F913197C9F728
S113121025B12D7C25B95F9A5C9AFC016F9364E03B
S11312206A95F1F76F913197C9F75C986F9364E011
S11312306A95F1F76F910197C9F76AB95BB944B937
S113124035B95AB157985A98289A24EC39E081E074
S113125090E0FC016F9364E06A95F1F76F91319728
S1131260C9F75C9AFC016F9364E06A95F1F76F919A
S11312703197C9F749B15C98FC016F9364E06A95B2
S1131280F1F76F913197C9F75C9AFC016F9364E0B1
S11312906A95F1F76F913197C9F75C98442324F468
S11312A02150310909F0D5CF5AB944B135B16AB1E9
S11312B05BB128985A9884B1826384B9579A85B1EE
S11312C08D7C85B95F985C9A81E090E0FC016F9316
S11312D064E06A95F1F76F913197C9F75C98FC0166
S11312E06F9364E06A95F1F76F913197C9F725B16F
S11312F02D7C226025B95F985C9AFC016F9364E0B1
S11313006A95F1F76F913197C9F75C986F9364E030
S11313106A95F1F76F910197C9F76AB95BB944B956
S113132035B95AB157985A98289A24EC39E081E093
S113133090E0FC016F9364E06A95F1F76F91319747
S1131340C9F75C9AFC016F9364E06A95F1F76F91B9
S11313503197C9F749B15C98FC016F9364E06A95D1
S1131360F1F76F913197C9F75C9AFC016F9364E0D0
S11313706A95F1F76F913197C9F75C98442324F487
S11313802150310909F0D5CF5AB944B135B16AB108
S11313905BB128985A9884B1826384B9579A85B10D
S11313A08D7C85B95F985C9A81E090E0FC016F9335
S11313B064E06A95F1F76F913197C9F75C98FC0185
S11313C06F9364E06A95F1F76F913197C9F725B18E
S11313D02D7C206325B95F985C9AFC016F9364E0CF
S11313E06A95F1F76F913197C9F75C986F9364E050
S11313F06A95F1F76F910197C9F76AB95BB944B976
S113140035B95AB157985A98289A24EC39E081E0B2
S113141090E0FC016F9364E06A95F1F76F91319766
S1131420C9F75C9AFC016F9364E06A95F1F76F91D8
S11314303197C9F749B15C98FC016F9364E06A95F0
S1131440F1F76F913197C9F75C9AFC016F9364E0EF
S11314506A95F1F76F913197C9F75C98442324F4A6
S11314602150310909F0D5CF5AB944B135B16AB127
S11314705BB128985A9884B1826384B9579A85B12C
S11314808D7C85B95F985C9A81E090E0FC016F9354
S113149064E06A95F1F76F913197C9F75C98FC01A4
S11314A06F9364E06A95F1F76F913197C9F725B1AD
S11314B02D7C206225B95F9A5C9AFC016F9364E0ED
S11314C06A95F1F76F913197C9F75C986F9364E06F
S11314D06A95F1F76F910197C9F76AB95BB944B995
S11314E035B908951F920F920FB60F9211242F93BE
S11314F03F934F935F936F937F938F939F93AF9398
S1131500BF93EF93FF939091C60080912801E82F39
S1131510F0E0E35EFE4F2081921316C08F5F80934C
S11315202801843099F40E94850022E040E061E0C3
S113153088EC91E00E94D905F894E0E6F0E088E1B7
S1131540808388E08083FFCF10922801E0916501B9
S113155081E08E0F803209F480E020916401281725
S113156031F0F0E0EC5BFE4F908380936501FF91D6
S1131570EF91BF91AF919F918F917F916F915F9107
S11315804F913F912F910F900FBE0F901F90189580
S11315901F920F920FB60F9211248F939F93AF93C4
S11315A0BF93EF93FF939091C6018091C701981761
S11315B089F0A6ECB1E0EC91F0E0EC5BFE4F92A177
S11315C08C918F5F803609F480E08093C6019093FC
S11315D0C60005C0E1ECF0E080818F7D8083FF913F
S11315E0EF91BF91AF919F918F910F900FBE0F908C
S11315F01F90189584B18D7C84B985B1826385B9B7
S1131600089548EE53E093B19823E9F725E030E0DC
S1131610FA016F9364E06A95F1F76F913197C9F716
S113162021503109A9F793B1982369F722E330E0F7
S113163048EE53E0FA016F9364E06A95F1F76F9115
S11316403197C9F721503109A9F748EE53E093B116
S11316509823E9F325E030E0FA016F9364E06A959A
S1131660F1F76F913197C9F721503109A9F793B177
S1131670982369F308950E945F000E9469000E9404
S11316803E040E94880682E08093C00086E0809336
S1131690C2001092C50085E18093C40088E980935C
S11316A0C1000E94FA0A08958F929F92AF92BF924E
S11316B0CF92DF92EF92FF920F931F93CF93DF931A
S11316C08091010190910201181619060CF06DC168
S11316D080912D01811169C1C12CD12CCDEDD1E0B6
S11316E00F2EF9ECEF2EF1E0FF2EF02D03ED11E0BB
S11316F0A12C6894BB24B2F8812C912C04C0809155
S11317002D01811152C1F8948881998181159440E9
S113171041F478940000F89488819981811594406B
S1131720C1F32881398178940000F7014081518107
S1131730F80180819181481B590B79F08081918156
S1131740D901A81BB90B28EE33E00E940E139A01AD
S1131750550F440B550B0E94E0122130F4E03F0773
S113176014F02A2D3B2D332314F4282D392D3093D6
S11317703F0120933E01F8948A819B818115944016
S113178041F478940000F8948A819B8181159440F7
S1131790C1F32A813B8178940000F701428153818F
S11317A0F80182819381481B590B79F082819381DE
S11317B0D901A81BB90B28EE33E00E940E139A013D
S11317C0550F440B550B0E94E0122130F4E03F0703
S11317D014F02A2D3B2D332314F4282D392D309366
S11317E03D0120933C01F8948C819D8181159440A6
S11317F041F478940000F8948C819D818115944083
S1131800C1F32C813D8178940000F7014481558116
S1131810F80184819581481B590B79F08481958165
S1131820D901A81BB90B28EE33E00E940E139A01CC
S1131830550F440B550B0E94E0122130F4E03F0792
S113184014F02A2D3B2D332314F4282D392D3093F5
S11318503B0120933A01F8948E819F818115944035
S113186041F478940000F8948E819F81811594400E
S1131870C1F32E813F8178940000F701468157819E
S1131880F80186819781481B590B79F086819781ED
S1131890D901A81BB90B28EE33E00E940E139A015C
S11318A0550F440B550B0E94E0122130F4E03F0722
S11318B014F02A2D3B2D332314F4282D392D309385
S11318C0390120933801F8948885998581159440CD
S11318D041F478940000F8948885998581159440A2
S11318E0C1F32885398578940000F7014085518536
S11318F0F80180859185481B590B79F08085918585
S1131900D901A81BB90B28EE33E00E940E139A01EB
S1131910550F440B550B0E94E0122130F4E03F07B1
S113192014F02A2D3B2D332314F4282D392D309314
S113193037012093360140913E0150913F0180913F
S11319403C0190913D01840F951F40913A015091C3
S11319503B01840F951F4091380150913901840F48
S1131960951F280F391F30933501209334011092AD
S1131970000180E00E94810390932F0180932E0147
S11319808091340190913501409724F081E0809357
S11319902D010BC02FEFC21AD20A80910101909140
S11319A00201C816D9060CF4AACEDF91CF911F917B
S11319B00F91FF90EF90DF90CF90BF90AF909F90EA
S11319C08F900895CF93DF9382E390E00E94CD003F
S11319D082E390E00E94BE000E94540BC4E0D0E079
S11319E08EEC9FEF0E94CD008EEC9FEF0E94BE0014
S11319F00E94540B88E290E00E94CD008AE090E0BF
S1131A000E94BE000E94540B88ED9FEF0E94CD00FF
S1131A1086EF9FEF0E94BE000E94540B8AE090E084
S1131A200E94CD0088E290E00E94BE000E94540B08
S1131A3086EF9FEF0E94CD0088ED9FEF0E94BE00CD
S1131A400E94540B80910101909102018C509E4F91
S1131A509093020180930101219711F6DF91CF91B8
S1131A600895AF92BF92CF92DF92EF92FF920F93BD
S1131A701F93CF93DF93CDB7DEB7A0970FB6F8943B
S1131A80DEBF0FBECDBF6B0180E8898380EC8A8303
S1131A9084E98B8384ED8C83FE01E20FF11D818147
S1131AA0480F6AB157985A98289A24EC39E081E093
S1131AB090E0FC016F9364E06A95F1F76F913197C0
S1131AC0C9F75C9AFC016F9364E06A95F1F76F9132
S1131AD03197C9F759B15C98FC016F9364E06A953A
S1131AE0F1F76F913197C9F75C9AFC016F9364E049
S1131AF06A95F1F76F913197C9F75C98552324F4EF
S1131B002150310909F0D5CF6AB934B125B16AB190
S1131B105BB128985A9884B1826384B9579A842F08
S1131B2090E0959587959595879595958795959545
S1131B30879595B180FBAA24A0F8B12CAA0CBB1CF4
S1131B40782F7670770F770F770FA72A9D7C9A29C5
S1131B5095B99BB188708295807F9F77892B8BB9CB
S1131B605C9A81E090E0FC016F9364E06A95F1F780
S1131B706F913197C9F75C98FC016F9364E06A95A3
S1131B80F1F76F913197C9F775B1A42FA170B0E047
S1131B90AA0FBB1FE42FE670EE0FEE0FEE0FAE2B75
S1131BA07D7CA72BA5B97BB148704295407F7F7798
S1131BB0472B4BB95C9AFC016F9364E06A95F1F78B
S1131BC06F913197C9F75C986F9364E06A95F1F768
S1131BD06F910197C9F76AB95BB934B925B9C114D2
S1131BE0D10429F140E09601ADECBCEC0E94FF1257
S1131BF09C0136952795369527953695279571E05E
S1131C00740FE1E0F0E0EC0FFD1FE40FF11D40E381
S1131C104C0D822F880F982F990F990F980FC42E6F
S1131C20C91AC0826901472F232BE9F604C080E357
S1131C30898371E003C0772309F4A9C081E090E0AF
S1131C40FE01E70FF11D50816AB157985A98289AFE
S1131C5024EC39E0FC016F9364E06A95F1F76F912D
S1131C603197C9F75C9AFC016F9364E06A95F1F7C8
S1131C706F913197C9F749B15C98FC016F9364E0A7
S1131C806A95F1F76F913197C9F75C9AFC016F93EC
S1131C9064E06A95F1F76F913197C9F75C98442332
S1131CA024F42150310909F0D5CF6AB9E4B165B102
S1131CB0BAB0FBB128985A9A24B1226324B9579A2E
S1131CC0252F30E03595279535952795359527951A
S1131CD03595279545B1022F017010E06801CC0CB1
S1131CE0DD1C322F3670330F330F330F3C294D7CFC
S1131CF0342B35B94BB1322F38703295307F242FC5
S1131D002F77322B3BB95C9ADC016F9364E06A95C0
S1131D10F1F76F911197C9F75C98DC016F9364E058
S1131D206A95F1F76F911197C9F735B150FBEE241D
S1131D30E0F8F12C6701CC0CDD1C252F2670220F56
S1131D40220F220F2C293D7C232B25B93BB1252FB3
S1131D5028702295207F3F77232B2BB95C9ADC01D6
S1131D606F9364E06A95F1F76F911197C9F75C98E6
S1131D70DC016F9364E06A95F1F76F911197C9F7ED
S1131D80BAB8FBB9E4B965B9715009F059CFA09656
S1131D900FB6F894DEBF0FBECDBFDF91CF911F9178
S1131DA00F91FF90EF90DF90CF90BF90AF90089588
S1131DB0CF93DF93CDB7DEB7A0970FB6F894DEBF0D
S1131DC00FBECDBF8091FB019091FC01892B21F1C5
S1131DD0EBEFF1E081E08187808782819381009736
S1131DE039F48FEF9FEF909302028093010204C0B5
S1131DF090930202809301028AE080938100EBEFCA
S1131E00F1E0818180938900808180938800E0E8FB
S1131E10F0E080818061808384E690E028EE33E006
S1131E20F9016F9364E06A95F1F76F913197C9F7FF
S1131E300197B1F7EBEFF1E011861086E0E8F0E0EE
S1131E4010821092810080818F7E808320E041E0A7
S1131E5064E071E088EC91E00E94610421E040E0DC
S1131E606AE071E088EC91E00E9461040E944903F9
S1131E7080E10E94010B22E040E061E088EC91E007
S1131E800E94D905F8948091E7019091E8018115A9
S1131E90944051F4EDEDF1E078940000F8948285DB
S1131EA0938581159440C1F3A091E701B091E801B5
S1131EB07894000028E833E10E940E1361507E4FAD
S1131EC08F4F9F4F2FEF33E040E050E00E94BE124F
S1131ED0DA01C901880F991FAA1FBB1F820F931F24
S1131EE0A41FB51F0196A11DB11DBC01CD0196957E
S1131EF087957795679520E042E088EC91E00E9411
S1131F00310D20E046E063E171E088EC91E00E944D
S1131F10610488EE93E028EE33E0F9016F9364E006
S1131F206A95F1F76F913197C9F70197B1F722E0FC
S1131F3040E061E088EC91E00E94D90520E043E0B4
S1131F4066E171E088EC91E00E9461040DED11E01E
S1131F500F2EF9EC8F2EF1E09F2EF02D0F2EF3EDC6
S1131F60AF2EF1E0BF2EF02D0F2EF7ECEF2EF1E0A7
S1131F70FF2EF02D0F2EF6ECCF2EF1E0DF2EF02DFC
S1131F800F2EFAE02F2E312CF02D0F2EF1EC6F2EA8
S1131F90712CF02D88EE93E090930201809301015F
S1131FA010922D011092350110923401F894D80149
S1131FB08D919C918115944049F478940000F89493
S1131FC0F8018081918181159440B9F3F801A081D1
S1131FD0B18178940000F40140815181F501808140
S1131FE09181481B590B79F080819181A81BB90B11
S1131FF028EE33E00E940E139A01550F440B550B43
S11320000E94E012D9019D01A130B44014F020E0F7
S113201034E0332314F420E030E030933F01209384
S11320203E01F894D80112968D919C9113978115D5
S1132030944049F478940000F894F80182819381E3
S113204081159440B9F3F801A281B381789400001A
S1132050F40142815381F50182819381481B590B1C
S113206079F082819381A81BB90B28EE33E00E949A
S11320700E139A01550F440B550B0E94E012D9011F
S11320809D01A130B44014F020E034E0332314F473
S113209020E030E030933D0120933C01F894D801D6
S11320A014968D919C9115978115944049F47894D8
S11320B00000F894F8018481958181159440B9F366
S11320C0F801A481B58178940000F401448155811C
S11320D0F50184819581481B590B79F084819581A0
S11320E0A81BB90B28EE33E00E940E139A01550F7A
S11320F0440B550B0E94E012D9019D01A130B4405C
S113210014F020E034E0332314F420E030E0309382
S11321103B0120933A01F894D80116968D919C9135
S113212017978115944049F478940000F894F801C5
S11321308681978181159440B9F3F801A681B7810E
S113214078940000F40146815781F50186819781D6
S1132150481B590B79F086819781A81BB90B28EE8F
S113216033E00E940E139A01550F440B550B0E9445
S1132170E012D9019D01A130B44014F020E034E014
S1132180332314F420E030E03093390120933801F4
S1132190F894D80118968D919C91199781159440C3
S11321A049F478940000F894F801808591858115AC
S11321B09440B9F3F801A085B18578940000F40146
S11321C040855185F50180859185481B590B79F02F
S11321D080859185A81BB90B28EE33E00E940E136D
S11321E09A01550F440B550B0E94E012D9019D0131
S11321F0A130B44014F020E034E0332314F420E0A0
S113220030E0309337012093360140913E015091E4
S11322103F0180913C0190913D01840F951F4091B5
S11322203A0150913B01840F951F40913801509120
S11322303901840F951F280F391F309335012093DE
S113224034011092000180E00E94810390932F01D9
S113225080932E01E0913401F09135013097A9F17A
S11322609F01FF2324F4222733272E1B3F0B121632
S113227013060CF006C140E0C901B1010E94AA1284
S113228091E0940FA1E0B0E0AC0FBD1FA40FB11D0D
S1132290362F330F832F880F880F830F205D281B61
S11322A02C93262F372F492F121613062CF3FF23B6
S11322B084F401C090E0E1E0F0E0EC0FFD1FE90FD1
S11322C0F11D8DE280839F5F04C080E3898391E0E8
S11322D003C0992309F4CCC030E0D701EC9181E02C
S11322E08E0F803609F4832FD6012C91281751F0D4
S11322F0F0E0EC5BFE4FDE01A90FB11D2C9122A38F
S1132300F7018083915049F7B3C0F701408181E020
S1132310840F803609F4832FF6012081281739F0C1
S1132320E42FF0E0EC5BFE4F92A3F70180839D91D4
S11323309111EBCFD3018C9180628C938091340105
S113234090913501843F91401CF40E94E20C22CE0E
S113235080912E0190912F01805D97402091320150
S113236030913301FC01E21BF30B9F01E09130013A
S1132370F0913101E80FF91FF0933101E09330013E
S1132380909333018093320164E170E00E94AA12B9
S11323902B01CF0160E177E20E94AA12640D751D42
S11323A02901440C551C240D351D332314F42F5FCF
S11323B03F4F35952795620F731F6D33710514F0E8
S11323C06CE370E0643CFFEF7F0714F464EC7FEF90
S11323D077236CF4645C7F4F7093410160934001F8
S11323E08CE390E090934301809342010CC08CE312
S11323F090E09093410180934001861B970B90934A
S113240043018093420180912E0190912F01811507
S113241024E0920774F4409042015090430180916B
S11324204001909141010E94CD00C2010E94BE0072
S1132430B1CD81159C4074F4409042015090430109
S113244080914001909141010E94CD00C2010E94FF
S1132450BE00A0CD409042015090430180914001C4
S1132460909141010E94CD00C2010E94BE0092CD14
S1132470D3018C9180628C93ABE1B1E09AE030E0BF
S113248044CFFF23ACF716CF0E943B0B78941999E5
S113249049C0F8948091E7019091E8018115944036
S11324A051F4EDEDF1E078940000F8948285938581
S11324B081159440C1F3A091E701B091E8017894AB
S11324C0000028E833E10E940E1361507E4F8F4FC5
S11324D09F4F2FEF33E040E050E00E94BE12A3E094
S11324E0B0E00E941513DC01CB010196A11DB11DC2
S11324F0BC01CD01969587957795679520E044E0DA
S113250088EC91E00E94310D80ED97E028EE33E0F5
S1132510F9016F9364E06A95F1F76F913197C9F708
S11325200197B1F70E94D80EEBEFF1E01186138604
S1132530108684EC99E0918380831582148213823F
S11325401282E4E4F1E010A211A21092C6011092EA
S1132550C701089597FB072E16F4009407D077FD62
S113256009D00E94281307FC05D03EF4909581956C
S11325709F4F0895709561957F4F0895A1E21A2E9B
S1132580AA1BBB1BFD010DC0AA1FBB1FEE1FFF1F13
S1132590A217B307E407F50720F0A21BB30BE40B63
S11325A0F50B661F771F881F991F1A9469F76095AA
S11325B07095809590959B01AC01BD01CF01089564
S11325C0052E97FB1EF400940E94F71257FD07D0C6
S11325D00E94BE1207FC03D04EF40C94F7125095DF
S11325E04095309521953F4F4F4F5F4F08959095FB
S11325F08095709561957F4F8F4F9F4F0895A29F4F
S1132600B001B39FC001A39F700D811D1124911DC2
S1132610B29F700D811D1124911D08950E94FF1217
S1132620B7FF0895821B930B08950E94FF12A59F84
S1132630900DB49F900DA49F800D911D11240895B9
S1132640B7FF0C9415130E941513821B930B089566
S1132650AA1BBB1B51E107C0AA1FBB1FA617B707C4
S113266010F0A61BB70B881F991F5A95A9F78095E0
S11326709095BC01CD010895EE0FFF1F0590F491D4
S10B2680E02D0994F894FFCF4A
S113268801E80301707265737300427574746F6EA8
S11326985F42006D5600676F21000A0A00747E7A53
S10B26A83300010203040607DC
S9030000FC
